{
	"contracts/modules/BasicIssuanceModule.sol": {
		"BasicIssuanceModule": {
			"abi": [
				{
					"inputs": [
						{
							"internalType": "contract IController",
							"name": "_controller",
							"type": "address"
						}
					],
					"stateMutability": "nonpayable",
					"type": "constructor"
				},
				{
					"anonymous": false,
					"inputs": [
						{
							"indexed": true,
							"internalType": "address",
							"name": "_setToken",
							"type": "address"
						},
						{
							"indexed": true,
							"internalType": "address",
							"name": "_issuer",
							"type": "address"
						},
						{
							"indexed": true,
							"internalType": "address",
							"name": "_to",
							"type": "address"
						},
						{
							"indexed": false,
							"internalType": "address",
							"name": "_hookContract",
							"type": "address"
						},
						{
							"indexed": false,
							"internalType": "uint256",
							"name": "_quantity",
							"type": "uint256"
						}
					],
					"name": "SetTokenIssued",
					"type": "event"
				},
				{
					"anonymous": false,
					"inputs": [
						{
							"indexed": true,
							"internalType": "address",
							"name": "_setToken",
							"type": "address"
						},
						{
							"indexed": true,
							"internalType": "address",
							"name": "_redeemer",
							"type": "address"
						},
						{
							"indexed": true,
							"internalType": "address",
							"name": "_to",
							"type": "address"
						},
						{
							"indexed": false,
							"internalType": "uint256",
							"name": "_quantity",
							"type": "uint256"
						}
					],
					"name": "SetTokenRedeemed",
					"type": "event"
				},
				{
					"inputs": [],
					"name": "controller",
					"outputs": [
						{
							"internalType": "contract IController",
							"name": "",
							"type": "address"
						}
					],
					"stateMutability": "view",
					"type": "function"
				},
				{
					"inputs": [
						{
							"internalType": "contract ISetToken",
							"name": "_setToken",
							"type": "address"
						},
						{
							"internalType": "uint256",
							"name": "_quantity",
							"type": "uint256"
						}
					],
					"name": "getRequiredComponentUnitsForIssue",
					"outputs": [
						{
							"internalType": "address[]",
							"name": "",
							"type": "address[]"
						},
						{
							"internalType": "uint256[]",
							"name": "",
							"type": "uint256[]"
						}
					],
					"stateMutability": "view",
					"type": "function"
				},
				{
					"inputs": [
						{
							"internalType": "contract ISetToken",
							"name": "_setToken",
							"type": "address"
						},
						{
							"internalType": "contract IManagerIssuanceHook",
							"name": "_preIssueHook",
							"type": "address"
						}
					],
					"name": "initialize",
					"outputs": [],
					"stateMutability": "nonpayable",
					"type": "function"
				},
				{
					"inputs": [
						{
							"internalType": "contract ISetToken",
							"name": "_setToken",
							"type": "address"
						},
						{
							"internalType": "uint256",
							"name": "_quantity",
							"type": "uint256"
						},
						{
							"internalType": "address",
							"name": "_to",
							"type": "address"
						}
					],
					"name": "issue",
					"outputs": [],
					"stateMutability": "nonpayable",
					"type": "function"
				},
				{
					"inputs": [
						{
							"internalType": "contract ISetToken",
							"name": "",
							"type": "address"
						}
					],
					"name": "managerIssuanceHook",
					"outputs": [
						{
							"internalType": "contract IManagerIssuanceHook",
							"name": "",
							"type": "address"
						}
					],
					"stateMutability": "view",
					"type": "function"
				},
				{
					"inputs": [
						{
							"internalType": "contract ISetToken",
							"name": "_setToken",
							"type": "address"
						},
						{
							"internalType": "uint256",
							"name": "_quantity",
							"type": "uint256"
						},
						{
							"internalType": "address",
							"name": "_to",
							"type": "address"
						}
					],
					"name": "redeem",
					"outputs": [],
					"stateMutability": "nonpayable",
					"type": "function"
				},
				{
					"inputs": [],
					"name": "removeModule",
					"outputs": [],
					"stateMutability": "nonpayable",
					"type": "function"
				}
			],
			"devdoc": {
				"author": "Set Protocol Module that enables issuance and redemption functionality on a SetToken. This is a module that is required to bring the totalSupply of a Set above 0.",
				"methods": {
					"constructor": {
						"params": {
							"_controller": "Address of controller contract"
						}
					},
					"getRequiredComponentUnitsForIssue(address,uint256)": {
						"params": {
							"_quantity": "Quantity of SetToken to issue",
							"_setToken": "Instance of the SetToken to issue"
						},
						"returns": {
							"_0": "address[]            List of component addresses",
							"_1": "uint256[]            List of component units required to issue the quantity of SetTokens"
						}
					},
					"initialize(address,address)": {
						"params": {
							"_preIssueHook": "Instance of the Manager Contract with the Pre-Issuance Hook function",
							"_setToken": "Instance of the SetToken to issue"
						}
					},
					"issue(address,uint256,address)": {
						"params": {
							"_quantity": "Quantity of the SetToken to mint",
							"_setToken": "Instance of the SetToken contract",
							"_to": "Address to mint SetToken to"
						}
					},
					"redeem(address,uint256,address)": {
						"params": {
							"_quantity": "Quantity of the SetToken to redeem",
							"_setToken": "Instance of the SetToken contract",
							"_to": "Address to send component assets to"
						}
					}
				},
				"title": "BasicIssuanceModule"
			},
			"evm": {
				"assembly": "    /* \"contracts/modules/BasicIssuanceModule.sol\":1637:9025  contract BasicIssuanceModule is ModuleBase, ReentrancyGuard {... */\n  mstore(0x40, 0x80)\n    /* \"contracts/modules/BasicIssuanceModule.sol\":2679:2749  constructor(IController _controller) public ModuleBase(_controller) {} */\n  callvalue\n  dup1\n  iszero\n  tag_1\n  jumpi\n  0x00\n  dup1\n  revert\ntag_1:\n  pop\n  mload(0x40)\n  sub(codesize, bytecodeSize)\n  dup1\n  bytecodeSize\n  dup4\n  codecopy\n  dup2\n  add\n  0x40\n  dup2\n  swap1\n  mstore\n  tag_2\n  swap2\n  jump(tag_3)\ntag_2:\n    /* \"contracts/lib/ModuleBase.sol\":3375:3385  controller */\n  0x00\n    /* \"contracts/lib/ModuleBase.sol\":3375:3399  controller = _controller */\n  dup1\n  sload\n  not(sub(shl(0xa0, 0x01), 0x01))\n  and\n  sub(shl(0xa0, 0x01), 0x01)\n  swap3\n  swap1\n  swap3\n  and\n  swap2\n  swap1\n  swap2\n  or\n  swap1\n  sstore\n  0x01\n    /* \"@openzeppelin/contracts/utils/ReentrancyGuard.sol\":1760:1782  _status = _NOT_ENTERED */\n  dup1\n  sstore\n    /* \"contracts/modules/BasicIssuanceModule.sol\":1637:9025  contract BasicIssuanceModule is ModuleBase, ReentrancyGuard {... */\n  jump(tag_11)\n    /* \"--CODEGEN--\":186:489   */\ntag_3:\n  0x00\n    /* \"--CODEGEN--\":321:323   */\n  0x20\n    /* \"--CODEGEN--\":309:318   */\n  dup3\n    /* \"--CODEGEN--\":300:307   */\n  dup5\n    /* \"--CODEGEN--\":296:319   */\n  sub\n    /* \"--CODEGEN--\":292:324   */\n  slt\n    /* \"--CODEGEN--\":289:291   */\n  iszero\n  tag_13\n  jumpi\n  dup1\n  dup2\n    /* \"--CODEGEN--\":327:339   */\n  revert\n    /* \"--CODEGEN--\":289:291   */\ntag_13:\n    /* \"--CODEGEN--\":103:116   */\n  dup2\n  mload\n  sub(shl(0xa0, 0x01), 0x01)\n    /* \"--CODEGEN--\":774:828   */\n  dup2\n  and\n    /* \"--CODEGEN--\":919:974   */\n  dup2\n  eq\n    /* \"--CODEGEN--\":909:911   */\n  tag_14\n  jumpi\n  dup2\n  dup3\n    /* \"--CODEGEN--\":978:990   */\n  revert\n    /* \"--CODEGEN--\":909:911   */\ntag_14:\n    /* \"--CODEGEN--\":379:473   */\n  swap4\n    /* \"--CODEGEN--\":283:489   */\n  swap3\n  pop\n  pop\n  pop\n  jump\ntag_11:\n    /* \"contracts/modules/BasicIssuanceModule.sol\":1637:9025  contract BasicIssuanceModule is ModuleBase, ReentrancyGuard {... */\n  dataSize(sub_0)\n  dup1\n  dataOffset(sub_0)\n  0x00\n  codecopy\n  0x00\n  return\nstop\n\nsub_0: assembly {\n        /* \"contracts/modules/BasicIssuanceModule.sol\":1637:9025  contract BasicIssuanceModule is ModuleBase, ReentrancyGuard {... */\n      mstore(0x40, 0x80)\n      callvalue\n      dup1\n      iszero\n      tag_1\n      jumpi\n      0x00\n      dup1\n      revert\n    tag_1:\n      pop\n      jumpi(tag_2, lt(calldatasize, 0x04))\n      shr(0xe0, calldataload(0x00))\n      dup1\n      0x7a4ffd03\n      gt\n      tag_10\n      jumpi\n      dup1\n      0x7a4ffd03\n      eq\n      tag_6\n      jumpi\n      dup1\n      0x847ef08d\n      eq\n      tag_7\n      jumpi\n      dup1\n      0xdfe75335\n      eq\n      tag_8\n      jumpi\n      dup1\n      0xf77c4791\n      eq\n      tag_9\n      jumpi\n      jump(tag_2)\n    tag_10:\n      dup1\n      0x485cc955\n      eq\n      tag_3\n      jumpi\n      dup1\n      0x5c833bfd\n      eq\n      tag_4\n      jumpi\n      dup1\n      0x6d78f47a\n      eq\n      tag_5\n      jumpi\n    tag_2:\n      0x00\n      dup1\n      revert\n        /* \"contracts/modules/BasicIssuanceModule.sol\":6481:6791  function initialize(... */\n    tag_3:\n      tag_11\n      tag_12\n      calldatasize\n      0x04\n      jump(tag_13)\n    tag_12:\n      tag_14\n      jump\t// in\n    tag_11:\n      stop\n        /* \"contracts/modules/BasicIssuanceModule.sol\":4734:6079  function redeem(... */\n    tag_4:\n      tag_11\n      tag_16\n      calldatasize\n      0x04\n      jump(tag_17)\n    tag_16:\n      tag_18\n      jump\t// in\n        /* \"contracts/modules/BasicIssuanceModule.sol\":3254:4317  function issue(... */\n    tag_5:\n      tag_11\n      tag_20\n      calldatasize\n      0x04\n      jump(tag_17)\n    tag_20:\n      tag_21\n      jump\t// in\n        /* \"contracts/modules/BasicIssuanceModule.sol\":7545:8274  function getRequiredComponentUnitsForIssue(... */\n    tag_6:\n      tag_22\n      tag_23\n      calldatasize\n      0x04\n      jump(tag_24)\n    tag_23:\n      tag_25\n      jump\t// in\n    tag_22:\n      mload(0x40)\n      tag_26\n      swap3\n      swap2\n      swap1\n      jump(tag_27)\n    tag_26:\n      mload(0x40)\n      dup1\n      swap2\n      sub\n      swap1\n      return\n        /* \"contracts/modules/BasicIssuanceModule.sol\":6939:7056  function removeModule() external override {... */\n    tag_7:\n      tag_11\n      tag_29\n      jump\t// in\n        /* \"contracts/modules/BasicIssuanceModule.sol\":2419:2488  mapping(ISetToken => IManagerIssuanceHook) public managerIssuanceHook */\n    tag_8:\n      tag_30\n      tag_31\n      calldatasize\n      0x04\n      jump(tag_32)\n    tag_31:\n      tag_33\n      jump\t// in\n    tag_30:\n      mload(0x40)\n      tag_26\n      swap2\n      swap1\n      jump(tag_82)\n        /* \"contracts/lib/ModuleBase.sol\":2156:2185  IController public controller */\n    tag_9:\n      tag_30\n      tag_37\n      jump\t// in\n        /* \"contracts/modules/BasicIssuanceModule.sol\":6481:6791  function initialize(... */\n    tag_14:\n        /* \"contracts/modules/BasicIssuanceModule.sol\":6620:6629  _setToken */\n      dup2\n        /* \"contracts/modules/BasicIssuanceModule.sol\":6631:6641  msg.sender */\n      caller\n        /* \"contracts/lib/ModuleBase.sol\":2440:2483  _validateOnlySetManager(_setToken, _caller) */\n      tag_41\n        /* \"contracts/lib/ModuleBase.sol\":2464:2473  _setToken */\n      dup3\n        /* \"contracts/lib/ModuleBase.sol\":2475:2482  _caller */\n      dup3\n        /* \"contracts/lib/ModuleBase.sol\":2440:2463  _validateOnlySetManager */\n      tag_42\n        /* \"contracts/lib/ModuleBase.sol\":2440:2483  _validateOnlySetManager(_setToken, _caller) */\n      jump\t// in\n    tag_41:\n        /* \"contracts/modules/BasicIssuanceModule.sol\":6674:6683  _setToken */\n      dup4\n        /* \"contracts/lib/ModuleBase.sol\":3050:3092  _validateOnlyValidAndPendingSet(_setToken) */\n      tag_44\n        /* \"contracts/lib/ModuleBase.sol\":3082:3091  _setToken */\n      dup2\n        /* \"contracts/lib/ModuleBase.sol\":3050:3081  _validateOnlyValidAndPendingSet */\n      tag_45\n        /* \"contracts/lib/ModuleBase.sol\":3050:3092  _validateOnlyValidAndPendingSet(_setToken) */\n      jump\t// in\n    tag_44:\n      sub(shl(0xa0, 0x01), 0x01)\n        /* \"contracts/modules/BasicIssuanceModule.sol\":6699:6729  managerIssuanceHook[_setToken] */\n      dup6\n      dup2\n      and\n      0x00\n      dup2\n      dup2\n      mstore\n        /* \"contracts/modules/BasicIssuanceModule.sol\":6699:6718  managerIssuanceHook */\n      0x02\n        /* \"contracts/modules/BasicIssuanceModule.sol\":6699:6729  managerIssuanceHook[_setToken] */\n      0x20\n      mstore\n      0x40\n      dup1\n      dup3\n      keccak256\n        /* \"contracts/modules/BasicIssuanceModule.sol\":6699:6745  managerIssuanceHook[_setToken] = _preIssueHook */\n      dup1\n      sload\n      not(sub(shl(0xa0, 0x01), 0x01))\n      and\n      swap5\n      dup10\n      and\n      swap5\n      swap1\n      swap5\n      or\n      swap1\n      swap4\n      sstore\n        /* \"contracts/modules/BasicIssuanceModule.sol\":6756:6784  _setToken.initializeModule() */\n      dup3\n      mload\n      shl(0xe1, 0x07ff078f)\n      dup2\n      mstore\n      swap3\n      mload\n        /* \"contracts/modules/BasicIssuanceModule.sol\":6699:6729  managerIssuanceHook[_setToken] */\n      swap2\n      swap3\n        /* \"contracts/modules/BasicIssuanceModule.sol\":6756:6782  _setToken.initializeModule */\n      0x0ffe0f1e\n      swap3\n        /* \"contracts/modules/BasicIssuanceModule.sol\":6756:6784  _setToken.initializeModule() */\n      0x04\n      dup1\n      dup4\n      add\n      swap4\n        /* \"contracts/modules/BasicIssuanceModule.sol\":6699:6729  managerIssuanceHook[_setToken] */\n      swap3\n        /* \"contracts/modules/BasicIssuanceModule.sol\":6756:6784  _setToken.initializeModule() */\n      dup3\n      swap1\n      sub\n      add\n      dup2\n        /* \"contracts/modules/BasicIssuanceModule.sol\":6699:6729  managerIssuanceHook[_setToken] */\n      dup4\n      dup8\n        /* \"contracts/modules/BasicIssuanceModule.sol\":6756:6784  _setToken.initializeModule() */\n      dup1\n      extcodesize\n      iszero\n      dup1\n      iszero\n      tag_47\n      jumpi\n      0x00\n      dup1\n      revert\n    tag_47:\n      pop\n      gas\n      call\n      iszero\n      dup1\n      iszero\n      tag_49\n      jumpi\n      returndatasize\n      0x00\n      dup1\n      returndatacopy\n      revert(0x00, returndatasize)\n    tag_49:\n      pop\n      pop\n      pop\n      pop\n        /* \"contracts/lib/ModuleBase.sol\":2493:2494  _ */\n      pop\n        /* \"contracts/modules/BasicIssuanceModule.sol\":6481:6791  function initialize(... */\n      pop\n      pop\n      pop\n      pop\n      jump\t// out\n        /* \"contracts/modules/BasicIssuanceModule.sol\":4734:6079  function redeem(... */\n    tag_18:\n        /* \"@openzeppelin/contracts/utils/ReentrancyGuard.sol\":1688:1689  2 */\n      0x02\n        /* \"@openzeppelin/contracts/utils/ReentrancyGuard.sol\":2277:2284  _status */\n      sload(0x01)\n        /* \"@openzeppelin/contracts/utils/ReentrancyGuard.sol\":2277:2296  _status != _ENTERED */\n      eq\n      iszero\n        /* \"@openzeppelin/contracts/utils/ReentrancyGuard.sol\":2269:2332  require(_status != _ENTERED, \"ReentrancyGuard: reentrant call\") */\n      tag_51\n      jumpi\n      mload(0x40)\n      shl(0xe5, 0x461bcd)\n      dup2\n      mstore\n      0x04\n      add\n      tag_52\n      swap1\n      jump(tag_53)\n    tag_52:\n      mload(0x40)\n      dup1\n      swap2\n      sub\n      swap1\n      revert\n    tag_51:\n        /* \"@openzeppelin/contracts/utils/ReentrancyGuard.sol\":1688:1689  2 */\n      0x02\n        /* \"@openzeppelin/contracts/utils/ReentrancyGuard.sol\":2407:2414  _status */\n      0x01\n        /* \"@openzeppelin/contracts/utils/ReentrancyGuard.sol\":2407:2425  _status = _ENTERED */\n      sstore\n        /* \"contracts/modules/BasicIssuanceModule.sol\":4906:4915  _setToken */\n      dup3\n        /* \"contracts/lib/ModuleBase.sol\":2574:2620  _validateOnlyValidAndInitializedSet(_setToken) */\n      tag_55\n        /* \"contracts/modules/BasicIssuanceModule.sol\":4906:4915  _setToken */\n      dup2\n        /* \"contracts/lib/ModuleBase.sol\":2574:2609  _validateOnlyValidAndInitializedSet */\n      tag_56\n        /* \"contracts/lib/ModuleBase.sol\":2574:2620  _validateOnlyValidAndInitializedSet(_setToken) */\n      jump\t// in\n    tag_55:\n        /* \"contracts/modules/BasicIssuanceModule.sol\":4951:4952  0 */\n      0x00\n        /* \"contracts/modules/BasicIssuanceModule.sol\":4939:4948  _quantity */\n      dup4\n        /* \"contracts/modules/BasicIssuanceModule.sol\":4939:4952  _quantity > 0 */\n      gt\n        /* \"contracts/modules/BasicIssuanceModule.sol\":4931:4984  require(_quantity > 0, \"Redeem quantity must be > 0\") */\n      tag_58\n      jumpi\n      mload(0x40)\n      shl(0xe5, 0x461bcd)\n      dup2\n      mstore\n      0x04\n      add\n      tag_52\n      swap1\n      jump(tag_60)\n    tag_58:\n        /* \"contracts/modules/BasicIssuanceModule.sol\":5096:5133  _setToken.burn(msg.sender, _quantity) */\n      mload(0x40)\n      shl(0xe2, 0x2770a7eb)\n      dup2\n      mstore\n      sub(shl(0xa0, 0x01), 0x01)\n        /* \"contracts/modules/BasicIssuanceModule.sol\":5096:5110  _setToken.burn */\n      dup6\n      and\n      swap1\n      0x9dc29fac\n      swap1\n        /* \"contracts/modules/BasicIssuanceModule.sol\":5096:5133  _setToken.burn(msg.sender, _quantity) */\n      tag_61\n      swap1\n        /* \"contracts/modules/BasicIssuanceModule.sol\":5111:5121  msg.sender */\n      caller\n      swap1\n        /* \"contracts/modules/BasicIssuanceModule.sol\":5123:5132  _quantity */\n      dup8\n      swap1\n        /* \"contracts/modules/BasicIssuanceModule.sol\":5096:5133  _setToken.burn(msg.sender, _quantity) */\n      0x04\n      add\n      jump(tag_62)\n    tag_61:\n      0x00\n      mload(0x40)\n      dup1\n      dup4\n      sub\n      dup2\n      0x00\n      dup8\n      dup1\n      extcodesize\n      iszero\n      dup1\n      iszero\n      tag_63\n      jumpi\n      0x00\n      dup1\n      revert\n    tag_63:\n      pop\n      gas\n      call\n      iszero\n      dup1\n      iszero\n      tag_65\n      jumpi\n      returndatasize\n      0x00\n      dup1\n      returndatacopy\n      revert(0x00, returndatasize)\n    tag_65:\n      pop\n      pop\n      pop\n      pop\n        /* \"contracts/modules/BasicIssuanceModule.sol\":5229:5256  address[] memory components */\n      0x60\n        /* \"contracts/modules/BasicIssuanceModule.sol\":5259:5268  _setToken */\n      dup5\n      sub(shl(0xa0, 0x01), 0x01)\n        /* \"contracts/modules/BasicIssuanceModule.sol\":5259:5282  _setToken.getComponents */\n      and\n      0x99d50d5d\n        /* \"contracts/modules/BasicIssuanceModule.sol\":5259:5284  _setToken.getComponents() */\n      mload(0x40)\n      dup2\n      0xffffffff\n      and\n      0xe0\n      shl\n      dup2\n      mstore\n      0x04\n      add\n      0x00\n      mload(0x40)\n      dup1\n      dup4\n      sub\n      dup2\n      dup7\n      dup1\n      extcodesize\n      iszero\n      dup1\n      iszero\n      tag_66\n      jumpi\n      0x00\n      dup1\n      revert\n    tag_66:\n      pop\n      gas\n      staticcall\n      iszero\n      dup1\n      iszero\n      tag_68\n      jumpi\n      returndatasize\n      0x00\n      dup1\n      returndatacopy\n      revert(0x00, returndatasize)\n    tag_68:\n      pop\n      pop\n      pop\n      pop\n      mload(0x40)\n      returndatasize\n      0x00\n      dup3\n      returndatacopy\n      0x1f\n      returndatasize\n      swap1\n      dup2\n      add\n      not(0x1f)\n      and\n      dup3\n      add\n      0x40\n      mstore\n      tag_69\n      swap2\n      swap1\n      dup2\n      add\n      swap1\n      jump(tag_70)\n    tag_69:\n        /* \"contracts/modules/BasicIssuanceModule.sol\":5229:5284  address[] memory components = _setToken.getComponents() */\n      swap1\n      pop\n        /* \"contracts/modules/BasicIssuanceModule.sol\":5299:5308  uint256 i */\n      0x00\n        /* \"contracts/modules/BasicIssuanceModule.sol\":5294:5993  for (uint256 i = 0; i < components.length; i++) {... */\n    tag_71:\n        /* \"contracts/modules/BasicIssuanceModule.sol\":5318:5328  components */\n      dup2\n        /* \"contracts/modules/BasicIssuanceModule.sol\":5318:5335  components.length */\n      mload\n        /* \"contracts/modules/BasicIssuanceModule.sol\":5314:5315  i */\n      dup2\n        /* \"contracts/modules/BasicIssuanceModule.sol\":5314:5335  i < components.length */\n      lt\n        /* \"contracts/modules/BasicIssuanceModule.sol\":5294:5993  for (uint256 i = 0; i < components.length; i++) {... */\n      iszero\n      tag_72\n      jumpi\n        /* \"contracts/modules/BasicIssuanceModule.sol\":5356:5373  address component */\n      0x00\n        /* \"contracts/modules/BasicIssuanceModule.sol\":5376:5386  components */\n      dup3\n        /* \"contracts/modules/BasicIssuanceModule.sol\":5387:5388  i */\n      dup3\n        /* \"contracts/modules/BasicIssuanceModule.sol\":5376:5389  components[i] */\n      dup2\n      mload\n      dup2\n      lt\n      tag_74\n      jumpi\n      invalid\n    tag_74:\n      0x20\n      mul\n      0x20\n      add\n      add\n      mload\n        /* \"contracts/modules/BasicIssuanceModule.sol\":5356:5389  address component = components[i] */\n      swap1\n      pop\n        /* \"contracts/modules/BasicIssuanceModule.sol\":5412:5452  _setToken.hasExternalPosition(component) */\n      tag_75\n        /* \"contracts/modules/BasicIssuanceModule.sol\":5442:5451  component */\n      dup2\n        /* \"contracts/modules/BasicIssuanceModule.sol\":5412:5421  _setToken */\n      dup9\n      sub(shl(0xa0, 0x01), 0x01)\n        /* \"contracts/modules/BasicIssuanceModule.sol\":5412:5441  _setToken.hasExternalPosition */\n      and\n      tag_76\n      swap1\n        /* \"contracts/modules/BasicIssuanceModule.sol\":5412:5452  _setToken.hasExternalPosition(component) */\n      swap2\n      swap1\n      0xffffffff\n      and\n      jump\t// in\n    tag_75:\n        /* \"contracts/modules/BasicIssuanceModule.sol\":5411:5452  !_setToken.hasExternalPosition(component) */\n      iszero\n        /* \"contracts/modules/BasicIssuanceModule.sol\":5403:5493  require(!_setToken.hasExternalPosition(component), \"Only default positions are supported\") */\n      tag_77\n      jumpi\n      mload(0x40)\n      shl(0xe5, 0x461bcd)\n      dup2\n      mstore\n      0x04\n      add\n      tag_52\n      swap1\n      jump(tag_79)\n    tag_77:\n        /* \"contracts/modules/BasicIssuanceModule.sol\":5508:5520  uint256 unit */\n      0x00\n        /* \"contracts/modules/BasicIssuanceModule.sol\":5523:5582  _setToken.getDefaultPositionRealUnit(component).toUint256() */\n      tag_80\n        /* \"contracts/modules/BasicIssuanceModule.sol\":5523:5532  _setToken */\n      dup9\n      sub(shl(0xa0, 0x01), 0x01)\n        /* \"contracts/modules/BasicIssuanceModule.sol\":5523:5559  _setToken.getDefaultPositionRealUnit */\n      and\n      0x66cb8d2f\n        /* \"contracts/modules/BasicIssuanceModule.sol\":5560:5569  component */\n      dup5\n        /* \"contracts/modules/BasicIssuanceModule.sol\":5523:5570  _setToken.getDefaultPositionRealUnit(component) */\n      mload(0x40)\n      dup3\n      0xffffffff\n      and\n      0xe0\n      shl\n      dup2\n      mstore\n      0x04\n      add\n      tag_81\n      swap2\n      swap1\n      jump(tag_82)\n    tag_81:\n      0x20\n      mload(0x40)\n      dup1\n      dup4\n      sub\n      dup2\n      dup7\n      dup1\n      extcodesize\n      iszero\n      dup1\n      iszero\n      tag_83\n      jumpi\n      0x00\n      dup1\n      revert\n    tag_83:\n      pop\n      gas\n      staticcall\n      iszero\n      dup1\n      iszero\n      tag_85\n      jumpi\n      returndatasize\n      0x00\n      dup1\n      returndatacopy\n      revert(0x00, returndatasize)\n    tag_85:\n      pop\n      pop\n      pop\n      pop\n      mload(0x40)\n      returndatasize\n      not(0x1f)\n      0x1f\n      dup3\n      add\n      and\n      dup3\n      add\n      dup1\n      0x40\n      mstore\n      pop\n      dup2\n      add\n      swap1\n      tag_86\n      swap2\n      swap1\n      jump(tag_87)\n    tag_86:\n        /* \"contracts/modules/BasicIssuanceModule.sol\":5523:5580  _setToken.getDefaultPositionRealUnit(component).toUint256 */\n      tag_88\n        /* \"contracts/modules/BasicIssuanceModule.sol\":5523:5582  _setToken.getDefaultPositionRealUnit(component).toUint256() */\n      jump\t// in\n    tag_80:\n        /* \"contracts/modules/BasicIssuanceModule.sol\":5508:5582  uint256 unit = _setToken.getDefaultPositionRealUnit(component).toUint256() */\n      swap1\n      pop\n        /* \"contracts/modules/BasicIssuanceModule.sol\":5711:5736  uint256 componentQuantity */\n      0x00\n        /* \"contracts/modules/BasicIssuanceModule.sol\":5739:5765  _quantity.preciseMul(unit) */\n      tag_89\n        /* \"contracts/modules/BasicIssuanceModule.sol\":5739:5748  _quantity */\n      dup9\n        /* \"contracts/modules/BasicIssuanceModule.sol\":5508:5582  uint256 unit = _setToken.getDefaultPositionRealUnit(component).toUint256() */\n      dup4\n        /* \"contracts/modules/BasicIssuanceModule.sol\":5739:5765  _quantity.preciseMul(unit) */\n      0xffffffff\n        /* \"contracts/modules/BasicIssuanceModule.sol\":5739:5759  _quantity.preciseMul */\n      tag_90\n        /* \"contracts/modules/BasicIssuanceModule.sol\":5739:5765  _quantity.preciseMul(unit) */\n      and\n      jump\t// in\n    tag_89:\n        /* \"contracts/modules/BasicIssuanceModule.sol\":5711:5765  uint256 componentQuantity = _quantity.preciseMul(unit) */\n      swap1\n      pop\n        /* \"contracts/modules/BasicIssuanceModule.sol\":5855:5982  _setToken.strictInvokeTransfer(... */\n      tag_91\n      sub(shl(0xa0, 0x01), 0x01)\n        /* \"contracts/modules/BasicIssuanceModule.sol\":5855:5885  _setToken.strictInvokeTransfer */\n      dup11\n      and\n        /* \"contracts/modules/BasicIssuanceModule.sol\":5903:5912  component */\n      dup5\n        /* \"contracts/modules/BasicIssuanceModule.sol\":5930:5933  _to */\n      dup10\n        /* \"contracts/modules/BasicIssuanceModule.sol\":5711:5765  uint256 componentQuantity = _quantity.preciseMul(unit) */\n      dup5\n        /* \"contracts/modules/BasicIssuanceModule.sol\":5855:5982  _setToken.strictInvokeTransfer(... */\n      0xffffffff\n        /* \"contracts/modules/BasicIssuanceModule.sol\":5855:5885  _setToken.strictInvokeTransfer */\n      tag_92\n        /* \"contracts/modules/BasicIssuanceModule.sol\":5855:5982  _setToken.strictInvokeTransfer(... */\n      and\n      jump\t// in\n    tag_91:\n      pop\n      pop\n      pop\n        /* \"contracts/modules/BasicIssuanceModule.sol\":5337:5340  i++ */\n      0x01\n      add\n        /* \"contracts/modules/BasicIssuanceModule.sol\":5294:5993  for (uint256 i = 0; i < components.length; i++) {... */\n      jump(tag_71)\n    tag_72:\n      pop\n        /* \"contracts/modules/BasicIssuanceModule.sol\":6057:6060  _to */\n      dup3\n      sub(shl(0xa0, 0x01), 0x01)\n        /* \"contracts/modules/BasicIssuanceModule.sol\":6008:6072  SetTokenRedeemed(address(_setToken), msg.sender, _to, _quantity) */\n      and\n        /* \"contracts/modules/BasicIssuanceModule.sol\":6045:6055  msg.sender */\n      caller\n      sub(shl(0xa0, 0x01), 0x01)\n        /* \"contracts/modules/BasicIssuanceModule.sol\":6008:6072  SetTokenRedeemed(address(_setToken), msg.sender, _to, _quantity) */\n      and\n        /* \"contracts/modules/BasicIssuanceModule.sol\":6033:6042  _setToken */\n      dup7\n      sub(shl(0xa0, 0x01), 0x01)\n        /* \"contracts/modules/BasicIssuanceModule.sol\":6008:6072  SetTokenRedeemed(address(_setToken), msg.sender, _to, _quantity) */\n      and\n      0x05f8aaada00823525432114f0e904c6f7c0198a5b8f113ee635ff81aaf9566ad\n        /* \"contracts/modules/BasicIssuanceModule.sol\":6062:6071  _quantity */\n      dup8\n        /* \"contracts/modules/BasicIssuanceModule.sol\":6008:6072  SetTokenRedeemed(address(_setToken), msg.sender, _to, _quantity) */\n      mload(0x40)\n      tag_93\n      swap2\n      swap1\n      jump(tag_94)\n    tag_93:\n      mload(0x40)\n      dup1\n      swap2\n      sub\n      swap1\n      log4\n      pop\n      pop\n        /* \"@openzeppelin/contracts/utils/ReentrancyGuard.sol\":1645:1646  1 */\n      0x01\n        /* \"@openzeppelin/contracts/utils/ReentrancyGuard.sol\":2580:2602  _status = _NOT_ENTERED */\n      dup1\n      sstore\n      pop\n      pop\n      pop\n        /* \"contracts/modules/BasicIssuanceModule.sol\":4734:6079  function redeem(... */\n      jump\t// out\n        /* \"contracts/modules/BasicIssuanceModule.sol\":3254:4317  function issue(... */\n    tag_21:\n        /* \"@openzeppelin/contracts/utils/ReentrancyGuard.sol\":1688:1689  2 */\n      0x02\n        /* \"@openzeppelin/contracts/utils/ReentrancyGuard.sol\":2277:2284  _status */\n      sload(0x01)\n        /* \"@openzeppelin/contracts/utils/ReentrancyGuard.sol\":2277:2296  _status != _ENTERED */\n      eq\n      iszero\n        /* \"@openzeppelin/contracts/utils/ReentrancyGuard.sol\":2269:2332  require(_status != _ENTERED, \"ReentrancyGuard: reentrant call\") */\n      tag_96\n      jumpi\n      mload(0x40)\n      shl(0xe5, 0x461bcd)\n      dup2\n      mstore\n      0x04\n      add\n      tag_52\n      swap1\n      jump(tag_53)\n    tag_96:\n        /* \"@openzeppelin/contracts/utils/ReentrancyGuard.sol\":1688:1689  2 */\n      0x02\n        /* \"@openzeppelin/contracts/utils/ReentrancyGuard.sol\":2407:2414  _status */\n      0x01\n        /* \"@openzeppelin/contracts/utils/ReentrancyGuard.sol\":2407:2425  _status = _ENTERED */\n      sstore\n        /* \"contracts/modules/BasicIssuanceModule.sol\":3425:3434  _setToken */\n      dup3\n        /* \"contracts/lib/ModuleBase.sol\":2574:2620  _validateOnlyValidAndInitializedSet(_setToken) */\n      tag_99\n        /* \"contracts/modules/BasicIssuanceModule.sol\":3425:3434  _setToken */\n      dup2\n        /* \"contracts/lib/ModuleBase.sol\":2574:2609  _validateOnlyValidAndInitializedSet */\n      tag_56\n        /* \"contracts/lib/ModuleBase.sol\":2574:2620  _validateOnlyValidAndInitializedSet(_setToken) */\n      jump\t// in\n    tag_99:\n        /* \"contracts/modules/BasicIssuanceModule.sol\":3470:3471  0 */\n      0x00\n        /* \"contracts/modules/BasicIssuanceModule.sol\":3458:3467  _quantity */\n      dup4\n        /* \"contracts/modules/BasicIssuanceModule.sol\":3458:3471  _quantity > 0 */\n      gt\n        /* \"contracts/modules/BasicIssuanceModule.sol\":3450:3502  require(_quantity > 0, \"Issue quantity must be > 0\") */\n      tag_101\n      jumpi\n      mload(0x40)\n      shl(0xe5, 0x461bcd)\n      dup2\n      mstore\n      0x04\n      add\n      tag_52\n      swap1\n      jump(tag_103)\n    tag_101:\n        /* \"contracts/modules/BasicIssuanceModule.sol\":3513:3533  address hookContract */\n      0x00\n        /* \"contracts/modules/BasicIssuanceModule.sol\":3536:3593  _callPreIssueHooks(_setToken, _quantity, msg.sender, _to) */\n      tag_104\n        /* \"contracts/modules/BasicIssuanceModule.sol\":3555:3564  _setToken */\n      dup6\n        /* \"contracts/modules/BasicIssuanceModule.sol\":3566:3575  _quantity */\n      dup6\n        /* \"contracts/modules/BasicIssuanceModule.sol\":3577:3587  msg.sender */\n      caller\n        /* \"contracts/modules/BasicIssuanceModule.sol\":3589:3592  _to */\n      dup7\n        /* \"contracts/modules/BasicIssuanceModule.sol\":3536:3554  _callPreIssueHooks */\n      tag_105\n        /* \"contracts/modules/BasicIssuanceModule.sol\":3536:3593  _callPreIssueHooks(_setToken, _quantity, msg.sender, _to) */\n      jump\t// in\n    tag_104:\n        /* \"contracts/modules/BasicIssuanceModule.sol\":3513:3593  address hookContract = _callPreIssueHooks(_setToken, _quantity, msg.sender, _to) */\n      swap1\n      pop\n        /* \"contracts/modules/BasicIssuanceModule.sol\":3618:3645  address[] memory components */\n      0x60\n        /* \"contracts/modules/BasicIssuanceModule.sol\":3659:3695  uint256[] memory componentQuantities */\n      dup1\n        /* \"contracts/modules/BasicIssuanceModule.sol\":3708:3763  getRequiredComponentUnitsForIssue(_setToken, _quantity) */\n      tag_106\n        /* \"contracts/modules/BasicIssuanceModule.sol\":3742:3751  _setToken */\n      dup8\n        /* \"contracts/modules/BasicIssuanceModule.sol\":3753:3762  _quantity */\n      dup8\n        /* \"contracts/modules/BasicIssuanceModule.sol\":3708:3741  getRequiredComponentUnitsForIssue */\n      tag_25\n        /* \"contracts/modules/BasicIssuanceModule.sol\":3708:3763  getRequiredComponentUnitsForIssue(_setToken, _quantity) */\n      jump\t// in\n    tag_106:\n        /* \"contracts/modules/BasicIssuanceModule.sol\":3604:3763  (... */\n      swap1\n      swap3\n      pop\n      swap1\n      pop\n        /* \"contracts/modules/BasicIssuanceModule.sol\":3858:3867  uint256 i */\n      0x00\n        /* \"contracts/modules/BasicIssuanceModule.sol\":3853:4149  for (uint256 i = 0; i < components.length; i++) {... */\n    tag_107:\n        /* \"contracts/modules/BasicIssuanceModule.sol\":3877:3887  components */\n      dup3\n        /* \"contracts/modules/BasicIssuanceModule.sol\":3877:3894  components.length */\n      mload\n        /* \"contracts/modules/BasicIssuanceModule.sol\":3873:3874  i */\n      dup2\n        /* \"contracts/modules/BasicIssuanceModule.sol\":3873:3894  i < components.length */\n      lt\n        /* \"contracts/modules/BasicIssuanceModule.sol\":3853:4149  for (uint256 i = 0; i < components.length; i++) {... */\n      iszero\n      tag_108\n      jumpi\n        /* \"contracts/modules/BasicIssuanceModule.sol\":3969:4138  transferFrom(... */\n      tag_110\n        /* \"contracts/modules/BasicIssuanceModule.sol\":4006:4016  components */\n      dup4\n        /* \"contracts/modules/BasicIssuanceModule.sol\":4017:4018  i */\n      dup3\n        /* \"contracts/modules/BasicIssuanceModule.sol\":4006:4019  components[i] */\n      dup2\n      mload\n      dup2\n      lt\n      tag_111\n      jumpi\n      invalid\n    tag_111:\n      0x20\n      mul\n      0x20\n      add\n      add\n      mload\n        /* \"contracts/modules/BasicIssuanceModule.sol\":4038:4048  msg.sender */\n      caller\n        /* \"contracts/modules/BasicIssuanceModule.sol\":4074:4083  _setToken */\n      dup11\n        /* \"contracts/modules/BasicIssuanceModule.sol\":4102:4121  componentQuantities */\n      dup6\n        /* \"contracts/modules/BasicIssuanceModule.sol\":4122:4123  i */\n      dup6\n        /* \"contracts/modules/BasicIssuanceModule.sol\":4102:4124  componentQuantities[i] */\n      dup2\n      mload\n      dup2\n      lt\n      tag_112\n      jumpi\n      invalid\n    tag_112:\n      0x20\n      mul\n      0x20\n      add\n      add\n      mload\n        /* \"contracts/modules/BasicIssuanceModule.sol\":3969:3981  transferFrom */\n      tag_113\n        /* \"contracts/modules/BasicIssuanceModule.sol\":3969:4138  transferFrom(... */\n      jump\t// in\n    tag_110:\n        /* \"contracts/modules/BasicIssuanceModule.sol\":3896:3899  i++ */\n      0x01\n      add\n        /* \"contracts/modules/BasicIssuanceModule.sol\":3853:4149  for (uint256 i = 0; i < components.length; i++) {... */\n      jump(tag_107)\n    tag_108:\n      pop\n        /* \"contracts/modules/BasicIssuanceModule.sol\":4188:4218  _setToken.mint(_to, _quantity) */\n      mload(0x40)\n      shl(0xe0, 0x40c10f19)\n      dup2\n      mstore\n      sub(shl(0xa0, 0x01), 0x01)\n        /* \"contracts/modules/BasicIssuanceModule.sol\":4188:4202  _setToken.mint */\n      dup9\n      and\n      swap1\n      0x40c10f19\n      swap1\n        /* \"contracts/modules/BasicIssuanceModule.sol\":4188:4218  _setToken.mint(_to, _quantity) */\n      tag_114\n      swap1\n        /* \"contracts/modules/BasicIssuanceModule.sol\":4203:4206  _to */\n      dup9\n      swap1\n        /* \"contracts/modules/BasicIssuanceModule.sol\":4208:4217  _quantity */\n      dup11\n      swap1\n        /* \"contracts/modules/BasicIssuanceModule.sol\":4188:4218  _setToken.mint(_to, _quantity) */\n      0x04\n      add\n      jump(tag_62)\n    tag_114:\n      0x00\n      mload(0x40)\n      dup1\n      dup4\n      sub\n      dup2\n      0x00\n      dup8\n      dup1\n      extcodesize\n      iszero\n      dup1\n      iszero\n      tag_116\n      jumpi\n      0x00\n      dup1\n      revert\n    tag_116:\n      pop\n      gas\n      call\n      iszero\n      dup1\n      iszero\n      tag_118\n      jumpi\n      returndatasize\n      0x00\n      dup1\n      returndatacopy\n      revert(0x00, returndatasize)\n    tag_118:\n      pop\n      pop\n      pop\n      pop\n        /* \"contracts/modules/BasicIssuanceModule.sol\":4281:4284  _to */\n      dup5\n      sub(shl(0xa0, 0x01), 0x01)\n        /* \"contracts/modules/BasicIssuanceModule.sol\":4234:4310  SetTokenIssued(address(_setToken), msg.sender, _to, hookContract, _quantity) */\n      and\n        /* \"contracts/modules/BasicIssuanceModule.sol\":4269:4279  msg.sender */\n      caller\n      sub(shl(0xa0, 0x01), 0x01)\n        /* \"contracts/modules/BasicIssuanceModule.sol\":4234:4310  SetTokenIssued(address(_setToken), msg.sender, _to, hookContract, _quantity) */\n      and\n        /* \"contracts/modules/BasicIssuanceModule.sol\":4257:4266  _setToken */\n      dup9\n      sub(shl(0xa0, 0x01), 0x01)\n        /* \"contracts/modules/BasicIssuanceModule.sol\":4234:4310  SetTokenIssued(address(_setToken), msg.sender, _to, hookContract, _quantity) */\n      and\n      0xc07f1e2fe31c4d90eae81f76d263d7995aac043a99d6ee6de9c0506047f541c2\n        /* \"contracts/modules/BasicIssuanceModule.sol\":4286:4298  hookContract */\n      dup7\n        /* \"contracts/modules/BasicIssuanceModule.sol\":4300:4309  _quantity */\n      dup11\n        /* \"contracts/modules/BasicIssuanceModule.sol\":4234:4310  SetTokenIssued(address(_setToken), msg.sender, _to, hookContract, _quantity) */\n      mload(0x40)\n      tag_119\n      swap3\n      swap2\n      swap1\n      jump(tag_62)\n    tag_119:\n      mload(0x40)\n      dup1\n      swap2\n      sub\n      swap1\n      log4\n      pop\n      pop\n        /* \"@openzeppelin/contracts/utils/ReentrancyGuard.sol\":1645:1646  1 */\n      0x01\n        /* \"@openzeppelin/contracts/utils/ReentrancyGuard.sol\":2580:2602  _status = _NOT_ENTERED */\n      dup1\n      sstore\n      pop\n      pop\n      pop\n      pop\n      pop\n        /* \"contracts/modules/BasicIssuanceModule.sol\":3254:4317  function issue(... */\n      jump\t// out\n        /* \"contracts/modules/BasicIssuanceModule.sol\":7545:8274  function getRequiredComponentUnitsForIssue(... */\n    tag_25:\n        /* \"contracts/modules/BasicIssuanceModule.sol\":7741:7757  address[] memory */\n      0x60\n        /* \"contracts/modules/BasicIssuanceModule.sol\":7759:7775  uint256[] memory */\n      dup1\n        /* \"contracts/modules/BasicIssuanceModule.sol\":7713:7722  _setToken */\n      dup4\n        /* \"contracts/lib/ModuleBase.sol\":2574:2620  _validateOnlyValidAndInitializedSet(_setToken) */\n      tag_121\n        /* \"contracts/lib/ModuleBase.sol\":2610:2619  _setToken */\n      dup2\n        /* \"contracts/lib/ModuleBase.sol\":2574:2609  _validateOnlyValidAndInitializedSet */\n      tag_56\n        /* \"contracts/lib/ModuleBase.sol\":2574:2620  _validateOnlyValidAndInitializedSet(_setToken) */\n      jump\t// in\n    tag_121:\n        /* \"contracts/modules/BasicIssuanceModule.sol\":7791:7818  address[] memory components */\n      0x60\n        /* \"contracts/modules/BasicIssuanceModule.sol\":7821:7830  _setToken */\n      dup6\n      sub(shl(0xa0, 0x01), 0x01)\n        /* \"contracts/modules/BasicIssuanceModule.sol\":7821:7844  _setToken.getComponents */\n      and\n      0x99d50d5d\n        /* \"contracts/modules/BasicIssuanceModule.sol\":7821:7846  _setToken.getComponents() */\n      mload(0x40)\n      dup2\n      0xffffffff\n      and\n      0xe0\n      shl\n      dup2\n      mstore\n      0x04\n      add\n      0x00\n      mload(0x40)\n      dup1\n      dup4\n      sub\n      dup2\n      dup7\n      dup1\n      extcodesize\n      iszero\n      dup1\n      iszero\n      tag_123\n      jumpi\n      0x00\n      dup1\n      revert\n    tag_123:\n      pop\n      gas\n      staticcall\n      iszero\n      dup1\n      iszero\n      tag_125\n      jumpi\n      returndatasize\n      0x00\n      dup1\n      returndatacopy\n      revert(0x00, returndatasize)\n    tag_125:\n      pop\n      pop\n      pop\n      pop\n      mload(0x40)\n      returndatasize\n      0x00\n      dup3\n      returndatacopy\n      0x1f\n      returndatasize\n      swap1\n      dup2\n      add\n      not(0x1f)\n      and\n      dup3\n      add\n      0x40\n      mstore\n      tag_126\n      swap2\n      swap1\n      dup2\n      add\n      swap1\n      jump(tag_70)\n    tag_126:\n        /* \"contracts/modules/BasicIssuanceModule.sol\":7791:7846  address[] memory components = _setToken.getComponents() */\n      swap1\n      pop\n        /* \"contracts/modules/BasicIssuanceModule.sol\":7857:7887  uint256[] memory notionalUnits */\n      0x60\n        /* \"contracts/modules/BasicIssuanceModule.sol\":7904:7914  components */\n      dup2\n        /* \"contracts/modules/BasicIssuanceModule.sol\":7904:7921  components.length */\n      mload\n        /* \"contracts/modules/BasicIssuanceModule.sol\":7890:7922  new uint256[](components.length) */\n      0xffffffffffffffff\n      dup2\n      gt\n      dup1\n      iszero\n      tag_127\n      jumpi\n      0x00\n      dup1\n      revert\n    tag_127:\n      pop\n      mload(0x40)\n      swap1\n      dup1\n      dup3\n      mstore\n      dup1\n      0x20\n      mul\n      0x20\n      add\n      dup3\n      add\n      0x40\n      mstore\n      dup1\n      iszero\n      tag_128\n      jumpi\n      dup2\n      0x20\n      add\n      0x20\n      dup3\n      mul\n      dup1\n      calldatasize\n      dup4\n      calldatacopy\n      add\n      swap1\n      pop\n    tag_128:\n      pop\n        /* \"contracts/modules/BasicIssuanceModule.sol\":7857:7922  uint256[] memory notionalUnits = new uint256[](components.length) */\n      swap1\n      pop\n        /* \"contracts/modules/BasicIssuanceModule.sol\":7938:7947  uint256 i */\n      0x00\n        /* \"contracts/modules/BasicIssuanceModule.sol\":7933:8223  for (uint256 i = 0; i < components.length; i++) {... */\n    tag_129:\n        /* \"contracts/modules/BasicIssuanceModule.sol\":7957:7967  components */\n      dup3\n        /* \"contracts/modules/BasicIssuanceModule.sol\":7957:7974  components.length */\n      mload\n        /* \"contracts/modules/BasicIssuanceModule.sol\":7953:7954  i */\n      dup2\n        /* \"contracts/modules/BasicIssuanceModule.sol\":7953:7974  i < components.length */\n      lt\n        /* \"contracts/modules/BasicIssuanceModule.sol\":7933:8223  for (uint256 i = 0; i < components.length; i++) {... */\n      iszero\n      tag_130\n      jumpi\n        /* \"contracts/modules/BasicIssuanceModule.sol\":8004:8048  _setToken.hasExternalPosition(components[i]) */\n      tag_132\n        /* \"contracts/modules/BasicIssuanceModule.sol\":8034:8044  components */\n      dup4\n        /* \"contracts/modules/BasicIssuanceModule.sol\":8045:8046  i */\n      dup3\n        /* \"contracts/modules/BasicIssuanceModule.sol\":8034:8047  components[i] */\n      dup2\n      mload\n      dup2\n      lt\n      tag_133\n      jumpi\n      invalid\n    tag_133:\n      0x20\n      mul\n      0x20\n      add\n      add\n      mload\n        /* \"contracts/modules/BasicIssuanceModule.sol\":8004:8013  _setToken */\n      dup10\n      sub(shl(0xa0, 0x01), 0x01)\n        /* \"contracts/modules/BasicIssuanceModule.sol\":8004:8033  _setToken.hasExternalPosition */\n      and\n      tag_76\n      swap1\n        /* \"contracts/modules/BasicIssuanceModule.sol\":8004:8048  _setToken.hasExternalPosition(components[i]) */\n      swap2\n      swap1\n      0xffffffff\n      and\n      jump\t// in\n    tag_132:\n        /* \"contracts/modules/BasicIssuanceModule.sol\":8003:8048  !_setToken.hasExternalPosition(components[i]) */\n      iszero\n        /* \"contracts/modules/BasicIssuanceModule.sol\":7995:8089  require(!_setToken.hasExternalPosition(components[i]), \"Only default positions are supported\") */\n      tag_134\n      jumpi\n      mload(0x40)\n      shl(0xe5, 0x461bcd)\n      dup2\n      mstore\n      0x04\n      add\n      tag_52\n      swap1\n      jump(tag_79)\n    tag_134:\n        /* \"contracts/modules/BasicIssuanceModule.sol\":8123:8212  _setToken.getDefaultPositionRealUnit(components[i]).toUint256().preciseMulCeil(_quantity) */\n      tag_136\n        /* \"contracts/modules/BasicIssuanceModule.sol\":8202:8211  _quantity */\n      dup8\n        /* \"contracts/modules/BasicIssuanceModule.sol\":8123:8186  _setToken.getDefaultPositionRealUnit(components[i]).toUint256() */\n      tag_137\n        /* \"contracts/modules/BasicIssuanceModule.sol\":8123:8132  _setToken */\n      dup11\n      sub(shl(0xa0, 0x01), 0x01)\n        /* \"contracts/modules/BasicIssuanceModule.sol\":8123:8159  _setToken.getDefaultPositionRealUnit */\n      and\n      0x66cb8d2f\n        /* \"contracts/modules/BasicIssuanceModule.sol\":8160:8170  components */\n      dup8\n        /* \"contracts/modules/BasicIssuanceModule.sol\":8171:8172  i */\n      dup7\n        /* \"contracts/modules/BasicIssuanceModule.sol\":8160:8173  components[i] */\n      dup2\n      mload\n      dup2\n      lt\n      tag_138\n      jumpi\n      invalid\n    tag_138:\n      0x20\n      mul\n      0x20\n      add\n      add\n      mload\n        /* \"contracts/modules/BasicIssuanceModule.sol\":8123:8174  _setToken.getDefaultPositionRealUnit(components[i]) */\n      mload(0x40)\n      dup3\n      0xffffffff\n      and\n      0xe0\n      shl\n      dup2\n      mstore\n      0x04\n      add\n      tag_81\n      swap2\n      swap1\n      jump(tag_82)\n        /* \"contracts/modules/BasicIssuanceModule.sol\":8123:8186  _setToken.getDefaultPositionRealUnit(components[i]).toUint256() */\n    tag_137:\n        /* \"contracts/modules/BasicIssuanceModule.sol\":8123:8201  _setToken.getDefaultPositionRealUnit(components[i]).toUint256().preciseMulCeil */\n      swap1\n        /* \"contracts/modules/BasicIssuanceModule.sol\":8123:8212  _setToken.getDefaultPositionRealUnit(components[i]).toUint256().preciseMulCeil(_quantity) */\n      0xffffffff\n        /* \"contracts/modules/BasicIssuanceModule.sol\":8123:8201  _setToken.getDefaultPositionRealUnit(components[i]).toUint256().preciseMulCeil */\n      tag_144\n        /* \"contracts/modules/BasicIssuanceModule.sol\":8123:8212  _setToken.getDefaultPositionRealUnit(components[i]).toUint256().preciseMulCeil(_quantity) */\n      and\n      jump\t// in\n    tag_136:\n        /* \"contracts/modules/BasicIssuanceModule.sol\":8104:8117  notionalUnits */\n      dup3\n        /* \"contracts/modules/BasicIssuanceModule.sol\":8118:8119  i */\n      dup3\n        /* \"contracts/modules/BasicIssuanceModule.sol\":8104:8120  notionalUnits[i] */\n      dup2\n      mload\n      dup2\n      lt\n      tag_145\n      jumpi\n      invalid\n    tag_145:\n      0x20\n      swap1\n      dup2\n      mul\n      swap2\n      swap1\n      swap2\n      add\n      add\n        /* \"contracts/modules/BasicIssuanceModule.sol\":8104:8212  notionalUnits[i] = _setToken.getDefaultPositionRealUnit(components[i]).toUint256().preciseMulCeil(_quantity) */\n      mstore\n        /* \"contracts/modules/BasicIssuanceModule.sol\":7976:7979  i++ */\n      0x01\n      add\n        /* \"contracts/modules/BasicIssuanceModule.sol\":7933:8223  for (uint256 i = 0; i < components.length; i++) {... */\n      jump(tag_129)\n    tag_130:\n      pop\n        /* \"contracts/modules/BasicIssuanceModule.sol\":8241:8251  components */\n      swap1\n      swap7\n      swap1\n      swap6\n      pop\n        /* \"contracts/modules/BasicIssuanceModule.sol\":7545:8274  function getRequiredComponentUnitsForIssue(... */\n      swap4\n      pop\n      pop\n      pop\n      pop\n      jump\t// out\n        /* \"contracts/modules/BasicIssuanceModule.sol\":6939:7056  function removeModule() external override {... */\n    tag_29:\n        /* \"contracts/modules/BasicIssuanceModule.sol\":6991:7049  revert(\"The BasicIssuanceModule module cannot be removed\") */\n      mload(0x40)\n      shl(0xe5, 0x461bcd)\n      dup2\n      mstore\n      0x04\n      add\n      tag_52\n      swap1\n      jump(tag_148)\n        /* \"contracts/modules/BasicIssuanceModule.sol\":2419:2488  mapping(ISetToken => IManagerIssuanceHook) public managerIssuanceHook */\n    tag_33:\n      mstore(0x20, 0x02)\n      0x00\n      swap1\n      dup2\n      mstore\n      0x40\n      swap1\n      keccak256\n      sload\n      sub(shl(0xa0, 0x01), 0x01)\n      and\n      dup2\n      jump\t// out\n        /* \"contracts/lib/ModuleBase.sol\":2156:2185  IController public controller */\n    tag_37:\n      and(sub(shl(0xa0, 0x01), 0x01), sload(0x00))\n      dup2\n      jump\t// out\n        /* \"contracts/lib/ModuleBase.sol\":7093:7268  function _validateOnlySetManager(ISetToken _setToken, address _caller) internal view {... */\n    tag_42:\n        /* \"contracts/lib/ModuleBase.sol\":7196:7228  isSetManager(_setToken, _caller) */\n      tag_150\n        /* \"contracts/lib/ModuleBase.sol\":7209:7218  _setToken */\n      dup3\n        /* \"contracts/lib/ModuleBase.sol\":7220:7227  _caller */\n      dup3\n        /* \"contracts/lib/ModuleBase.sol\":7196:7208  isSetManager */\n      tag_151\n        /* \"contracts/lib/ModuleBase.sol\":7196:7228  isSetManager(_setToken, _caller) */\n      jump\t// in\n    tag_150:\n        /* \"contracts/lib/ModuleBase.sol\":7188:7261  require(isSetManager(_setToken, _caller), \"Must be the SetToken manager\") */\n      tag_152\n      jumpi\n      mload(0x40)\n      shl(0xe5, 0x461bcd)\n      dup2\n      mstore\n      0x04\n      add\n      tag_52\n      swap1\n      jump(tag_154)\n    tag_152:\n        /* \"contracts/lib/ModuleBase.sol\":7093:7268  function _validateOnlySetManager(ISetToken _setToken, address _caller) internal view {... */\n      pop\n      pop\n      jump\t// out\n        /* \"contracts/lib/ModuleBase.sol\":8078:8345  function _validateOnlyValidAndPendingSet(ISetToken _setToken) internal view {... */\n    tag_45:\n        /* \"contracts/lib/ModuleBase.sol\":8172:8182  controller */\n      sload(0x00)\n        /* \"contracts/lib/ModuleBase.sol\":8172:8208  controller.isSet(address(_setToken)) */\n      mload(0x40)\n      shl(0xe2, 0x1d3af8fb)\n      dup2\n      mstore\n      sub(shl(0xa0, 0x01), 0x01)\n        /* \"contracts/lib/ModuleBase.sol\":8172:8182  controller */\n      swap1\n      swap2\n      and\n      swap1\n        /* \"contracts/lib/ModuleBase.sol\":8172:8188  controller.isSet */\n      0x74ebe3ec\n      swap1\n        /* \"contracts/lib/ModuleBase.sol\":8172:8208  controller.isSet(address(_setToken)) */\n      tag_156\n      swap1\n        /* \"contracts/lib/ModuleBase.sol\":8197:8206  _setToken */\n      dup5\n      swap1\n        /* \"contracts/lib/ModuleBase.sol\":8172:8208  controller.isSet(address(_setToken)) */\n      0x04\n      add\n      jump(tag_82)\n    tag_156:\n      0x20\n      mload(0x40)\n      dup1\n      dup4\n      sub\n      dup2\n      dup7\n      dup1\n      extcodesize\n      iszero\n      dup1\n      iszero\n      tag_157\n      jumpi\n      0x00\n      dup1\n      revert\n    tag_157:\n      pop\n      gas\n      staticcall\n      iszero\n      dup1\n      iszero\n      tag_159\n      jumpi\n      returndatasize\n      0x00\n      dup1\n      returndatacopy\n      revert(0x00, returndatasize)\n    tag_159:\n      pop\n      pop\n      pop\n      pop\n      mload(0x40)\n      returndatasize\n      not(0x1f)\n      0x1f\n      dup3\n      add\n      and\n      dup3\n      add\n      dup1\n      0x40\n      mstore\n      pop\n      dup2\n      add\n      swap1\n      tag_160\n      swap2\n      swap1\n      jump(tag_161)\n    tag_160:\n        /* \"contracts/lib/ModuleBase.sol\":8164:8248  require(controller.isSet(address(_setToken)), \"Must be controller-enabled SetToken\") */\n      tag_162\n      jumpi\n      mload(0x40)\n      shl(0xe5, 0x461bcd)\n      dup2\n      mstore\n      0x04\n      add\n      tag_52\n      swap1\n      jump(tag_164)\n    tag_162:\n        /* \"contracts/lib/ModuleBase.sol\":8266:8303  isSetPendingInitialization(_setToken) */\n      tag_165\n        /* \"contracts/lib/ModuleBase.sol\":8293:8302  _setToken */\n      dup2\n        /* \"contracts/lib/ModuleBase.sol\":8266:8292  isSetPendingInitialization */\n      tag_166\n        /* \"contracts/lib/ModuleBase.sol\":8266:8303  isSetPendingInitialization(_setToken) */\n      jump\t// in\n    tag_165:\n        /* \"contracts/lib/ModuleBase.sol\":8258:8338  require(isSetPendingInitialization(_setToken), \"Must be pending initialization\") */\n      tag_167\n      jumpi\n      mload(0x40)\n      shl(0xe5, 0x461bcd)\n      dup2\n      mstore\n      0x04\n      add\n      tag_52\n      swap1\n      jump(tag_169)\n    tag_167:\n        /* \"contracts/lib/ModuleBase.sol\":8078:8345  function _validateOnlyValidAndPendingSet(ISetToken _setToken) internal view {... */\n      pop\n      jump\t// out\n        /* \"contracts/lib/ModuleBase.sol\":7336:7521  function _validateOnlyValidAndInitializedSet(ISetToken _setToken) internal view {... */\n    tag_56:\n        /* \"contracts/lib/ModuleBase.sol\":7434:7469  isSetValidAndInitialized(_setToken) */\n      tag_171\n        /* \"contracts/lib/ModuleBase.sol\":7459:7468  _setToken */\n      dup2\n        /* \"contracts/lib/ModuleBase.sol\":7434:7458  isSetValidAndInitialized */\n      tag_172\n        /* \"contracts/lib/ModuleBase.sol\":7434:7469  isSetValidAndInitialized(_setToken) */\n      jump\t// in\n    tag_171:\n        /* \"contracts/lib/ModuleBase.sol\":7426:7514  require(isSetValidAndInitialized(_setToken), \"Must be a valid and initialized SetToken\") */\n      tag_167\n      jumpi\n      mload(0x40)\n      shl(0xe5, 0x461bcd)\n      dup2\n      mstore\n      0x04\n      add\n      tag_52\n      swap1\n      jump(tag_175)\n        /* \"contracts/lib/Position.sol\":2048:2229  function hasExternalPosition(ISetToken _setToken, address _component) internal view returns(bool) {... */\n    tag_76:\n        /* \"contracts/lib/Position.sol\":2140:2144  bool */\n      0x00\n        /* \"contracts/lib/Position.sol\":2221:2222  0 */\n      dup1\n        /* \"contracts/lib/Position.sol\":2163:2172  _setToken */\n      dup4\n      sub(shl(0xa0, 0x01), 0x01)\n        /* \"contracts/lib/Position.sol\":2163:2199  _setToken.getExternalPositionModules */\n      and\n      0xa7bdad03\n        /* \"contracts/lib/Position.sol\":2200:2210  _component */\n      dup5\n        /* \"contracts/lib/Position.sol\":2163:2211  _setToken.getExternalPositionModules(_component) */\n      mload(0x40)\n      dup3\n      0xffffffff\n      and\n      0xe0\n      shl\n      dup2\n      mstore\n      0x04\n      add\n      tag_177\n      swap2\n      swap1\n      jump(tag_82)\n    tag_177:\n      0x00\n      mload(0x40)\n      dup1\n      dup4\n      sub\n      dup2\n      dup7\n      dup1\n      extcodesize\n      iszero\n      dup1\n      iszero\n      tag_178\n      jumpi\n      0x00\n      dup1\n      revert\n    tag_178:\n      pop\n      gas\n      staticcall\n      iszero\n      dup1\n      iszero\n      tag_180\n      jumpi\n      returndatasize\n      0x00\n      dup1\n      returndatacopy\n      revert(0x00, returndatasize)\n    tag_180:\n      pop\n      pop\n      pop\n      pop\n      mload(0x40)\n      returndatasize\n      0x00\n      dup3\n      returndatacopy\n      0x1f\n      returndatasize\n      swap1\n      dup2\n      add\n      not(0x1f)\n      and\n      dup3\n      add\n      0x40\n      mstore\n      tag_181\n      swap2\n      swap1\n      dup2\n      add\n      swap1\n      jump(tag_70)\n    tag_181:\n        /* \"contracts/lib/Position.sol\":2163:2218  _setToken.getExternalPositionModules(_component).length */\n      mload\n        /* \"contracts/lib/Position.sol\":2163:2222  _setToken.getExternalPositionModules(_component).length > 0 */\n      gt\n        /* \"contracts/lib/Position.sol\":2156:2222  return _setToken.getExternalPositionModules(_component).length > 0 */\n      swap1\n      pop\n        /* \"contracts/lib/Position.sol\":2048:2229  function hasExternalPosition(ISetToken _setToken, address _component) internal view returns(bool) {... */\n    tag_176:\n      swap3\n      swap2\n      pop\n      pop\n      jump\t// out\n        /* \"@openzeppelin/contracts/utils/SafeCast.sol\":3282:3450  function toUint256(int256 value) internal pure returns (uint256) {... */\n    tag_88:\n        /* \"@openzeppelin/contracts/utils/SafeCast.sol\":3338:3345  uint256 */\n      0x00\n        /* \"@openzeppelin/contracts/utils/SafeCast.sol\":3374:3375  0 */\n      dup1\n        /* \"@openzeppelin/contracts/utils/SafeCast.sol\":3365:3370  value */\n      dup3\n        /* \"@openzeppelin/contracts/utils/SafeCast.sol\":3365:3375  value >= 0 */\n      slt\n      iszero\n        /* \"@openzeppelin/contracts/utils/SafeCast.sol\":3357:3412  require(value >= 0, \"SafeCast: value must be positive\") */\n      tag_183\n      jumpi\n      mload(0x40)\n      shl(0xe5, 0x461bcd)\n      dup2\n      mstore\n      0x04\n      add\n      tag_52\n      swap1\n      jump(tag_185)\n    tag_183:\n      pop\n        /* \"@openzeppelin/contracts/utils/SafeCast.sol\":3437:3442  value */\n      swap1\n        /* \"@openzeppelin/contracts/utils/SafeCast.sol\":3282:3450  function toUint256(int256 value) internal pure returns (uint256) {... */\n      jump\t// out\n        /* \"contracts/lib/PreciseUnitMath.sol\":3026:3150  function preciseMul(uint256 a, uint256 b) internal pure returns (uint256) {... */\n    tag_90:\n        /* \"contracts/lib/PreciseUnitMath.sol\":3091:3098  uint256 */\n      0x00\n        /* \"contracts/lib/PreciseUnitMath.sol\":3117:3143  a.mul(b).div(PRECISE_UNIT) */\n      tag_187\n        /* \"contracts/lib/PreciseUnitMath.sol\":1535:1543  10 ** 18 */\n      0x0de0b6b3a7640000\n        /* \"contracts/lib/PreciseUnitMath.sol\":3117:3125  a.mul(b) */\n      tag_188\n        /* \"contracts/lib/PreciseUnitMath.sol\":3117:3118  a */\n      dup6\n        /* \"contracts/lib/PreciseUnitMath.sol\":3123:3124  b */\n      dup6\n        /* \"contracts/lib/PreciseUnitMath.sol\":3117:3125  a.mul(b) */\n      0xffffffff\n        /* \"contracts/lib/PreciseUnitMath.sol\":3117:3122  a.mul */\n      tag_189\n        /* \"contracts/lib/PreciseUnitMath.sol\":3117:3125  a.mul(b) */\n      and\n      jump\t// in\n    tag_188:\n        /* \"contracts/lib/PreciseUnitMath.sol\":3117:3129  a.mul(b).div */\n      swap1\n        /* \"contracts/lib/PreciseUnitMath.sol\":3117:3143  a.mul(b).div(PRECISE_UNIT) */\n      0xffffffff\n        /* \"contracts/lib/PreciseUnitMath.sol\":3117:3129  a.mul(b).div */\n      tag_190\n        /* \"contracts/lib/PreciseUnitMath.sol\":3117:3143  a.mul(b).div(PRECISE_UNIT) */\n      and\n      jump\t// in\n    tag_187:\n        /* \"contracts/lib/PreciseUnitMath.sol\":3110:3143  return a.mul(b).div(PRECISE_UNIT) */\n      swap4\n        /* \"contracts/lib/PreciseUnitMath.sol\":3026:3150  function preciseMul(uint256 a, uint256 b) internal pure returns (uint256) {... */\n      swap3\n      pop\n      pop\n      pop\n      jump\t// out\n        /* \"contracts/lib/Invoke.sol\":2913:3693  function strictInvokeTransfer(... */\n    tag_92:\n        /* \"contracts/lib/Invoke.sol\":3085:3098  _quantity > 0 */\n      dup1\n      iszero\n        /* \"contracts/lib/Invoke.sol\":3081:3687  if (_quantity > 0) {... */\n      tag_192\n      jumpi\n        /* \"contracts/lib/Invoke.sol\":3206:3250  IERC20(_token).balanceOf(address(_setToken)) */\n      mload(0x40)\n      shl(0xe0, 0x70a08231)\n      dup2\n      mstore\n        /* \"contracts/lib/Invoke.sol\":3180:3203  uint256 existingBalance */\n      0x00\n      swap1\n      sub(shl(0xa0, 0x01), 0x01)\n        /* \"contracts/lib/Invoke.sol\":3206:3230  IERC20(_token).balanceOf */\n      dup6\n      and\n      swap1\n      0x70a08231\n      swap1\n        /* \"contracts/lib/Invoke.sol\":3206:3250  IERC20(_token).balanceOf(address(_setToken)) */\n      tag_193\n      swap1\n        /* \"contracts/lib/Invoke.sol\":3239:3248  _setToken */\n      dup9\n      swap1\n        /* \"contracts/lib/Invoke.sol\":3206:3250  IERC20(_token).balanceOf(address(_setToken)) */\n      0x04\n      add\n      jump(tag_82)\n    tag_193:\n      0x20\n      mload(0x40)\n      dup1\n      dup4\n      sub\n      dup2\n      dup7\n      dup1\n      extcodesize\n      iszero\n      dup1\n      iszero\n      tag_194\n      jumpi\n      0x00\n      dup1\n      revert\n    tag_194:\n      pop\n      gas\n      staticcall\n      iszero\n      dup1\n      iszero\n      tag_196\n      jumpi\n      returndatasize\n      0x00\n      dup1\n      returndatacopy\n      revert(0x00, returndatasize)\n    tag_196:\n      pop\n      pop\n      pop\n      pop\n      mload(0x40)\n      returndatasize\n      not(0x1f)\n      0x1f\n      dup3\n      add\n      and\n      dup3\n      add\n      dup1\n      0x40\n      mstore\n      pop\n      dup2\n      add\n      swap1\n      tag_197\n      swap2\n      swap1\n      jump(tag_87)\n    tag_197:\n        /* \"contracts/lib/Invoke.sol\":3180:3250  uint256 existingBalance = IERC20(_token).balanceOf(address(_setToken)) */\n      swap1\n      pop\n        /* \"contracts/lib/Invoke.sol\":3265:3321  Invoke.invokeTransfer(_setToken, _token, _to, _quantity) */\n      tag_199\n        /* \"contracts/lib/Invoke.sol\":3287:3296  _setToken */\n      dup6\n        /* \"contracts/lib/Invoke.sol\":3298:3304  _token */\n      dup6\n        /* \"contracts/lib/Invoke.sol\":3306:3309  _to */\n      dup6\n        /* \"contracts/lib/Invoke.sol\":3311:3320  _quantity */\n      dup6\n        /* \"contracts/lib/Invoke.sol\":3265:3286  Invoke.invokeTransfer */\n      tag_200\n        /* \"contracts/lib/Invoke.sol\":3265:3321  Invoke.invokeTransfer(_setToken, _token, _to, _quantity) */\n      jump\t// in\n    tag_199:\n        /* \"contracts/lib/Invoke.sol\":3422:3466  IERC20(_token).balanceOf(address(_setToken)) */\n      mload(0x40)\n      shl(0xe0, 0x70a08231)\n      dup2\n      mstore\n        /* \"contracts/lib/Invoke.sol\":3401:3419  uint256 newBalance */\n      0x00\n      swap1\n      sub(shl(0xa0, 0x01), 0x01)\n        /* \"contracts/lib/Invoke.sol\":3422:3446  IERC20(_token).balanceOf */\n      dup7\n      and\n      swap1\n      0x70a08231\n      swap1\n        /* \"contracts/lib/Invoke.sol\":3422:3466  IERC20(_token).balanceOf(address(_setToken)) */\n      tag_201\n      swap1\n        /* \"contracts/lib/Invoke.sol\":3455:3464  _setToken */\n      dup10\n      swap1\n        /* \"contracts/lib/Invoke.sol\":3422:3466  IERC20(_token).balanceOf(address(_setToken)) */\n      0x04\n      add\n      jump(tag_82)\n    tag_201:\n      0x20\n      mload(0x40)\n      dup1\n      dup4\n      sub\n      dup2\n      dup7\n      dup1\n      extcodesize\n      iszero\n      dup1\n      iszero\n      tag_202\n      jumpi\n      0x00\n      dup1\n      revert\n    tag_202:\n      pop\n      gas\n      staticcall\n      iszero\n      dup1\n      iszero\n      tag_204\n      jumpi\n      returndatasize\n      0x00\n      dup1\n      returndatacopy\n      revert(0x00, returndatasize)\n    tag_204:\n      pop\n      pop\n      pop\n      pop\n      mload(0x40)\n      returndatasize\n      not(0x1f)\n      0x1f\n      dup3\n      add\n      and\n      dup3\n      add\n      dup1\n      0x40\n      mstore\n      pop\n      dup2\n      add\n      swap1\n      tag_205\n      swap2\n      swap1\n      jump(tag_87)\n    tag_205:\n        /* \"contracts/lib/Invoke.sol\":3401:3466  uint256 newBalance = IERC20(_token).balanceOf(address(_setToken)) */\n      swap1\n      pop\n        /* \"contracts/lib/Invoke.sol\":3583:3613  existingBalance.sub(_quantity) */\n      tag_206\n        /* \"contracts/lib/Invoke.sol\":3583:3598  existingBalance */\n      dup3\n        /* \"contracts/lib/Invoke.sol\":3603:3612  _quantity */\n      dup5\n        /* \"contracts/lib/Invoke.sol\":3583:3613  existingBalance.sub(_quantity) */\n      0xffffffff\n        /* \"contracts/lib/Invoke.sol\":3583:3602  existingBalance.sub */\n      tag_207\n        /* \"contracts/lib/Invoke.sol\":3583:3613  existingBalance.sub(_quantity) */\n      and\n      jump\t// in\n    tag_206:\n        /* \"contracts/lib/Invoke.sol\":3569:3579  newBalance */\n      dup2\n        /* \"contracts/lib/Invoke.sol\":3569:3613  newBalance == existingBalance.sub(_quantity) */\n      eq\n        /* \"contracts/lib/Invoke.sol\":3544:3676  require(... */\n      tag_208\n      jumpi\n      mload(0x40)\n      shl(0xe5, 0x461bcd)\n      dup2\n      mstore\n      0x04\n      add\n      tag_52\n      swap1\n      jump(tag_210)\n    tag_208:\n        /* \"contracts/lib/Invoke.sol\":3081:3687  if (_quantity > 0) {... */\n      pop\n      pop\n    tag_192:\n        /* \"contracts/lib/Invoke.sol\":2913:3693  function strictInvokeTransfer(... */\n      pop\n      pop\n      pop\n      pop\n      jump\t// out\n        /* \"contracts/modules/BasicIssuanceModule.sol\":8546:9023  function _callPreIssueHooks(... */\n    tag_105:\n      sub(shl(0xa0, 0x01), 0x01)\n        /* \"contracts/modules/BasicIssuanceModule.sol\":8774:8804  managerIssuanceHook[_setToken] */\n      dup1\n      dup6\n      and\n        /* \"contracts/modules/BasicIssuanceModule.sol\":8715:8722  address */\n      0x00\n        /* \"contracts/modules/BasicIssuanceModule.sol\":8774:8804  managerIssuanceHook[_setToken] */\n      swap1\n      dup2\n      mstore\n        /* \"contracts/modules/BasicIssuanceModule.sol\":8774:8793  managerIssuanceHook */\n      0x02\n        /* \"contracts/modules/BasicIssuanceModule.sol\":8774:8804  managerIssuanceHook[_setToken] */\n      0x20\n      mstore\n      0x40\n      dup2\n      keccak256\n      sload\n        /* \"contracts/modules/BasicIssuanceModule.sol\":8715:8722  address */\n      swap1\n      swap2\n        /* \"contracts/modules/BasicIssuanceModule.sol\":8774:8804  managerIssuanceHook[_setToken] */\n      and\n        /* \"contracts/modules/BasicIssuanceModule.sol\":8818:8853  address(preIssueHook) != address(0) */\n      dup1\n      iszero\n        /* \"contracts/modules/BasicIssuanceModule.sol\":8814:8989  if (address(preIssueHook) != address(0)) {... */\n      tag_212\n      jumpi\n        /* \"contracts/modules/BasicIssuanceModule.sol\":8869:8936  preIssueHook.invokePreIssueHook(_setToken, _quantity, _caller, _to) */\n      mload(0x40)\n      shl(0xe0, 0xa0458083)\n      dup2\n      mstore\n      sub(shl(0xa0, 0x01), 0x01)\n        /* \"contracts/modules/BasicIssuanceModule.sol\":8869:8900  preIssueHook.invokePreIssueHook */\n      dup3\n      and\n      swap1\n      0xa0458083\n      swap1\n        /* \"contracts/modules/BasicIssuanceModule.sol\":8869:8936  preIssueHook.invokePreIssueHook(_setToken, _quantity, _caller, _to) */\n      tag_213\n      swap1\n        /* \"contracts/modules/BasicIssuanceModule.sol\":8901:8910  _setToken */\n      dup10\n      swap1\n        /* \"contracts/modules/BasicIssuanceModule.sol\":8912:8921  _quantity */\n      dup10\n      swap1\n        /* \"contracts/modules/BasicIssuanceModule.sol\":8923:8930  _caller */\n      dup10\n      swap1\n        /* \"contracts/modules/BasicIssuanceModule.sol\":8932:8935  _to */\n      dup10\n      swap1\n        /* \"contracts/modules/BasicIssuanceModule.sol\":8869:8936  preIssueHook.invokePreIssueHook(_setToken, _quantity, _caller, _to) */\n      0x04\n      add\n      jump(tag_214)\n    tag_213:\n      0x00\n      mload(0x40)\n      dup1\n      dup4\n      sub\n      dup2\n      0x00\n      dup8\n      dup1\n      extcodesize\n      iszero\n      dup1\n      iszero\n      tag_215\n      jumpi\n      0x00\n      dup1\n      revert\n    tag_215:\n      pop\n      gas\n      call\n      iszero\n      dup1\n      iszero\n      tag_217\n      jumpi\n      returndatasize\n      0x00\n      dup1\n      returndatacopy\n      revert(0x00, returndatasize)\n    tag_217:\n      pop\n      pop\n      pop\n      pop\n        /* \"contracts/modules/BasicIssuanceModule.sol\":8965:8977  preIssueHook */\n      dup1\n        /* \"contracts/modules/BasicIssuanceModule.sol\":8950:8978  return address(preIssueHook) */\n      swap2\n      pop\n      pop\n      jump(tag_211)\n        /* \"contracts/modules/BasicIssuanceModule.sol\":8814:8989  if (address(preIssueHook) != address(0)) {... */\n    tag_212:\n        /* \"contracts/modules/BasicIssuanceModule.sol\":9014:9015  0 */\n      0x00\n        /* \"contracts/modules/BasicIssuanceModule.sol\":8999:9016  return address(0) */\n      swap2\n      pop\n      pop\n        /* \"contracts/modules/BasicIssuanceModule.sol\":8546:9023  function _callPreIssueHooks(... */\n    tag_211:\n      swap5\n      swap4\n      pop\n      pop\n      pop\n      pop\n      jump\t// out\n        /* \"contracts/lib/ModuleBase.sol\":3815:3982  function transferFrom(IERC20 _token, address _from, address _to, uint256 _quantity) internal {... */\n    tag_113:\n        /* \"contracts/lib/ModuleBase.sol\":3918:3975  ExplicitERC20.transferFrom(_token, _from, _to, _quantity) */\n      tag_192\n        /* \"contracts/lib/ModuleBase.sol\":3945:3951  _token */\n      dup5\n        /* \"contracts/lib/ModuleBase.sol\":3953:3958  _from */\n      dup5\n        /* \"contracts/lib/ModuleBase.sol\":3960:3963  _to */\n      dup5\n        /* \"contracts/lib/ModuleBase.sol\":3965:3974  _quantity */\n      dup5\n        /* \"contracts/lib/ModuleBase.sol\":3918:3944  ExplicitERC20.transferFrom */\n      tag_220\n        /* \"contracts/lib/ModuleBase.sol\":3918:3975  ExplicitERC20.transferFrom(_token, _from, _to, _quantity) */\n      jump\t// in\n        /* \"contracts/lib/PreciseUnitMath.sol\":3653:3859  function preciseMulCeil(uint256 a, uint256 b) internal pure returns (uint256) {... */\n    tag_144:\n        /* \"contracts/lib/PreciseUnitMath.sol\":3722:3729  uint256 */\n      0x00\n        /* \"contracts/lib/PreciseUnitMath.sol\":3745:3751  a == 0 */\n      dup3\n      iszero\n      dup1\n        /* \"contracts/lib/PreciseUnitMath.sol\":3745:3761  a == 0 || b == 0 */\n      tag_222\n      jumpi\n      pop\n        /* \"contracts/lib/PreciseUnitMath.sol\":3755:3761  b == 0 */\n      dup2\n      iszero\n        /* \"contracts/lib/PreciseUnitMath.sol\":3745:3761  a == 0 || b == 0 */\n    tag_222:\n        /* \"contracts/lib/PreciseUnitMath.sol\":3741:3796  if (a == 0 || b == 0) {... */\n      iszero\n      tag_223\n      jumpi\n      pop\n        /* \"contracts/lib/PreciseUnitMath.sol\":3784:3785  0 */\n      0x00\n        /* \"contracts/lib/PreciseUnitMath.sol\":3777:3785  return 0 */\n      jump(tag_176)\n        /* \"contracts/lib/PreciseUnitMath.sol\":3741:3796  if (a == 0 || b == 0) {... */\n    tag_223:\n        /* \"contracts/lib/PreciseUnitMath.sol\":3812:3852  a.mul(b).sub(1).div(PRECISE_UNIT).add(1) */\n      tag_187\n        /* \"contracts/lib/PreciseUnitMath.sol\":3850:3851  1 */\n      0x01\n        /* \"contracts/lib/PreciseUnitMath.sol\":3812:3845  a.mul(b).sub(1).div(PRECISE_UNIT) */\n      tag_225\n        /* \"contracts/lib/PreciseUnitMath.sol\":1535:1543  10 ** 18 */\n      0x0de0b6b3a7640000\n        /* \"contracts/lib/PreciseUnitMath.sol\":3812:3827  a.mul(b).sub(1) */\n      tag_188\n        /* \"contracts/lib/PreciseUnitMath.sol\":3850:3851  1 */\n      dup4\n        /* \"contracts/lib/PreciseUnitMath.sol\":3812:3820  a.mul(b) */\n      tag_227\n        /* \"contracts/lib/PreciseUnitMath.sol\":3812:3813  a */\n      dup10\n        /* \"contracts/lib/PreciseUnitMath.sol\":3818:3819  b */\n      dup10\n        /* \"contracts/lib/PreciseUnitMath.sol\":3812:3820  a.mul(b) */\n      0xffffffff\n        /* \"contracts/lib/PreciseUnitMath.sol\":3812:3817  a.mul */\n      tag_189\n        /* \"contracts/lib/PreciseUnitMath.sol\":3812:3820  a.mul(b) */\n      and\n      jump\t// in\n    tag_227:\n        /* \"contracts/lib/PreciseUnitMath.sol\":3812:3824  a.mul(b).sub */\n      swap1\n        /* \"contracts/lib/PreciseUnitMath.sol\":3812:3827  a.mul(b).sub(1) */\n      0xffffffff\n        /* \"contracts/lib/PreciseUnitMath.sol\":3812:3824  a.mul(b).sub */\n      tag_207\n        /* \"contracts/lib/PreciseUnitMath.sol\":3812:3827  a.mul(b).sub(1) */\n      and\n      jump\t// in\n        /* \"contracts/lib/PreciseUnitMath.sol\":3812:3845  a.mul(b).sub(1).div(PRECISE_UNIT) */\n    tag_225:\n        /* \"contracts/lib/PreciseUnitMath.sol\":3812:3849  a.mul(b).sub(1).div(PRECISE_UNIT).add */\n      swap1\n        /* \"contracts/lib/PreciseUnitMath.sol\":3812:3852  a.mul(b).sub(1).div(PRECISE_UNIT).add(1) */\n      0xffffffff\n        /* \"contracts/lib/PreciseUnitMath.sol\":3812:3849  a.mul(b).sub(1).div(PRECISE_UNIT).add */\n      tag_228\n        /* \"contracts/lib/PreciseUnitMath.sol\":3812:3852  a.mul(b).sub(1).div(PRECISE_UNIT).add(1) */\n      and\n      jump\t// in\n        /* \"contracts/lib/ModuleBase.sol\":5871:6015  function isSetManager(ISetToken _setToken, address _toCheck) internal view returns(bool) {... */\n    tag_151:\n        /* \"contracts/lib/ModuleBase.sol\":5954:5958  bool */\n      0x00\n        /* \"contracts/lib/ModuleBase.sol\":6000:6008  _toCheck */\n      dup2\n      sub(shl(0xa0, 0x01), 0x01)\n        /* \"contracts/lib/ModuleBase.sol\":5977:6008  _setToken.manager() == _toCheck */\n      and\n        /* \"contracts/lib/ModuleBase.sol\":5977:5986  _setToken */\n      dup4\n      sub(shl(0xa0, 0x01), 0x01)\n        /* \"contracts/lib/ModuleBase.sol\":5977:5994  _setToken.manager */\n      and\n      0x481c6a75\n        /* \"contracts/lib/ModuleBase.sol\":5977:5996  _setToken.manager() */\n      mload(0x40)\n      dup2\n      0xffffffff\n      and\n      0xe0\n      shl\n      dup2\n      mstore\n      0x04\n      add\n      0x20\n      mload(0x40)\n      dup1\n      dup4\n      sub\n      dup2\n      dup7\n      dup1\n      extcodesize\n      iszero\n      dup1\n      iszero\n      tag_230\n      jumpi\n      0x00\n      dup1\n      revert\n    tag_230:\n      pop\n      gas\n      staticcall\n      iszero\n      dup1\n      iszero\n      tag_232\n      jumpi\n      returndatasize\n      0x00\n      dup1\n      returndatacopy\n      revert(0x00, returndatasize)\n    tag_232:\n      pop\n      pop\n      pop\n      pop\n      mload(0x40)\n      returndatasize\n      not(0x1f)\n      0x1f\n      dup3\n      add\n      and\n      dup3\n      add\n      dup1\n      0x40\n      mstore\n      pop\n      dup2\n      add\n      swap1\n      tag_233\n      swap2\n      swap1\n      jump(tag_234)\n    tag_233:\n      sub(shl(0xa0, 0x01), 0x01)\n        /* \"contracts/lib/ModuleBase.sol\":5977:6008  _setToken.manager() == _toCheck */\n      and\n      eq\n      swap4\n        /* \"contracts/lib/ModuleBase.sol\":5871:6015  function isSetManager(ISetToken _setToken, address _toCheck) internal view returns(bool) {... */\n      swap3\n      pop\n      pop\n      pop\n      jump\t// out\n        /* \"contracts/lib/ModuleBase.sol\":5639:5788  function isSetPendingInitialization(ISetToken _setToken) internal view returns(bool) {... */\n    tag_166:\n        /* \"contracts/lib/ModuleBase.sol\":5741:5781  _setToken.isPendingModule(address(this)) */\n      mload(0x40)\n      shl(0xe0, 0x53bae5f7)\n      dup2\n      mstore\n        /* \"contracts/lib/ModuleBase.sol\":5718:5722  bool */\n      0x00\n      swap1\n      sub(shl(0xa0, 0x01), 0x01)\n        /* \"contracts/lib/ModuleBase.sol\":5741:5766  _setToken.isPendingModule */\n      dup4\n      and\n      swap1\n      0x53bae5f7\n      swap1\n        /* \"contracts/lib/ModuleBase.sol\":5741:5781  _setToken.isPendingModule(address(this)) */\n      tag_236\n      swap1\n        /* \"contracts/lib/ModuleBase.sol\":5775:5779  this */\n      address\n      swap1\n        /* \"contracts/lib/ModuleBase.sol\":5741:5781  _setToken.isPendingModule(address(this)) */\n      0x04\n      add\n      jump(tag_82)\n    tag_236:\n      0x20\n      mload(0x40)\n      dup1\n      dup4\n      sub\n      dup2\n      dup7\n      dup1\n      extcodesize\n      iszero\n      dup1\n      iszero\n      tag_237\n      jumpi\n      0x00\n      dup1\n      revert\n    tag_237:\n      pop\n      gas\n      staticcall\n      iszero\n      dup1\n      iszero\n      tag_239\n      jumpi\n      returndatasize\n      0x00\n      dup1\n      returndatacopy\n      revert(0x00, returndatasize)\n    tag_239:\n      pop\n      pop\n      pop\n      pop\n      mload(0x40)\n      returndatasize\n      not(0x1f)\n      0x1f\n      dup3\n      add\n      and\n      dup3\n      add\n      dup1\n      0x40\n      mstore\n      pop\n      dup2\n      add\n      swap1\n      tag_176\n      swap2\n      swap1\n      jump(tag_161)\n        /* \"contracts/lib/ModuleBase.sol\":6152:6355  function isSetValidAndInitialized(ISetToken _setToken) internal view returns(bool) {... */\n    tag_172:\n        /* \"contracts/lib/ModuleBase.sol\":6229:6233  bool */\n      0x00\n        /* \"contracts/lib/ModuleBase.sol\":6252:6262  controller */\n      dup1\n      sload\n        /* \"contracts/lib/ModuleBase.sol\":6252:6288  controller.isSet(address(_setToken)) */\n      mload(0x40)\n      shl(0xe2, 0x1d3af8fb)\n      dup2\n      mstore\n      sub(shl(0xa0, 0x01), 0x01)\n        /* \"contracts/lib/ModuleBase.sol\":6252:6262  controller */\n      swap1\n      swap2\n      and\n      swap1\n        /* \"contracts/lib/ModuleBase.sol\":6252:6268  controller.isSet */\n      0x74ebe3ec\n      swap1\n        /* \"contracts/lib/ModuleBase.sol\":6252:6288  controller.isSet(address(_setToken)) */\n      tag_242\n      swap1\n        /* \"contracts/lib/ModuleBase.sol\":6277:6286  _setToken */\n      dup6\n      swap1\n        /* \"contracts/lib/ModuleBase.sol\":6252:6288  controller.isSet(address(_setToken)) */\n      0x04\n      add\n      jump(tag_82)\n    tag_242:\n      0x20\n      mload(0x40)\n      dup1\n      dup4\n      sub\n      dup2\n      dup7\n      dup1\n      extcodesize\n      iszero\n      dup1\n      iszero\n      tag_243\n      jumpi\n      0x00\n      dup1\n      revert\n    tag_243:\n      pop\n      gas\n      staticcall\n      iszero\n      dup1\n      iszero\n      tag_245\n      jumpi\n      returndatasize\n      0x00\n      dup1\n      returndatacopy\n      revert(0x00, returndatasize)\n    tag_245:\n      pop\n      pop\n      pop\n      pop\n      mload(0x40)\n      returndatasize\n      not(0x1f)\n      0x1f\n      dup3\n      add\n      and\n      dup3\n      add\n      dup1\n      0x40\n      mstore\n      pop\n      dup2\n      add\n      swap1\n      tag_246\n      swap2\n      swap1\n      jump(tag_161)\n    tag_246:\n        /* \"contracts/lib/ModuleBase.sol\":6252:6348  controller.isSet(address(_setToken)) &&... */\n      dup1\n      iszero\n      tag_176\n      jumpi\n      pop\n        /* \"contracts/lib/ModuleBase.sol\":6304:6348  _setToken.isInitializedModule(address(this)) */\n      mload(0x40)\n      shl(0xe2, 0x35fc6c9f)\n      dup2\n      mstore\n      sub(shl(0xa0, 0x01), 0x01)\n        /* \"contracts/lib/ModuleBase.sol\":6304:6333  _setToken.isInitializedModule */\n      dup4\n      and\n      swap1\n      0xd7f1b27c\n      swap1\n        /* \"contracts/lib/ModuleBase.sol\":6304:6348  _setToken.isInitializedModule(address(this)) */\n      tag_236\n      swap1\n        /* \"contracts/lib/ModuleBase.sol\":6342:6346  this */\n      address\n      swap1\n        /* \"contracts/lib/ModuleBase.sol\":6304:6348  _setToken.isInitializedModule(address(this)) */\n      0x04\n      add\n      jump(tag_82)\n        /* \"@openzeppelin/contracts/math/SafeMath.sol\":3538:3753  function mul(uint256 a, uint256 b) internal pure returns (uint256) {... */\n    tag_189:\n        /* \"@openzeppelin/contracts/math/SafeMath.sol\":3596:3603  uint256 */\n      0x00\n        /* \"@openzeppelin/contracts/math/SafeMath.sol\":3619:3625  a == 0 */\n      dup3\n        /* \"@openzeppelin/contracts/math/SafeMath.sol\":3615:3635  if (a == 0) return 0 */\n      tag_254\n      jumpi\n      pop\n        /* \"@openzeppelin/contracts/math/SafeMath.sol\":3634:3635  0 */\n      0x00\n        /* \"@openzeppelin/contracts/math/SafeMath.sol\":3627:3635  return 0 */\n      jump(tag_176)\n        /* \"@openzeppelin/contracts/math/SafeMath.sol\":3615:3635  if (a == 0) return 0 */\n    tag_254:\n        /* \"@openzeppelin/contracts/math/SafeMath.sol\":3657:3662  a * b */\n      dup3\n      dup3\n      mul\n        /* \"@openzeppelin/contracts/math/SafeMath.sol\":3661:3662  b */\n      dup3\n        /* \"@openzeppelin/contracts/math/SafeMath.sol\":3657:3658  a */\n      dup5\n        /* \"@openzeppelin/contracts/math/SafeMath.sol\":3657:3662  a * b */\n      dup3\n        /* \"@openzeppelin/contracts/math/SafeMath.sol\":3657:3658  a */\n      dup2\n        /* \"@openzeppelin/contracts/math/SafeMath.sol\":3680:3685  c / a */\n      tag_255\n      jumpi\n      invalid\n    tag_255:\n      div\n        /* \"@openzeppelin/contracts/math/SafeMath.sol\":3680:3690  c / a == b */\n      eq\n        /* \"@openzeppelin/contracts/math/SafeMath.sol\":3672:3728  require(c / a == b, \"SafeMath: multiplication overflow\") */\n      tag_187\n      jumpi\n      mload(0x40)\n      shl(0xe5, 0x461bcd)\n      dup2\n      mstore\n      0x04\n      add\n      tag_52\n      swap1\n      jump(tag_258)\n        /* \"@openzeppelin/contracts/math/SafeMath.sol\":4217:4367  function div(uint256 a, uint256 b) internal pure returns (uint256) {... */\n    tag_190:\n        /* \"@openzeppelin/contracts/math/SafeMath.sol\":4275:4282  uint256 */\n      0x00\n        /* \"@openzeppelin/contracts/math/SafeMath.sol\":4306:4307  0 */\n      dup1\n        /* \"@openzeppelin/contracts/math/SafeMath.sol\":4302:4303  b */\n      dup3\n        /* \"@openzeppelin/contracts/math/SafeMath.sol\":4302:4307  b > 0 */\n      gt\n        /* \"@openzeppelin/contracts/math/SafeMath.sol\":4294:4338  require(b > 0, \"SafeMath: division by zero\") */\n      tag_260\n      jumpi\n      mload(0x40)\n      shl(0xe5, 0x461bcd)\n      dup2\n      mstore\n      0x04\n      add\n      tag_52\n      swap1\n      jump(tag_262)\n    tag_260:\n        /* \"@openzeppelin/contracts/math/SafeMath.sol\":4359:4360  b */\n      dup2\n        /* \"@openzeppelin/contracts/math/SafeMath.sol\":4355:4356  a */\n      dup4\n        /* \"@openzeppelin/contracts/math/SafeMath.sol\":4355:4360  a / b */\n      dup2\n      tag_263\n      jumpi\n      invalid\n    tag_263:\n      div\n      swap4\n        /* \"@openzeppelin/contracts/math/SafeMath.sol\":4217:4367  function div(uint256 a, uint256 b) internal pure returns (uint256) {... */\n      swap3\n      pop\n      pop\n      pop\n      jump\t// out\n        /* \"contracts/lib/Invoke.sol\":2138:2493  function invokeTransfer(... */\n    tag_200:\n        /* \"contracts/lib/Invoke.sol\":2304:2317  _quantity > 0 */\n      dup1\n      iszero\n        /* \"contracts/lib/Invoke.sol\":2300:2487  if (_quantity > 0) {... */\n      tag_192\n      jumpi\n        /* \"contracts/lib/Invoke.sol\":2333:2354  bytes memory callData */\n      0x60\n        /* \"contracts/lib/Invoke.sol\":2410:2413  _to */\n      dup3\n        /* \"contracts/lib/Invoke.sol\":2415:2424  _quantity */\n      dup3\n        /* \"contracts/lib/Invoke.sol\":2357:2425  abi.encodeWithSignature(\"transfer(address,uint256)\", _to, _quantity) */\n      add(0x24, mload(0x40))\n      tag_266\n      swap3\n      swap2\n      swap1\n      jump(tag_62)\n    tag_266:\n      0x40\n      dup1\n      mload\n      not(0x1f)\n      dup2\n      dup5\n      sub\n      add\n      dup2\n      mstore\n      swap2\n      dup2\n      mstore\n      0x20\n      dup3\n      add\n      dup1\n      mload\n      sub(shl(0xe0, 0x01), 0x01)\n      and\n      shl(0xe0, 0xa9059cbb)\n      or\n      swap1\n      mstore\n        /* \"contracts/lib/Invoke.sol\":2439:2476  _setToken.invoke(_token, 0, callData) */\n      mload\n      shl(0xe1, 0x47b78199)\n      dup2\n      mstore\n        /* \"contracts/lib/Invoke.sol\":2357:2425  abi.encodeWithSignature(\"transfer(address,uint256)\", _to, _quantity) */\n      swap1\n      swap2\n      pop\n      sub(shl(0xa0, 0x01), 0x01)\n        /* \"contracts/lib/Invoke.sol\":2439:2455  _setToken.invoke */\n      dup7\n      and\n      swap1\n      0x8f6f0332\n      swap1\n        /* \"contracts/lib/Invoke.sol\":2439:2476  _setToken.invoke(_token, 0, callData) */\n      tag_267\n      swap1\n        /* \"contracts/lib/Invoke.sol\":2456:2462  _token */\n      dup8\n      swap1\n      0x00\n      swap1\n        /* \"contracts/lib/Invoke.sol\":2357:2425  abi.encodeWithSignature(\"transfer(address,uint256)\", _to, _quantity) */\n      dup7\n      swap1\n        /* \"contracts/lib/Invoke.sol\":2439:2476  _setToken.invoke(_token, 0, callData) */\n      0x04\n      add\n      jump(tag_268)\n    tag_267:\n      0x00\n      mload(0x40)\n      dup1\n      dup4\n      sub\n      dup2\n      0x00\n      dup8\n      dup1\n      extcodesize\n      iszero\n      dup1\n      iszero\n      tag_269\n      jumpi\n      0x00\n      dup1\n      revert\n    tag_269:\n      pop\n      gas\n      call\n      iszero\n      dup1\n      iszero\n      tag_271\n      jumpi\n      returndatasize\n      0x00\n      dup1\n      returndatacopy\n      revert(0x00, returndatasize)\n    tag_271:\n      pop\n      pop\n      pop\n      pop\n      mload(0x40)\n      returndatasize\n      0x00\n      dup3\n      returndatacopy\n      0x1f\n      returndatasize\n      swap1\n      dup2\n      add\n      not(0x1f)\n      and\n      dup3\n      add\n      0x40\n      mstore\n      tag_208\n      swap2\n      swap1\n      dup2\n      add\n      swap1\n      jump(tag_273)\n        /* \"@openzeppelin/contracts/math/SafeMath.sol\":3136:3291  function sub(uint256 a, uint256 b) internal pure returns (uint256) {... */\n    tag_207:\n        /* \"@openzeppelin/contracts/math/SafeMath.sol\":3194:3201  uint256 */\n      0x00\n        /* \"@openzeppelin/contracts/math/SafeMath.sol\":3226:3227  a */\n      dup3\n        /* \"@openzeppelin/contracts/math/SafeMath.sol\":3221:3222  b */\n      dup3\n        /* \"@openzeppelin/contracts/math/SafeMath.sol\":3221:3227  b <= a */\n      gt\n      iszero\n        /* \"@openzeppelin/contracts/math/SafeMath.sol\":3213:3262  require(b <= a, \"SafeMath: subtraction overflow\") */\n      tag_275\n      jumpi\n      mload(0x40)\n      shl(0xe5, 0x461bcd)\n      dup2\n      mstore\n      0x04\n      add\n      tag_52\n      swap1\n      jump(tag_277)\n    tag_275:\n      pop\n        /* \"@openzeppelin/contracts/math/SafeMath.sol\":3279:3284  a - b */\n      swap1\n      sub\n      swap1\n        /* \"@openzeppelin/contracts/math/SafeMath.sol\":3136:3291  function sub(uint256 a, uint256 b) internal pure returns (uint256) {... */\n      jump\t// out\n        /* \"contracts/lib/ExplicitERC20.sol\":1582:2323  function transferFrom(... */\n    tag_220:\n        /* \"contracts/lib/ExplicitERC20.sol\":1812:1825  _quantity > 0 */\n      dup1\n      iszero\n        /* \"contracts/lib/ExplicitERC20.sol\":1808:2317  if (_quantity > 0) {... */\n      tag_192\n      jumpi\n        /* \"contracts/lib/ExplicitERC20.sol\":1867:1888  _token.balanceOf(_to) */\n      mload(0x40)\n      shl(0xe0, 0x70a08231)\n      dup2\n      mstore\n        /* \"contracts/lib/ExplicitERC20.sol\":1841:1864  uint256 existingBalance */\n      0x00\n      swap1\n      sub(shl(0xa0, 0x01), 0x01)\n        /* \"contracts/lib/ExplicitERC20.sol\":1867:1883  _token.balanceOf */\n      dup7\n      and\n      swap1\n      0x70a08231\n      swap1\n        /* \"contracts/lib/ExplicitERC20.sol\":1867:1888  _token.balanceOf(_to) */\n      tag_280\n      swap1\n        /* \"contracts/lib/ExplicitERC20.sol\":1884:1887  _to */\n      dup7\n      swap1\n        /* \"contracts/lib/ExplicitERC20.sol\":1867:1888  _token.balanceOf(_to) */\n      0x04\n      add\n      jump(tag_82)\n    tag_280:\n      0x20\n      mload(0x40)\n      dup1\n      dup4\n      sub\n      dup2\n      dup7\n      dup1\n      extcodesize\n      iszero\n      dup1\n      iszero\n      tag_281\n      jumpi\n      0x00\n      dup1\n      revert\n    tag_281:\n      pop\n      gas\n      staticcall\n      iszero\n      dup1\n      iszero\n      tag_283\n      jumpi\n      returndatasize\n      0x00\n      dup1\n      returndatacopy\n      revert(0x00, returndatasize)\n    tag_283:\n      pop\n      pop\n      pop\n      pop\n      mload(0x40)\n      returndatasize\n      not(0x1f)\n      0x1f\n      dup3\n      add\n      and\n      dup3\n      add\n      dup1\n      0x40\n      mstore\n      pop\n      dup2\n      add\n      swap1\n      tag_284\n      swap2\n      swap1\n      jump(tag_87)\n    tag_284:\n        /* \"contracts/lib/ExplicitERC20.sol\":1841:1888  uint256 existingBalance = _token.balanceOf(_to) */\n      swap1\n      pop\n        /* \"contracts/lib/ExplicitERC20.sol\":1903:2038  SafeERC20.safeTransferFrom(... */\n      tag_285\n        /* \"contracts/lib/ExplicitERC20.sol\":1947:1953  _token */\n      dup6\n        /* \"contracts/lib/ExplicitERC20.sol\":1971:1976  _from */\n      dup6\n        /* \"contracts/lib/ExplicitERC20.sol\":1994:1997  _to */\n      dup6\n        /* \"contracts/lib/ExplicitERC20.sol\":2015:2024  _quantity */\n      dup6\n        /* \"contracts/lib/ExplicitERC20.sol\":1903:1929  SafeERC20.safeTransferFrom */\n      tag_286\n        /* \"contracts/lib/ExplicitERC20.sol\":1903:2038  SafeERC20.safeTransferFrom(... */\n      jump\t// in\n    tag_285:\n        /* \"contracts/lib/ExplicitERC20.sol\":2074:2095  _token.balanceOf(_to) */\n      mload(0x40)\n      shl(0xe0, 0x70a08231)\n      dup2\n      mstore\n        /* \"contracts/lib/ExplicitERC20.sol\":2053:2071  uint256 newBalance */\n      0x00\n      swap1\n      sub(shl(0xa0, 0x01), 0x01)\n        /* \"contracts/lib/ExplicitERC20.sol\":2074:2090  _token.balanceOf */\n      dup8\n      and\n      swap1\n      0x70a08231\n      swap1\n        /* \"contracts/lib/ExplicitERC20.sol\":2074:2095  _token.balanceOf(_to) */\n      tag_287\n      swap1\n        /* \"contracts/lib/ExplicitERC20.sol\":2091:2094  _to */\n      dup8\n      swap1\n        /* \"contracts/lib/ExplicitERC20.sol\":2074:2095  _token.balanceOf(_to) */\n      0x04\n      add\n      jump(tag_82)\n    tag_287:\n      0x20\n      mload(0x40)\n      dup1\n      dup4\n      sub\n      dup2\n      dup7\n      dup1\n      extcodesize\n      iszero\n      dup1\n      iszero\n      tag_288\n      jumpi\n      0x00\n      dup1\n      revert\n    tag_288:\n      pop\n      gas\n      staticcall\n      iszero\n      dup1\n      iszero\n      tag_290\n      jumpi\n      returndatasize\n      0x00\n      dup1\n      returndatacopy\n      revert(0x00, returndatasize)\n    tag_290:\n      pop\n      pop\n      pop\n      pop\n      mload(0x40)\n      returndatasize\n      not(0x1f)\n      0x1f\n      dup3\n      add\n      and\n      dup3\n      add\n      dup1\n      0x40\n      mstore\n      pop\n      dup2\n      add\n      swap1\n      tag_291\n      swap2\n      swap1\n      jump(tag_87)\n    tag_291:\n        /* \"contracts/lib/ExplicitERC20.sol\":2053:2095  uint256 newBalance = _token.balanceOf(_to) */\n      swap1\n      pop\n        /* \"contracts/lib/ExplicitERC20.sol\":2213:2243  existingBalance.add(_quantity) */\n      tag_206\n        /* \"contracts/lib/ExplicitERC20.sol\":2213:2228  existingBalance */\n      dup3\n        /* \"contracts/lib/ExplicitERC20.sol\":2233:2242  _quantity */\n      dup5\n        /* \"contracts/lib/ExplicitERC20.sol\":2213:2243  existingBalance.add(_quantity) */\n      0xffffffff\n        /* \"contracts/lib/ExplicitERC20.sol\":2213:2232  existingBalance.add */\n      tag_228\n        /* \"contracts/lib/ExplicitERC20.sol\":2213:2243  existingBalance.add(_quantity) */\n      and\n      jump\t// in\n        /* \"@openzeppelin/contracts/math/SafeMath.sol\":2690:2865  function add(uint256 a, uint256 b) internal pure returns (uint256) {... */\n    tag_228:\n        /* \"@openzeppelin/contracts/math/SafeMath.sol\":2748:2755  uint256 */\n      0x00\n        /* \"@openzeppelin/contracts/math/SafeMath.sol\":2779:2784  a + b */\n      dup3\n      dup3\n      add\n        /* \"@openzeppelin/contracts/math/SafeMath.sol\":2802:2808  c >= a */\n      dup4\n      dup2\n      lt\n      iszero\n        /* \"@openzeppelin/contracts/math/SafeMath.sol\":2794:2840  require(c >= a, \"SafeMath: addition overflow\") */\n      tag_187\n      jumpi\n      mload(0x40)\n      shl(0xe5, 0x461bcd)\n      dup2\n      mstore\n      0x04\n      add\n      tag_52\n      swap1\n      jump(tag_298)\n        /* \"@openzeppelin/contracts/token/ERC20/SafeERC20.sol\":885:1088  function safeTransferFrom(IERC20 token, address from, address to, uint256 value) internal {... */\n    tag_286:\n        /* \"@openzeppelin/contracts/token/ERC20/SafeERC20.sol\":985:1081  _callOptionalReturn(token, abi.encodeWithSelector(token.transferFrom.selector, from, to, value)) */\n      tag_192\n        /* \"@openzeppelin/contracts/token/ERC20/SafeERC20.sol\":1005:1010  token */\n      dup5\n        /* \"@openzeppelin/contracts/token/ERC20/SafeERC20.sol\":1035:1062  token.transferFrom.selector */\n      shl(0xe0, 0x23b872dd)\n        /* \"@openzeppelin/contracts/token/ERC20/SafeERC20.sol\":1064:1068  from */\n      dup6\n        /* \"@openzeppelin/contracts/token/ERC20/SafeERC20.sol\":1070:1072  to */\n      dup6\n        /* \"@openzeppelin/contracts/token/ERC20/SafeERC20.sol\":1074:1079  value */\n      dup6\n        /* \"@openzeppelin/contracts/token/ERC20/SafeERC20.sol\":1012:1080  abi.encodeWithSelector(token.transferFrom.selector, from, to, value) */\n      add(0x24, mload(0x40))\n      tag_301\n      swap4\n      swap3\n      swap2\n      swap1\n      jump(tag_302)\n    tag_301:\n      0x40\n      dup1\n      mload\n      not(0x1f)\n      dup2\n      dup5\n      sub\n      add\n      dup2\n      mstore\n      swap2\n      swap1\n      mstore\n      0x20\n      dup2\n      add\n      dup1\n      mload\n      sub(shl(0xe0, 0x01), 0x01)\n      and\n      not(sub(shl(0xe0, 0x01), 0x01))\n      swap1\n      swap4\n      and\n      swap3\n      swap1\n      swap3\n      or\n      swap1\n      swap2\n      mstore\n        /* \"@openzeppelin/contracts/token/ERC20/SafeERC20.sol\":3386:3409  bytes memory returndata */\n      0x60\n        /* \"@openzeppelin/contracts/token/ERC20/SafeERC20.sol\":3412:3481  address(token).functionCall(data, \"SafeERC20: low-level call failed\") */\n      tag_305\n        /* \"@openzeppelin/contracts/token/ERC20/SafeERC20.sol\":3440:3444  data */\n      dup3\n        /* \"@openzeppelin/contracts/token/ERC20/SafeERC20.sol\":3412:3481  address(token).functionCall(data, \"SafeERC20: low-level call failed\") */\n      mload(0x40)\n      dup1\n      0x40\n      add\n      0x40\n      mstore\n      dup1\n      0x20\n      dup2\n      mstore\n      0x20\n      add\n      0x5361666545524332303a206c6f772d6c6576656c2063616c6c206661696c6564\n      dup2\n      mstore\n      pop\n        /* \"@openzeppelin/contracts/token/ERC20/SafeERC20.sol\":3420:3425  token */\n      dup6\n      sub(shl(0xa0, 0x01), 0x01)\n        /* \"@openzeppelin/contracts/token/ERC20/SafeERC20.sol\":3412:3439  address(token).functionCall */\n      and\n      tag_306\n      swap1\n        /* \"@openzeppelin/contracts/token/ERC20/SafeERC20.sol\":3412:3481  address(token).functionCall(data, \"SafeERC20: low-level call failed\") */\n      swap3\n      swap2\n      swap1\n      0xffffffff\n      and\n      jump\t// in\n    tag_305:\n        /* \"@openzeppelin/contracts/token/ERC20/SafeERC20.sol\":3495:3512  returndata.length */\n      dup1\n      mload\n        /* \"@openzeppelin/contracts/token/ERC20/SafeERC20.sol\":3386:3481  bytes memory returndata = address(token).functionCall(data, \"SafeERC20: low-level call failed\") */\n      swap1\n      swap2\n      pop\n        /* \"@openzeppelin/contracts/token/ERC20/SafeERC20.sol\":3495:3516  returndata.length > 0 */\n      iszero\n        /* \"@openzeppelin/contracts/token/ERC20/SafeERC20.sol\":3491:3712  if (returndata.length > 0) { // Return data is optional... */\n      tag_309\n      jumpi\n        /* \"@openzeppelin/contracts/token/ERC20/SafeERC20.sol\":3635:3645  returndata */\n      dup1\n        /* \"@openzeppelin/contracts/token/ERC20/SafeERC20.sol\":3624:3654  abi.decode(returndata, (bool)) */\n      dup1\n      0x20\n      add\n      swap1\n      mload\n      dup2\n      add\n      swap1\n      tag_308\n      swap2\n      swap1\n      jump(tag_161)\n    tag_308:\n        /* \"@openzeppelin/contracts/token/ERC20/SafeERC20.sol\":3616:3701  require(abi.decode(returndata, (bool)), \"SafeERC20: ERC20 operation did not succeed\") */\n      tag_309\n      jumpi\n      mload(0x40)\n      shl(0xe5, 0x461bcd)\n      dup2\n      mstore\n      0x04\n      add\n      tag_52\n      swap1\n      jump(tag_311)\n    tag_309:\n        /* \"@openzeppelin/contracts/token/ERC20/SafeERC20.sol\":2967:3718  function _callOptionalReturn(IERC20 token, bytes memory data) private {... */\n      pop\n      pop\n      pop\n      jump\t// out\n        /* \"@openzeppelin/contracts/utils/Address.sol\":3581:3774  function functionCall(address target, bytes memory data, string memory errorMessage) internal returns (bytes memory) {... */\n    tag_306:\n        /* \"@openzeppelin/contracts/utils/Address.sol\":3684:3696  bytes memory */\n      0x60\n        /* \"@openzeppelin/contracts/utils/Address.sol\":3715:3767  functionCallWithValue(target, data, 0, errorMessage) */\n      tag_211\n        /* \"@openzeppelin/contracts/utils/Address.sol\":3737:3743  target */\n      dup5\n        /* \"@openzeppelin/contracts/utils/Address.sol\":3745:3749  data */\n      dup5\n        /* \"@openzeppelin/contracts/utils/Address.sol\":3751:3752  0 */\n      0x00\n        /* \"@openzeppelin/contracts/utils/Address.sol\":3754:3766  errorMessage */\n      dup6\n        /* \"@openzeppelin/contracts/utils/Address.sol\":3684:3696  bytes memory */\n      dup6\n        /* \"@openzeppelin/contracts/utils/Address.sol\":4858:4876  isContract(target) */\n      tag_319\n        /* \"@openzeppelin/contracts/utils/Address.sol\":4869:4875  target */\n      dup6\n        /* \"@openzeppelin/contracts/utils/Address.sol\":4858:4868  isContract */\n      tag_320\n        /* \"@openzeppelin/contracts/utils/Address.sol\":4858:4876  isContract(target) */\n      jump\t// in\n    tag_319:\n        /* \"@openzeppelin/contracts/utils/Address.sol\":4850:4910  require(isContract(target), \"Address: call to non-contract\") */\n      tag_321\n      jumpi\n      mload(0x40)\n      shl(0xe5, 0x461bcd)\n      dup2\n      mstore\n      0x04\n      add\n      tag_52\n      swap1\n      jump(tag_323)\n    tag_321:\n        /* \"@openzeppelin/contracts/utils/Address.sol\":4981:4993  bool success */\n      0x00\n        /* \"@openzeppelin/contracts/utils/Address.sol\":4995:5018  bytes memory returndata */\n      0x60\n        /* \"@openzeppelin/contracts/utils/Address.sol\":5022:5028  target */\n      dup7\n      sub(shl(0xa0, 0x01), 0x01)\n        /* \"@openzeppelin/contracts/utils/Address.sol\":5022:5033  target.call */\n      and\n        /* \"@openzeppelin/contracts/utils/Address.sol\":5042:5047  value */\n      dup6\n        /* \"@openzeppelin/contracts/utils/Address.sol\":5050:5054  data */\n      dup8\n        /* \"@openzeppelin/contracts/utils/Address.sol\":5022:5055  target.call{ value: value }(data) */\n      mload(0x40)\n      tag_324\n      swap2\n      swap1\n      jump(tag_325)\n    tag_324:\n      0x00\n      mload(0x40)\n      dup1\n      dup4\n      sub\n      dup2\n      dup6\n      dup8\n      gas\n      call\n      swap3\n      pop\n      pop\n      pop\n      returndatasize\n      dup1\n      0x00\n      dup2\n      eq\n      tag_328\n      jumpi\n      mload(0x40)\n      swap2\n      pop\n      and(add(returndatasize, 0x3f), not(0x1f))\n      dup3\n      add\n      0x40\n      mstore\n      returndatasize\n      dup3\n      mstore\n      returndatasize\n      0x00\n      0x20\n      dup5\n      add\n      returndatacopy\n      jump(tag_327)\n    tag_328:\n      0x60\n      swap2\n      pop\n    tag_327:\n      pop\n        /* \"@openzeppelin/contracts/utils/Address.sol\":4980:5055  (bool success, bytes memory returndata) = target.call{ value: value }(data) */\n      swap2\n      pop\n      swap2\n      pop\n        /* \"@openzeppelin/contracts/utils/Address.sol\":5072:5124  _verifyCallResult(success, returndata, errorMessage) */\n      tag_329\n        /* \"@openzeppelin/contracts/utils/Address.sol\":5090:5097  success */\n      dup3\n        /* \"@openzeppelin/contracts/utils/Address.sol\":5099:5109  returndata */\n      dup3\n        /* \"@openzeppelin/contracts/utils/Address.sol\":5111:5123  errorMessage */\n      dup7\n        /* \"@openzeppelin/contracts/utils/Address.sol\":5072:5089  _verifyCallResult */\n      tag_330\n        /* \"@openzeppelin/contracts/utils/Address.sol\":5072:5124  _verifyCallResult(success, returndata, errorMessage) */\n      jump\t// in\n    tag_329:\n        /* \"@openzeppelin/contracts/utils/Address.sol\":5065:5124  return _verifyCallResult(success, returndata, errorMessage) */\n      swap8\n        /* \"@openzeppelin/contracts/utils/Address.sol\":4608:5131  function functionCallWithValue(address target, bytes memory data, uint256 value, string memory errorMessage) internal returns (bytes memory) {... */\n      swap7\n      pop\n      pop\n      pop\n      pop\n      pop\n      pop\n      pop\n      jump\t// out\n        /* \"@openzeppelin/contracts/utils/Address.sol\":726:1139  function isContract(address account) internal view returns (bool) {... */\n    tag_320:\n        /* \"@openzeppelin/contracts/utils/Address.sol\":1086:1106  extcodesize(account) */\n      extcodesize\n        /* \"@openzeppelin/contracts/utils/Address.sol\":1124:1132  size > 0 */\n      iszero\n      iszero\n      swap1\n        /* \"@openzeppelin/contracts/utils/Address.sol\":726:1139  function isContract(address account) internal view returns (bool) {... */\n      jump\t// out\n        /* \"@openzeppelin/contracts/utils/Address.sol\":7091:7816  function _verifyCallResult(bool success, bytes memory returndata, string memory errorMessage) private pure returns(bytes memory) {... */\n    tag_330:\n        /* \"@openzeppelin/contracts/utils/Address.sol\":7206:7218  bytes memory */\n      0x60\n        /* \"@openzeppelin/contracts/utils/Address.sol\":7234:7241  success */\n      dup4\n        /* \"@openzeppelin/contracts/utils/Address.sol\":7230:7810  if (success) {... */\n      iszero\n      tag_333\n      jumpi\n      pop\n        /* \"@openzeppelin/contracts/utils/Address.sol\":7264:7274  returndata */\n      dup2\n        /* \"@openzeppelin/contracts/utils/Address.sol\":7257:7274  return returndata */\n      jump(tag_187)\n        /* \"@openzeppelin/contracts/utils/Address.sol\":7230:7810  if (success) {... */\n    tag_333:\n        /* \"@openzeppelin/contracts/utils/Address.sol\":7375:7392  returndata.length */\n      dup3\n      mload\n        /* \"@openzeppelin/contracts/utils/Address.sol\":7375:7396  returndata.length > 0 */\n      iszero\n        /* \"@openzeppelin/contracts/utils/Address.sol\":7371:7800  if (returndata.length > 0) {... */\n      tag_335\n      jumpi\n        /* \"@openzeppelin/contracts/utils/Address.sol\":7633:7643  returndata */\n      dup3\n        /* \"@openzeppelin/contracts/utils/Address.sol\":7627:7644  mload(returndata) */\n      mload\n        /* \"@openzeppelin/contracts/utils/Address.sol\":7693:7708  returndata_size */\n      dup1\n        /* \"@openzeppelin/contracts/utils/Address.sol\":7680:7690  returndata */\n      dup5\n        /* \"@openzeppelin/contracts/utils/Address.sol\":7676:7678  32 */\n      0x20\n        /* \"@openzeppelin/contracts/utils/Address.sol\":7672:7691  add(32, returndata) */\n      add\n        /* \"@openzeppelin/contracts/utils/Address.sol\":7665:7709  revert(add(32, returndata), returndata_size) */\n      revert\n        /* \"@openzeppelin/contracts/utils/Address.sol\":7582:7727  {... */\n    tag_335:\n        /* \"@openzeppelin/contracts/utils/Address.sol\":7772:7784  errorMessage */\n      dup2\n        /* \"@openzeppelin/contracts/utils/Address.sol\":7765:7785  revert(errorMessage) */\n      mload(0x40)\n      shl(0xe5, 0x461bcd)\n      dup2\n      mstore\n      0x04\n      add\n      tag_52\n      swap2\n      swap1\n      jump(tag_338)\n        /* \"--CODEGEN--\":142:276   */\n    tag_340:\n        /* \"--CODEGEN--\":220:233   */\n      dup1\n      mload\n        /* \"--CODEGEN--\":238:271   */\n      tag_176\n        /* \"--CODEGEN--\":220:233   */\n      dup2\n        /* \"--CODEGEN--\":238:271   */\n      jump(tag_343)\n        /* \"--CODEGEN--\":2402:2665   */\n    tag_234:\n      0x00\n        /* \"--CODEGEN--\":2517:2519   */\n      0x20\n        /* \"--CODEGEN--\":2505:2514   */\n      dup3\n        /* \"--CODEGEN--\":2496:2503   */\n      dup5\n        /* \"--CODEGEN--\":2492:2515   */\n      sub\n        /* \"--CODEGEN--\":2488:2520   */\n      slt\n        /* \"--CODEGEN--\":2485:2487   */\n      iszero\n      tag_345\n      jumpi\n      dup1\n      dup2\n        /* \"--CODEGEN--\":2523:2535   */\n      revert\n        /* \"--CODEGEN--\":2485:2487   */\n    tag_345:\n        /* \"--CODEGEN--\":226:232   */\n      dup2\n        /* \"--CODEGEN--\":220:233   */\n      mload\n        /* \"--CODEGEN--\":238:271   */\n      tag_187\n        /* \"--CODEGEN--\":265:270   */\n      dup2\n        /* \"--CODEGEN--\":238:271   */\n      jump(tag_343)\n        /* \"--CODEGEN--\":2672:3064   */\n    tag_70:\n      0x00\n        /* \"--CODEGEN--\":2812:2814   */\n      0x20\n      dup1\n        /* \"--CODEGEN--\":2800:2809   */\n      dup4\n        /* \"--CODEGEN--\":2791:2798   */\n      dup6\n        /* \"--CODEGEN--\":2787:2810   */\n      sub\n        /* \"--CODEGEN--\":2783:2815   */\n      slt\n        /* \"--CODEGEN--\":2780:2782   */\n      iszero\n      tag_348\n      jumpi\n      dup2\n      dup3\n        /* \"--CODEGEN--\":2818:2830   */\n      revert\n        /* \"--CODEGEN--\":2780:2782   */\n    tag_348:\n        /* \"--CODEGEN--\":2869:2886   */\n      dup3\n        /* \"--CODEGEN--\":2863:2887   */\n      mload\n        /* \"--CODEGEN--\":2907:2925   */\n      0xffffffffffffffff\n      dup1\n        /* \"--CODEGEN--\":2899:2905   */\n      dup3\n        /* \"--CODEGEN--\":2896:2926   */\n      gt\n        /* \"--CODEGEN--\":2893:2895   */\n      iszero\n      tag_349\n      jumpi\n      dup4\n      dup5\n        /* \"--CODEGEN--\":2929:2941   */\n      revert\n        /* \"--CODEGEN--\":2893:2895   */\n    tag_349:\n        /* \"--CODEGEN--\":3031:3037   */\n      dup2\n        /* \"--CODEGEN--\":3020:3029   */\n      dup6\n        /* \"--CODEGEN--\":3016:3038   */\n      add\n        /* \"--CODEGEN--\":429:432   */\n      dup7\n        /* \"--CODEGEN--\":422:426   */\n      0x1f\n        /* \"--CODEGEN--\":414:420   */\n      dup3\n        /* \"--CODEGEN--\":410:427   */\n      add\n        /* \"--CODEGEN--\":406:433   */\n      slt\n        /* \"--CODEGEN--\":396:398   */\n      tag_350\n      jumpi\n      dup5\n      dup6\n        /* \"--CODEGEN--\":437:449   */\n      revert\n        /* \"--CODEGEN--\":396:398   */\n    tag_350:\n        /* \"--CODEGEN--\":477:483   */\n      dup1\n        /* \"--CODEGEN--\":471:484   */\n      mload\n        /* \"--CODEGEN--\":457:484   */\n      swap3\n      pop\n        /* \"--CODEGEN--\":2907:2925   */\n      dup2\n        /* \"--CODEGEN--\":29092:29098   */\n      dup4\n        /* \"--CODEGEN--\":29089:29119   */\n      gt\n        /* \"--CODEGEN--\":29086:29088   */\n      iszero\n      tag_351\n      jumpi\n      dup5\n      dup6\n        /* \"--CODEGEN--\":29122:29134   */\n      revert\n        /* \"--CODEGEN--\":29086:29088   */\n    tag_351:\n        /* \"--CODEGEN--\":2812:2814   */\n      dup4\n        /* \"--CODEGEN--\":29159:29165   */\n      dup4\n        /* \"--CODEGEN--\":29155:29172   */\n      mul\n      swap2\n      pop\n        /* \"--CODEGEN--\":499:579   */\n      tag_352\n        /* \"--CODEGEN--\":2812:2814   */\n      dup5\n        /* \"--CODEGEN--\":29155:29172   */\n      dup4\n        /* \"--CODEGEN--\":29220:29235   */\n      add\n        /* \"--CODEGEN--\":499:579   */\n      jump(tag_353)\n    tag_352:\n        /* \"--CODEGEN--\":607:628   */\n      dup4\n      dup2\n      mstore\n        /* \"--CODEGEN--\":664:678   */\n      dup5\n      dup2\n      add\n      swap1\n        /* \"--CODEGEN--\":639:656   */\n      dup3\n      dup7\n      add\n        /* \"--CODEGEN--\":744:771   */\n      dup5\n      dup5\n      add\n      dup8\n      add\n        /* \"--CODEGEN--\":741:777   */\n      dup11\n      lt\n        /* \"--CODEGEN--\":738:740   */\n      iszero\n      tag_354\n      jumpi\n      dup8\n      dup9\n        /* \"--CODEGEN--\":780:792   */\n      revert\n        /* \"--CODEGEN--\":738:740   */\n    tag_354:\n      dup8\n        /* \"--CODEGEN--\":806:816   */\n      swap5\n      pop\n        /* \"--CODEGEN--\":800:1017   */\n    tag_355:\n        /* \"--CODEGEN--\":825:831   */\n      dup6\n        /* \"--CODEGEN--\":822:823   */\n      dup6\n        /* \"--CODEGEN--\":819:832   */\n      lt\n        /* \"--CODEGEN--\":800:1017   */\n      iszero\n      tag_357\n      jumpi\n        /* \"--CODEGEN--\":905:953   */\n      tag_358\n        /* \"--CODEGEN--\":949:952   */\n      dup11\n        /* \"--CODEGEN--\":937:947   */\n      dup3\n        /* \"--CODEGEN--\":905:953   */\n      jump(tag_340)\n    tag_358:\n        /* \"--CODEGEN--\":893:954   */\n      dup4\n      mstore\n        /* \"--CODEGEN--\":847:848   */\n      0x01\n        /* \"--CODEGEN--\":840:849   */\n      swap5\n      swap1\n      swap5\n      add\n      swap4\n        /* \"--CODEGEN--\":968:982   */\n      swap2\n      dup7\n      add\n      swap2\n        /* \"--CODEGEN--\":996:1010   */\n      dup7\n      add\n        /* \"--CODEGEN--\":800:1017   */\n      jump(tag_355)\n    tag_357:\n      pop\n        /* \"--CODEGEN--\":2949:3048   */\n      swap9\n        /* \"--CODEGEN--\":2774:3064   */\n      swap8\n      pop\n      pop\n      pop\n      pop\n      pop\n      pop\n      pop\n      pop\n      jump\n        /* \"--CODEGEN--\":3071:3328   */\n    tag_161:\n      0x00\n        /* \"--CODEGEN--\":3183:3185   */\n      0x20\n        /* \"--CODEGEN--\":3171:3180   */\n      dup3\n        /* \"--CODEGEN--\":3162:3169   */\n      dup5\n        /* \"--CODEGEN--\":3158:3181   */\n      sub\n        /* \"--CODEGEN--\":3154:3186   */\n      slt\n        /* \"--CODEGEN--\":3151:3153   */\n      iszero\n      tag_360\n      jumpi\n      dup1\n      dup2\n        /* \"--CODEGEN--\":3189:3201   */\n      revert\n        /* \"--CODEGEN--\":3151:3153   */\n    tag_360:\n        /* \"--CODEGEN--\":1112:1118   */\n      dup2\n        /* \"--CODEGEN--\":1106:1119   */\n      mload\n        /* \"--CODEGEN--\":34278:34283   */\n      dup1\n        /* \"--CODEGEN--\":31705:31718   */\n      iszero\n        /* \"--CODEGEN--\":31698:31719   */\n      iszero\n        /* \"--CODEGEN--\":34256:34261   */\n      dup2\n        /* \"--CODEGEN--\":34253:34285   */\n      eq\n        /* \"--CODEGEN--\":34243:34245   */\n      tag_187\n      jumpi\n      dup2\n      dup3\n        /* \"--CODEGEN--\":34289:34301   */\n      revert\n        /* \"--CODEGEN--\":3335:3695   */\n    tag_273:\n      0x00\n        /* \"--CODEGEN--\":3459:3461   */\n      0x20\n        /* \"--CODEGEN--\":3447:3456   */\n      dup3\n        /* \"--CODEGEN--\":3438:3445   */\n      dup5\n        /* \"--CODEGEN--\":3434:3457   */\n      sub\n        /* \"--CODEGEN--\":3430:3462   */\n      slt\n        /* \"--CODEGEN--\":3427:3429   */\n      iszero\n      tag_363\n      jumpi\n      dup1\n      dup2\n        /* \"--CODEGEN--\":3465:3477   */\n      revert\n        /* \"--CODEGEN--\":3427:3429   */\n    tag_363:\n        /* \"--CODEGEN--\":3516:3533   */\n      dup2\n        /* \"--CODEGEN--\":3510:3534   */\n      mload\n        /* \"--CODEGEN--\":3554:3572   */\n      0xffffffffffffffff\n      dup1\n        /* \"--CODEGEN--\":3546:3552   */\n      dup3\n        /* \"--CODEGEN--\":3543:3573   */\n      gt\n        /* \"--CODEGEN--\":3540:3542   */\n      iszero\n      tag_364\n      jumpi\n      dup3\n      dup4\n        /* \"--CODEGEN--\":3576:3588   */\n      revert\n        /* \"--CODEGEN--\":3540:3542   */\n    tag_364:\n        /* \"--CODEGEN--\":3662:3668   */\n      dup2\n        /* \"--CODEGEN--\":3651:3660   */\n      dup5\n        /* \"--CODEGEN--\":3647:3669   */\n      add\n        /* \"--CODEGEN--\":1279:1282   */\n      dup6\n        /* \"--CODEGEN--\":1272:1276   */\n      0x1f\n        /* \"--CODEGEN--\":1264:1270   */\n      dup3\n        /* \"--CODEGEN--\":1260:1277   */\n      add\n        /* \"--CODEGEN--\":1256:1283   */\n      slt\n        /* \"--CODEGEN--\":1246:1248   */\n      tag_365\n      jumpi\n      dup4\n      dup5\n        /* \"--CODEGEN--\":1287:1299   */\n      revert\n        /* \"--CODEGEN--\":1246:1248   */\n    tag_365:\n        /* \"--CODEGEN--\":1327:1333   */\n      dup1\n        /* \"--CODEGEN--\":1321:1334   */\n      mload\n        /* \"--CODEGEN--\":1307:1334   */\n      swap3\n      pop\n        /* \"--CODEGEN--\":3554:3572   */\n      dup2\n        /* \"--CODEGEN--\":29387:29393   */\n      dup4\n        /* \"--CODEGEN--\":29384:29414   */\n      gt\n        /* \"--CODEGEN--\":29381:29383   */\n      iszero\n      tag_366\n      jumpi\n      dup4\n      dup5\n        /* \"--CODEGEN--\":29417:29429   */\n      revert\n        /* \"--CODEGEN--\":29381:29383   */\n    tag_366:\n        /* \"--CODEGEN--\":1349:1413   */\n      tag_367\n        /* \"--CODEGEN--\":29490:29499   */\n      0x1f\n        /* \"--CODEGEN--\":29471:29488   */\n      dup5\n      add\n      not(0x1f)\n        /* \"--CODEGEN--\":29467:29500   */\n      and\n        /* \"--CODEGEN--\":3459:3461   */\n      0x20\n        /* \"--CODEGEN--\":29548:29563   */\n      add\n        /* \"--CODEGEN--\":1349:1413   */\n      jump(tag_353)\n    tag_367:\n        /* \"--CODEGEN--\":1340:1413   */\n      swap2\n      pop\n        /* \"--CODEGEN--\":1433:1439   */\n      dup3\n        /* \"--CODEGEN--\":1426:1431   */\n      dup3\n        /* \"--CODEGEN--\":1419:1440   */\n      mstore\n        /* \"--CODEGEN--\":1537:1540   */\n      dup6\n        /* \"--CODEGEN--\":3459:3461   */\n      0x20\n        /* \"--CODEGEN--\":1528:1534   */\n      dup5\n        /* \"--CODEGEN--\":1461:1467   */\n      dup4\n        /* \"--CODEGEN--\":1519:1535   */\n      add\n      add\n        /* \"--CODEGEN--\":1516:1541   */\n      gt\n        /* \"--CODEGEN--\":1513:1515   */\n      iszero\n      tag_368\n      jumpi\n      dup4\n      dup5\n        /* \"--CODEGEN--\":1544:1556   */\n      revert\n        /* \"--CODEGEN--\":1513:1515   */\n    tag_368:\n        /* \"--CODEGEN--\":1564:1603   */\n      tag_369\n        /* \"--CODEGEN--\":1596:1602   */\n      dup4\n        /* \"--CODEGEN--\":3459:3461   */\n      0x20\n        /* \"--CODEGEN--\":1495:1500   */\n      dup5\n        /* \"--CODEGEN--\":1491:1507   */\n      add\n        /* \"--CODEGEN--\":3459:3461   */\n      0x20\n        /* \"--CODEGEN--\":1461:1467   */\n      dup5\n        /* \"--CODEGEN--\":1457:1474   */\n      add\n        /* \"--CODEGEN--\":1564:1603   */\n      jump(tag_370)\n    tag_369:\n      pop\n        /* \"--CODEGEN--\":3596:3679   */\n      swap5\n        /* \"--CODEGEN--\":3421:3695   */\n      swap4\n      pop\n      pop\n      pop\n      pop\n      jump\n        /* \"--CODEGEN--\":3702:3979   */\n    tag_32:\n      0x00\n        /* \"--CODEGEN--\":3824:3826   */\n      0x20\n        /* \"--CODEGEN--\":3812:3821   */\n      dup3\n        /* \"--CODEGEN--\":3803:3810   */\n      dup5\n        /* \"--CODEGEN--\":3799:3822   */\n      sub\n        /* \"--CODEGEN--\":3795:3827   */\n      slt\n        /* \"--CODEGEN--\":3792:3794   */\n      iszero\n      tag_372\n      jumpi\n      dup1\n      dup2\n        /* \"--CODEGEN--\":3830:3842   */\n      revert\n        /* \"--CODEGEN--\":3792:3794   */\n    tag_372:\n        /* \"--CODEGEN--\":1910:1916   */\n      dup2\n        /* \"--CODEGEN--\":1897:1917   */\n      calldataload\n        /* \"--CODEGEN--\":1922:1973   */\n      tag_187\n        /* \"--CODEGEN--\":1967:1972   */\n      dup2\n        /* \"--CODEGEN--\":1922:1973   */\n      jump(tag_343)\n        /* \"--CODEGEN--\":3986:4446   */\n    tag_13:\n      0x00\n      dup1\n        /* \"--CODEGEN--\":4154:4156   */\n      0x40\n        /* \"--CODEGEN--\":4142:4151   */\n      dup4\n        /* \"--CODEGEN--\":4133:4140   */\n      dup6\n        /* \"--CODEGEN--\":4129:4152   */\n      sub\n        /* \"--CODEGEN--\":4125:4157   */\n      slt\n        /* \"--CODEGEN--\":4122:4124   */\n      iszero\n      tag_375\n      jumpi\n      dup1\n      dup2\n        /* \"--CODEGEN--\":4160:4172   */\n      revert\n        /* \"--CODEGEN--\":4122:4124   */\n    tag_375:\n        /* \"--CODEGEN--\":1910:1916   */\n      dup3\n        /* \"--CODEGEN--\":1897:1917   */\n      calldataload\n        /* \"--CODEGEN--\":1922:1973   */\n      tag_376\n        /* \"--CODEGEN--\":1967:1972   */\n      dup2\n        /* \"--CODEGEN--\":1922:1973   */\n      jump(tag_343)\n    tag_376:\n        /* \"--CODEGEN--\":4212:4293   */\n      swap2\n      pop\n        /* \"--CODEGEN--\":4330:4332   */\n      0x20\n        /* \"--CODEGEN--\":4398:4420   */\n      dup4\n      add\n        /* \"--CODEGEN--\":1713:1733   */\n      calldataload\n        /* \"--CODEGEN--\":1738:1800   */\n      tag_377\n        /* \"--CODEGEN--\":1713:1733   */\n      dup2\n        /* \"--CODEGEN--\":1738:1800   */\n      jump(tag_343)\n    tag_377:\n        /* \"--CODEGEN--\":4338:4430   */\n      dup1\n      swap2\n      pop\n      pop\n        /* \"--CODEGEN--\":4116:4446   */\n      swap3\n      pop\n      swap3\n      swap1\n      pop\n      jump\n        /* \"--CODEGEN--\":4453:4855   */\n    tag_24:\n      0x00\n      dup1\n        /* \"--CODEGEN--\":4592:4594   */\n      0x40\n        /* \"--CODEGEN--\":4580:4589   */\n      dup4\n        /* \"--CODEGEN--\":4571:4578   */\n      dup6\n        /* \"--CODEGEN--\":4567:4590   */\n      sub\n        /* \"--CODEGEN--\":4563:4595   */\n      slt\n        /* \"--CODEGEN--\":4560:4562   */\n      iszero\n      tag_379\n      jumpi\n      dup2\n      dup3\n        /* \"--CODEGEN--\":4598:4610   */\n      revert\n        /* \"--CODEGEN--\":4560:4562   */\n    tag_379:\n        /* \"--CODEGEN--\":1910:1916   */\n      dup3\n        /* \"--CODEGEN--\":1897:1917   */\n      calldataload\n        /* \"--CODEGEN--\":1922:1973   */\n      tag_380\n        /* \"--CODEGEN--\":1967:1972   */\n      dup2\n        /* \"--CODEGEN--\":1922:1973   */\n      jump(tag_343)\n    tag_380:\n        /* \"--CODEGEN--\":4650:4731   */\n      swap5\n        /* \"--CODEGEN--\":4768:4770   */\n      0x20\n        /* \"--CODEGEN--\":4807:4829   */\n      swap4\n      swap1\n      swap4\n      add\n        /* \"--CODEGEN--\":2191:2211   */\n      calldataload\n      swap4\n      pop\n      pop\n      pop\n        /* \"--CODEGEN--\":4554:4855   */\n      jump\n        /* \"--CODEGEN--\":4862:5389   */\n    tag_17:\n      0x00\n      dup1\n      0x00\n        /* \"--CODEGEN--\":5018:5020   */\n      0x60\n        /* \"--CODEGEN--\":5006:5015   */\n      dup5\n        /* \"--CODEGEN--\":4997:5004   */\n      dup7\n        /* \"--CODEGEN--\":4993:5016   */\n      sub\n        /* \"--CODEGEN--\":4989:5021   */\n      slt\n        /* \"--CODEGEN--\":4986:4988   */\n      iszero\n      tag_382\n      jumpi\n      dup1\n      dup2\n        /* \"--CODEGEN--\":5024:5036   */\n      revert\n        /* \"--CODEGEN--\":4986:4988   */\n    tag_382:\n        /* \"--CODEGEN--\":1910:1916   */\n      dup4\n        /* \"--CODEGEN--\":1897:1917   */\n      calldataload\n        /* \"--CODEGEN--\":1922:1973   */\n      tag_383\n        /* \"--CODEGEN--\":1967:1972   */\n      dup2\n        /* \"--CODEGEN--\":1922:1973   */\n      jump(tag_343)\n    tag_383:\n        /* \"--CODEGEN--\":5076:5157   */\n      swap3\n      pop\n        /* \"--CODEGEN--\":5194:5196   */\n      0x20\n        /* \"--CODEGEN--\":5233:5255   */\n      dup5\n      add\n        /* \"--CODEGEN--\":2191:2211   */\n      calldataload\n      swap2\n      pop\n        /* \"--CODEGEN--\":5302:5304   */\n      0x40\n        /* \"--CODEGEN--\":5341:5363   */\n      dup5\n      add\n        /* \"--CODEGEN--\":72:92   */\n      calldataload\n        /* \"--CODEGEN--\":97:130   */\n      tag_384\n        /* \"--CODEGEN--\":72:92   */\n      dup2\n        /* \"--CODEGEN--\":97:130   */\n      jump(tag_343)\n    tag_384:\n        /* \"--CODEGEN--\":5310:5373   */\n      dup1\n      swap2\n      pop\n      pop\n        /* \"--CODEGEN--\":4980:5389   */\n      swap3\n      pop\n      swap3\n      pop\n      swap3\n      jump\n        /* \"--CODEGEN--\":5396:5657   */\n    tag_87:\n      0x00\n        /* \"--CODEGEN--\":5510:5512   */\n      0x20\n        /* \"--CODEGEN--\":5498:5507   */\n      dup3\n        /* \"--CODEGEN--\":5489:5496   */\n      dup5\n        /* \"--CODEGEN--\":5485:5508   */\n      sub\n        /* \"--CODEGEN--\":5481:5513   */\n      slt\n        /* \"--CODEGEN--\":5478:5480   */\n      iszero\n      tag_386\n      jumpi\n      dup1\n      dup2\n        /* \"--CODEGEN--\":5516:5528   */\n      revert\n        /* \"--CODEGEN--\":5478:5480   */\n    tag_386:\n      pop\n        /* \"--CODEGEN--\":2062:2075   */\n      mload\n      swap2\n        /* \"--CODEGEN--\":5472:5657   */\n      swap1\n      pop\n      jump\n        /* \"--CODEGEN--\":6117:6290   */\n    tag_389:\n        /* \"--CODEGEN--\":16353:16390   */\n      dup2\n      mstore\n        /* \"--CODEGEN--\":6279:6283   */\n      0x20\n        /* \"--CODEGEN--\":6270:6284   */\n      add\n      swap1\n        /* \"--CODEGEN--\":6197:6290   */\n      jump\n        /* \"--CODEGEN--\":6447:6550   */\n    tag_391:\n      sub(shl(0xa0, 0x01), 0x01)\n        /* \"--CODEGEN--\":32114:32168   */\n      and\n        /* \"--CODEGEN--\":6508:6545   */\n      swap1\n      mstore\n        /* \"--CODEGEN--\":6502:6550   */\n      jump\n        /* \"--CODEGEN--\":8135:8478   */\n    tag_393:\n      0x00\n        /* \"--CODEGEN--\":8277:8282   */\n      dup2\n        /* \"--CODEGEN--\":29999:30011   */\n      mload\n        /* \"--CODEGEN--\":30802:30808   */\n      dup1\n        /* \"--CODEGEN--\":30797:30800   */\n      dup5\n        /* \"--CODEGEN--\":30790:30809   */\n      mstore\n        /* \"--CODEGEN--\":8370:8422   */\n      tag_395\n        /* \"--CODEGEN--\":8415:8421   */\n      dup2\n        /* \"--CODEGEN--\":30839:30843   */\n      0x20\n        /* \"--CODEGEN--\":30834:30837   */\n      dup7\n        /* \"--CODEGEN--\":30830:30844   */\n      add\n        /* \"--CODEGEN--\":30839:30843   */\n      0x20\n        /* \"--CODEGEN--\":8396:8401   */\n      dup7\n        /* \"--CODEGEN--\":8392:8408   */\n      add\n        /* \"--CODEGEN--\":8370:8422   */\n      jump(tag_370)\n    tag_395:\n        /* \"--CODEGEN--\":29490:29499   */\n      0x1f\n        /* \"--CODEGEN--\":34036:34050   */\n      add\n      not(0x1f)\n        /* \"--CODEGEN--\":34032:34060   */\n      and\n        /* \"--CODEGEN--\":8434:8473   */\n      swap3\n      swap1\n      swap3\n      add\n        /* \"--CODEGEN--\":30839:30843   */\n      0x20\n        /* \"--CODEGEN--\":8434:8473   */\n      add\n      swap3\n        /* \"--CODEGEN--\":8225:8478   */\n      swap2\n      pop\n      pop\n      jump\n        /* \"--CODEGEN--\":16522:16793   */\n    tag_325:\n      0x00\n        /* \"--CODEGEN--\":8645:8650   */\n      dup3\n        /* \"--CODEGEN--\":29999:30011   */\n      mload\n        /* \"--CODEGEN--\":8756:8808   */\n      tag_397\n        /* \"--CODEGEN--\":8801:8807   */\n      dup2\n        /* \"--CODEGEN--\":8796:8799   */\n      dup5\n        /* \"--CODEGEN--\":8789:8793   */\n      0x20\n        /* \"--CODEGEN--\":8782:8787   */\n      dup8\n        /* \"--CODEGEN--\":8778:8794   */\n      add\n        /* \"--CODEGEN--\":8756:8808   */\n      jump(tag_370)\n    tag_397:\n        /* \"--CODEGEN--\":8820:8836   */\n      swap2\n      swap1\n      swap2\n      add\n      swap3\n        /* \"--CODEGEN--\":16656:16793   */\n      swap2\n      pop\n      pop\n      jump\n        /* \"--CODEGEN--\":16800:17022   */\n    tag_82:\n      sub(shl(0xa0, 0x01), 0x01)\n        /* \"--CODEGEN--\":32114:32168   */\n      swap2\n      swap1\n      swap2\n      and\n        /* \"--CODEGEN--\":6508:6545   */\n      dup2\n      mstore\n        /* \"--CODEGEN--\":16927:16929   */\n      0x20\n        /* \"--CODEGEN--\":16912:16930   */\n      add\n      swap1\n        /* \"--CODEGEN--\":16898:17022   */\n      jump\n        /* \"--CODEGEN--\":17029:17378   */\n    tag_62:\n      sub(shl(0xa0, 0x01), 0x01)\n        /* \"--CODEGEN--\":32114:32168   */\n      swap3\n      swap1\n      swap3\n      and\n        /* \"--CODEGEN--\":6377:6435   */\n      dup3\n      mstore\n        /* \"--CODEGEN--\":17364:17366   */\n      0x20\n        /* \"--CODEGEN--\":17349:17367   */\n      dup3\n      add\n        /* \"--CODEGEN--\":16353:16390   */\n      mstore\n        /* \"--CODEGEN--\":17192:17194   */\n      0x40\n        /* \"--CODEGEN--\":17177:17195   */\n      add\n      swap1\n        /* \"--CODEGEN--\":17163:17378   */\n      jump\n        /* \"--CODEGEN--\":17385:17829   */\n    tag_302:\n      sub(shl(0xa0, 0x01), 0x01)\n        /* \"--CODEGEN--\":32114:32168   */\n      swap4\n      dup5\n      and\n        /* \"--CODEGEN--\":6508:6545   */\n      dup2\n      mstore\n        /* \"--CODEGEN--\":32114:32168   */\n      swap2\n      swap1\n      swap3\n      and\n        /* \"--CODEGEN--\":17732:17734   */\n      0x20\n        /* \"--CODEGEN--\":17717:17735   */\n      dup3\n      add\n        /* \"--CODEGEN--\":6508:6545   */\n      mstore\n        /* \"--CODEGEN--\":17815:17817   */\n      0x40\n        /* \"--CODEGEN--\":17800:17818   */\n      dup2\n      add\n        /* \"--CODEGEN--\":16353:16390   */\n      swap2\n      swap1\n      swap2\n      mstore\n        /* \"--CODEGEN--\":17568:17570   */\n      0x60\n        /* \"--CODEGEN--\":17553:17571   */\n      add\n      swap1\n        /* \"--CODEGEN--\":17539:17829   */\n      jump\n        /* \"--CODEGEN--\":17836:18380   */\n    tag_268:\n      0x00\n        /* \"--CODEGEN--\":2907:2925   */\n      0x01\n      dup1\n        /* \"--CODEGEN--\":32125:32167   */\n      0xa0\n      shl\n      sub\n        /* \"--CODEGEN--\":31621:31626   */\n      dup6\n        /* \"--CODEGEN--\":32114:32168   */\n      and\n        /* \"--CODEGEN--\":6515:6518   */\n      dup3\n        /* \"--CODEGEN--\":6508:6545   */\n      mstore\n        /* \"--CODEGEN--\":33412:33436   */\n      dup4\n        /* \"--CODEGEN--\":18217:18219   */\n      0x20\n        /* \"--CODEGEN--\":18206:18215   */\n      dup4\n        /* \"--CODEGEN--\":18202:18220   */\n      add\n        /* \"--CODEGEN--\":9460:9518   */\n      mstore\n        /* \"--CODEGEN--\":18045:18047   */\n      0x60\n        /* \"--CODEGEN--\":18254:18256   */\n      0x40\n        /* \"--CODEGEN--\":18243:18252   */\n      dup4\n        /* \"--CODEGEN--\":18239:18257   */\n      add\n        /* \"--CODEGEN--\":18232:18280   */\n      mstore\n        /* \"--CODEGEN--\":18294:18370   */\n      tag_402\n        /* \"--CODEGEN--\":18045:18047   */\n      0x60\n        /* \"--CODEGEN--\":18034:18043   */\n      dup4\n        /* \"--CODEGEN--\":18030:18048   */\n      add\n        /* \"--CODEGEN--\":18356:18362   */\n      dup5\n        /* \"--CODEGEN--\":18294:18370   */\n      jump(tag_393)\n    tag_402:\n        /* \"--CODEGEN--\":18286:18370   */\n      swap6\n        /* \"--CODEGEN--\":18016:18380   */\n      swap5\n      pop\n      pop\n      pop\n      pop\n      pop\n      jump\n        /* \"--CODEGEN--\":18727:19356   */\n    tag_27:\n        /* \"--CODEGEN--\":18982:18984   */\n      0x40\n        /* \"--CODEGEN--\":18996:19043   */\n      dup1\n      dup3\n      mstore\n        /* \"--CODEGEN--\":29999:30011   */\n      dup4\n      mload\n        /* \"--CODEGEN--\":18967:18985   */\n      swap1\n      dup3\n      add\n        /* \"--CODEGEN--\":30790:30809   */\n      dup2\n      swap1\n      mstore\n        /* \"--CODEGEN--\":18727:19356   */\n      0x00\n      swap1\n        /* \"--CODEGEN--\":30839:30843   */\n      0x20\n      swap1\n        /* \"--CODEGEN--\":30830:30844   */\n      0x60\n      dup5\n      add\n      swap1\n        /* \"--CODEGEN--\":29695:29709   */\n      dup3\n      dup8\n      add\n        /* \"--CODEGEN--\":18727:19356   */\n      dup5\n        /* \"--CODEGEN--\":7116:7376   */\n    tag_405:\n        /* \"--CODEGEN--\":7141:7147   */\n      dup3\n        /* \"--CODEGEN--\":7138:7139   */\n      dup2\n        /* \"--CODEGEN--\":7135:7148   */\n      lt\n        /* \"--CODEGEN--\":7116:7376   */\n      iszero\n      tag_407\n      jumpi\n        /* \"--CODEGEN--\":6022:6068   */\n      tag_408\n        /* \"--CODEGEN--\":6064:6067   */\n      dup5\n        /* \"--CODEGEN--\":7208:7214   */\n      dup4\n        /* \"--CODEGEN--\":7202:7215   */\n      mload\n        /* \"--CODEGEN--\":6022:6068   */\n      jump(tag_391)\n    tag_408:\n        /* \"--CODEGEN--\":6088:6102   */\n      swap3\n      dup5\n      add\n      swap3\n        /* \"--CODEGEN--\":30530:30544   */\n      swap1\n      dup5\n      add\n      swap1\n        /* \"--CODEGEN--\":7163:7164   */\n      0x01\n        /* \"--CODEGEN--\":7156:7165   */\n      add\n        /* \"--CODEGEN--\":7116:7376   */\n      jump(tag_405)\n    tag_407:\n        /* \"--CODEGEN--\":7120:7134   */\n      pop\n      pop\n      pop\n        /* \"--CODEGEN--\":19213:19222   */\n      dup4\n        /* \"--CODEGEN--\":19207:19211   */\n      dup2\n        /* \"--CODEGEN--\":19203:19223   */\n      sub\n        /* \"--CODEGEN--\":30839:30843   */\n      dup3\n        /* \"--CODEGEN--\":19187:19196   */\n      dup6\n        /* \"--CODEGEN--\":19183:19201   */\n      add\n        /* \"--CODEGEN--\":19176:19224   */\n      mstore\n        /* \"--CODEGEN--\":19238:19346   */\n      dup1\n        /* \"--CODEGEN--\":7630:7635   */\n      dup6\n        /* \"--CODEGEN--\":29999:30011   */\n      mload\n        /* \"--CODEGEN--\":7649:7735   */\n      tag_409\n        /* \"--CODEGEN--\":7728:7734   */\n      dup2\n        /* \"--CODEGEN--\":7723:7726   */\n      dup5\n        /* \"--CODEGEN--\":7649:7735   */\n      jump(tag_94)\n    tag_409:\n        /* \"--CODEGEN--\":7642:7735   */\n      swap2\n      pop\n        /* \"--CODEGEN--\":30839:30843   */\n      dup4\n        /* \"--CODEGEN--\":7806:7811   */\n      dup8\n        /* \"--CODEGEN--\":29695:29709   */\n      add\n        /* \"--CODEGEN--\":7818:7839   */\n      swap3\n      pop\n      dup5\n        /* \"--CODEGEN--\":7845:8105   */\n    tag_411:\n        /* \"--CODEGEN--\":7870:7876   */\n      dup2\n        /* \"--CODEGEN--\":7867:7868   */\n      dup2\n        /* \"--CODEGEN--\":7864:7877   */\n      lt\n        /* \"--CODEGEN--\":7845:8105   */\n      iszero\n      tag_413\n      jumpi\n        /* \"--CODEGEN--\":7958:8021   */\n      tag_414\n        /* \"--CODEGEN--\":8017:8020   */\n      dup4\n        /* \"--CODEGEN--\":7937:7943   */\n      dup6\n        /* \"--CODEGEN--\":7931:7944   */\n      mload\n        /* \"--CODEGEN--\":7958:8021   */\n      jump(tag_389)\n    tag_414:\n        /* \"--CODEGEN--\":30530:30544   */\n      swap4\n      dup6\n      add\n      swap4\n        /* \"--CODEGEN--\":7951:8021   */\n      swap3\n      pop\n        /* \"--CODEGEN--\":7163:7164   */\n      0x01\n        /* \"--CODEGEN--\":7885:7894   */\n      add\n        /* \"--CODEGEN--\":7845:8105   */\n      jump(tag_411)\n    tag_413:\n      pop\n        /* \"--CODEGEN--\":19230:19346   */\n      swap1\n      swap8\n        /* \"--CODEGEN--\":18953:19356   */\n      swap7\n      pop\n      pop\n      pop\n      pop\n      pop\n      pop\n      pop\n      jump\n        /* \"--CODEGEN--\":19919:20511   */\n    tag_214:\n      sub(shl(0xa0, 0x01), 0x01)\n        /* \"--CODEGEN--\":32114:32168   */\n      swap5\n      dup6\n      and\n        /* \"--CODEGEN--\":8939:9009   */\n      dup2\n      mstore\n        /* \"--CODEGEN--\":20331:20333   */\n      0x20\n        /* \"--CODEGEN--\":20316:20334   */\n      dup2\n      add\n        /* \"--CODEGEN--\":16353:16390   */\n      swap4\n      swap1\n      swap4\n      mstore\n        /* \"--CODEGEN--\":32114:32168   */\n      swap1\n      dup4\n      and\n        /* \"--CODEGEN--\":20414:20416   */\n      0x40\n        /* \"--CODEGEN--\":20399:20417   */\n      dup4\n      add\n        /* \"--CODEGEN--\":6508:6545   */\n      mstore\n        /* \"--CODEGEN--\":32114:32168   */\n      swap1\n      swap2\n      and\n        /* \"--CODEGEN--\":20497:20499   */\n      0x60\n        /* \"--CODEGEN--\":20482:20500   */\n      dup3\n      add\n        /* \"--CODEGEN--\":6508:6545   */\n      mstore\n        /* \"--CODEGEN--\":20148:20151   */\n      0x80\n        /* \"--CODEGEN--\":20133:20152   */\n      add\n      swap1\n        /* \"--CODEGEN--\":20119:20511   */\n      jump\n        /* \"--CODEGEN--\":20518:20828   */\n    tag_338:\n      0x00\n        /* \"--CODEGEN--\":20665:20667   */\n      0x20\n        /* \"--CODEGEN--\":20686:20703   */\n      dup3\n        /* \"--CODEGEN--\":20679:20726   */\n      mstore\n        /* \"--CODEGEN--\":20740:20818   */\n      tag_187\n        /* \"--CODEGEN--\":20665:20667   */\n      0x20\n        /* \"--CODEGEN--\":20654:20663   */\n      dup4\n        /* \"--CODEGEN--\":20650:20668   */\n      add\n        /* \"--CODEGEN--\":20804:20810   */\n      dup5\n        /* \"--CODEGEN--\":20740:20818   */\n      jump(tag_393)\n        /* \"--CODEGEN--\":20835:21251   */\n    tag_175:\n        /* \"--CODEGEN--\":21035:21037   */\n      0x20\n        /* \"--CODEGEN--\":21049:21096   */\n      dup1\n      dup3\n      mstore\n        /* \"--CODEGEN--\":10109:10111   */\n      0x28\n        /* \"--CODEGEN--\":21020:21038   */\n      swap1\n      dup3\n      add\n        /* \"--CODEGEN--\":30790:30809   */\n      mstore\n        /* \"--CODEGEN--\":10145:10179   */\n      0x4d75737420626520612076616c696420616e6420696e697469616c697a656420\n        /* \"--CODEGEN--\":30830:30844   */\n      0x40\n      dup3\n      add\n        /* \"--CODEGEN--\":10125:10180   */\n      mstore\n      shl(0xc1, 0x29b2ba2a37b5b2b7)\n        /* \"--CODEGEN--\":10200:10212   */\n      0x60\n      dup3\n      add\n        /* \"--CODEGEN--\":10193:10225   */\n      mstore\n        /* \"--CODEGEN--\":10244:10256   */\n      0x80\n      add\n      swap1\n        /* \"--CODEGEN--\":21006:21251   */\n      jump\n        /* \"--CODEGEN--\":21258:21674   */\n    tag_60:\n        /* \"--CODEGEN--\":21458:21460   */\n      0x20\n        /* \"--CODEGEN--\":21472:21519   */\n      dup1\n      dup3\n      mstore\n        /* \"--CODEGEN--\":10495:10497   */\n      0x1b\n        /* \"--CODEGEN--\":21443:21461   */\n      swap1\n      dup3\n      add\n        /* \"--CODEGEN--\":30790:30809   */\n      mstore\n        /* \"--CODEGEN--\":10531:10560   */\n      0x52656465656d207175616e74697479206d757374206265203e20300000000000\n        /* \"--CODEGEN--\":30830:30844   */\n      0x40\n      dup3\n      add\n        /* \"--CODEGEN--\":10511:10561   */\n      mstore\n        /* \"--CODEGEN--\":10580:10592   */\n      0x60\n      add\n      swap1\n        /* \"--CODEGEN--\":21429:21674   */\n      jump\n        /* \"--CODEGEN--\":21681:22097   */\n    tag_298:\n        /* \"--CODEGEN--\":21881:21883   */\n      0x20\n        /* \"--CODEGEN--\":21895:21942   */\n      dup1\n      dup3\n      mstore\n        /* \"--CODEGEN--\":10831:10833   */\n      0x1b\n        /* \"--CODEGEN--\":21866:21884   */\n      swap1\n      dup3\n      add\n        /* \"--CODEGEN--\":30790:30809   */\n      mstore\n        /* \"--CODEGEN--\":10867:10896   */\n      0x536166654d6174683a206164646974696f6e206f766572666c6f770000000000\n        /* \"--CODEGEN--\":30830:30844   */\n      0x40\n      dup3\n      add\n        /* \"--CODEGEN--\":10847:10897   */\n      mstore\n        /* \"--CODEGEN--\":10916:10928   */\n      0x60\n      add\n      swap1\n        /* \"--CODEGEN--\":21852:22097   */\n      jump\n        /* \"--CODEGEN--\":22104:22520   */\n    tag_148:\n        /* \"--CODEGEN--\":22304:22306   */\n      0x20\n        /* \"--CODEGEN--\":22318:22365   */\n      dup1\n      dup3\n      mstore\n        /* \"--CODEGEN--\":11167:11169   */\n      0x30\n        /* \"--CODEGEN--\":22289:22307   */\n      swap1\n      dup3\n      add\n        /* \"--CODEGEN--\":30790:30809   */\n      mstore\n        /* \"--CODEGEN--\":11203:11237   */\n      0x54686520426173696349737375616e63654d6f64756c65206d6f64756c652063\n        /* \"--CODEGEN--\":30830:30844   */\n      0x40\n      dup3\n      add\n        /* \"--CODEGEN--\":11183:11238   */\n      mstore\n      shl(0x82, 0x185b9b9bdd081899481c995b5bdd9959)\n        /* \"--CODEGEN--\":11258:11270   */\n      0x60\n      dup3\n      add\n        /* \"--CODEGEN--\":11251:11291   */\n      mstore\n        /* \"--CODEGEN--\":11310:11322   */\n      0x80\n      add\n      swap1\n        /* \"--CODEGEN--\":22275:22520   */\n      jump\n        /* \"--CODEGEN--\":22527:22943   */\n    tag_79:\n        /* \"--CODEGEN--\":22727:22729   */\n      0x20\n        /* \"--CODEGEN--\":22741:22788   */\n      dup1\n      dup3\n      mstore\n        /* \"--CODEGEN--\":11561:11563   */\n      0x24\n        /* \"--CODEGEN--\":22712:22730   */\n      swap1\n      dup3\n      add\n        /* \"--CODEGEN--\":30790:30809   */\n      mstore\n        /* \"--CODEGEN--\":11597:11631   */\n      0x4f6e6c792064656661756c7420706f736974696f6e732061726520737570706f\n        /* \"--CODEGEN--\":30830:30844   */\n      0x40\n      dup3\n      add\n        /* \"--CODEGEN--\":11577:11632   */\n      mstore\n      shl(0xe2, 0x1c9d1959)\n        /* \"--CODEGEN--\":11652:11664   */\n      0x60\n      dup3\n      add\n        /* \"--CODEGEN--\":11645:11673   */\n      mstore\n        /* \"--CODEGEN--\":11692:11704   */\n      0x80\n      add\n      swap1\n        /* \"--CODEGEN--\":22698:22943   */\n      jump\n        /* \"--CODEGEN--\":22950:23366   */\n    tag_169:\n        /* \"--CODEGEN--\":23150:23152   */\n      0x20\n        /* \"--CODEGEN--\":23164:23211   */\n      dup1\n      dup3\n      mstore\n        /* \"--CODEGEN--\":11943:11945   */\n      0x1e\n        /* \"--CODEGEN--\":23135:23153   */\n      swap1\n      dup3\n      add\n        /* \"--CODEGEN--\":30790:30809   */\n      mstore\n        /* \"--CODEGEN--\":11979:12011   */\n      0x4d7573742062652070656e64696e6720696e697469616c697a6174696f6e0000\n        /* \"--CODEGEN--\":30830:30844   */\n      0x40\n      dup3\n      add\n        /* \"--CODEGEN--\":11959:12012   */\n      mstore\n        /* \"--CODEGEN--\":12031:12043   */\n      0x60\n      add\n      swap1\n        /* \"--CODEGEN--\":23121:23366   */\n      jump\n        /* \"--CODEGEN--\":23373:23789   */\n    tag_103:\n        /* \"--CODEGEN--\":23573:23575   */\n      0x20\n        /* \"--CODEGEN--\":23587:23634   */\n      dup1\n      dup3\n      mstore\n        /* \"--CODEGEN--\":12282:12284   */\n      0x1a\n        /* \"--CODEGEN--\":23558:23576   */\n      swap1\n      dup3\n      add\n        /* \"--CODEGEN--\":30790:30809   */\n      mstore\n        /* \"--CODEGEN--\":12318:12346   */\n      0x4973737565207175616e74697479206d757374206265203e2030000000000000\n        /* \"--CODEGEN--\":30830:30844   */\n      0x40\n      dup3\n      add\n        /* \"--CODEGEN--\":12298:12347   */\n      mstore\n        /* \"--CODEGEN--\":12366:12378   */\n      0x60\n      add\n      swap1\n        /* \"--CODEGEN--\":23544:23789   */\n      jump\n        /* \"--CODEGEN--\":23796:24212   */\n    tag_277:\n        /* \"--CODEGEN--\":23996:23998   */\n      0x20\n        /* \"--CODEGEN--\":24010:24057   */\n      dup1\n      dup3\n      mstore\n        /* \"--CODEGEN--\":12617:12619   */\n      0x1e\n        /* \"--CODEGEN--\":23981:23999   */\n      swap1\n      dup3\n      add\n        /* \"--CODEGEN--\":30790:30809   */\n      mstore\n        /* \"--CODEGEN--\":12653:12685   */\n      0x536166654d6174683a207375627472616374696f6e206f766572666c6f770000\n        /* \"--CODEGEN--\":30830:30844   */\n      0x40\n      dup3\n      add\n        /* \"--CODEGEN--\":12633:12686   */\n      mstore\n        /* \"--CODEGEN--\":12705:12717   */\n      0x60\n      add\n      swap1\n        /* \"--CODEGEN--\":23967:24212   */\n      jump\n        /* \"--CODEGEN--\":24642:25058   */\n    tag_262:\n        /* \"--CODEGEN--\":24842:24844   */\n      0x20\n        /* \"--CODEGEN--\":24856:24903   */\n      dup1\n      dup3\n      mstore\n        /* \"--CODEGEN--\":13340:13342   */\n      0x1a\n        /* \"--CODEGEN--\":24827:24845   */\n      swap1\n      dup3\n      add\n        /* \"--CODEGEN--\":30790:30809   */\n      mstore\n        /* \"--CODEGEN--\":13376:13404   */\n      0x536166654d6174683a206469766973696f6e206279207a65726f000000000000\n        /* \"--CODEGEN--\":30830:30844   */\n      0x40\n      dup3\n      add\n        /* \"--CODEGEN--\":13356:13405   */\n      mstore\n        /* \"--CODEGEN--\":13424:13436   */\n      0x60\n      add\n      swap1\n        /* \"--CODEGEN--\":24813:25058   */\n      jump\n        /* \"--CODEGEN--\":25065:25481   */\n    tag_185:\n        /* \"--CODEGEN--\":25265:25267   */\n      0x20\n        /* \"--CODEGEN--\":25279:25326   */\n      dup1\n      dup3\n      mstore\n        /* \"--CODEGEN--\":25250:25268   */\n      dup2\n      dup2\n      add\n        /* \"--CODEGEN--\":30790:30809   */\n      mstore\n        /* \"--CODEGEN--\":13711:13745   */\n      0x53616665436173743a2076616c7565206d75737420626520706f736974697665\n        /* \"--CODEGEN--\":30830:30844   */\n      0x40\n      dup3\n      add\n        /* \"--CODEGEN--\":13691:13746   */\n      mstore\n        /* \"--CODEGEN--\":13765:13777   */\n      0x60\n      add\n      swap1\n        /* \"--CODEGEN--\":25236:25481   */\n      jump\n        /* \"--CODEGEN--\":25488:25904   */\n    tag_258:\n        /* \"--CODEGEN--\":25688:25690   */\n      0x20\n        /* \"--CODEGEN--\":25702:25749   */\n      dup1\n      dup3\n      mstore\n        /* \"--CODEGEN--\":14016:14018   */\n      0x21\n        /* \"--CODEGEN--\":25673:25691   */\n      swap1\n      dup3\n      add\n        /* \"--CODEGEN--\":30790:30809   */\n      mstore\n        /* \"--CODEGEN--\":14052:14086   */\n      0x536166654d6174683a206d756c7469706c69636174696f6e206f766572666c6f\n        /* \"--CODEGEN--\":30830:30844   */\n      0x40\n      dup3\n      add\n        /* \"--CODEGEN--\":14032:14087   */\n      mstore\n      shl(0xf8, 0x77)\n        /* \"--CODEGEN--\":14107:14119   */\n      0x60\n      dup3\n      add\n        /* \"--CODEGEN--\":14100:14125   */\n      mstore\n        /* \"--CODEGEN--\":14144:14156   */\n      0x80\n      add\n      swap1\n        /* \"--CODEGEN--\":25659:25904   */\n      jump\n        /* \"--CODEGEN--\":25911:26327   */\n    tag_210:\n        /* \"--CODEGEN--\":26111:26113   */\n      0x20\n        /* \"--CODEGEN--\":26125:26172   */\n      dup1\n      dup3\n      mstore\n        /* \"--CODEGEN--\":14395:14397   */\n      0x1d\n        /* \"--CODEGEN--\":26096:26114   */\n      swap1\n      dup3\n      add\n        /* \"--CODEGEN--\":30790:30809   */\n      mstore\n        /* \"--CODEGEN--\":14431:14462   */\n      0x496e76616c696420706f7374207472616e736665722062616c616e6365000000\n        /* \"--CODEGEN--\":30830:30844   */\n      0x40\n      dup3\n      add\n        /* \"--CODEGEN--\":14411:14463   */\n      mstore\n        /* \"--CODEGEN--\":14482:14494   */\n      0x60\n      add\n      swap1\n        /* \"--CODEGEN--\":26082:26327   */\n      jump\n        /* \"--CODEGEN--\":26334:26750   */\n    tag_323:\n        /* \"--CODEGEN--\":26534:26536   */\n      0x20\n        /* \"--CODEGEN--\":26548:26595   */\n      dup1\n      dup3\n      mstore\n        /* \"--CODEGEN--\":14733:14735   */\n      0x1d\n        /* \"--CODEGEN--\":26519:26537   */\n      swap1\n      dup3\n      add\n        /* \"--CODEGEN--\":30790:30809   */\n      mstore\n        /* \"--CODEGEN--\":14769:14800   */\n      0x416464726573733a2063616c6c20746f206e6f6e2d636f6e7472616374000000\n        /* \"--CODEGEN--\":30830:30844   */\n      0x40\n      dup3\n      add\n        /* \"--CODEGEN--\":14749:14801   */\n      mstore\n        /* \"--CODEGEN--\":14820:14832   */\n      0x60\n      add\n      swap1\n        /* \"--CODEGEN--\":26505:26750   */\n      jump\n        /* \"--CODEGEN--\":26757:27173   */\n    tag_164:\n        /* \"--CODEGEN--\":26957:26959   */\n      0x20\n        /* \"--CODEGEN--\":26971:27018   */\n      dup1\n      dup3\n      mstore\n        /* \"--CODEGEN--\":15071:15073   */\n      0x23\n        /* \"--CODEGEN--\":26942:26960   */\n      swap1\n      dup3\n      add\n        /* \"--CODEGEN--\":30790:30809   */\n      mstore\n        /* \"--CODEGEN--\":15107:15141   */\n      0x4d75737420626520636f6e74726f6c6c65722d656e61626c656420536574546f\n        /* \"--CODEGEN--\":30830:30844   */\n      0x40\n      dup3\n      add\n        /* \"--CODEGEN--\":15087:15142   */\n      mstore\n      shl(0xe9, 0x35b2b7)\n        /* \"--CODEGEN--\":15162:15174   */\n      0x60\n      dup3\n      add\n        /* \"--CODEGEN--\":15155:15182   */\n      mstore\n        /* \"--CODEGEN--\":15201:15213   */\n      0x80\n      add\n      swap1\n        /* \"--CODEGEN--\":26928:27173   */\n      jump\n        /* \"--CODEGEN--\":27180:27596   */\n    tag_154:\n        /* \"--CODEGEN--\":27380:27382   */\n      0x20\n        /* \"--CODEGEN--\":27394:27441   */\n      dup1\n      dup3\n      mstore\n        /* \"--CODEGEN--\":15452:15454   */\n      0x1c\n        /* \"--CODEGEN--\":27365:27383   */\n      swap1\n      dup3\n      add\n        /* \"--CODEGEN--\":30790:30809   */\n      mstore\n        /* \"--CODEGEN--\":15488:15518   */\n      0x4d7573742062652074686520536574546f6b656e206d616e6167657200000000\n        /* \"--CODEGEN--\":30830:30844   */\n      0x40\n      dup3\n      add\n        /* \"--CODEGEN--\":15468:15519   */\n      mstore\n        /* \"--CODEGEN--\":15538:15550   */\n      0x60\n      add\n      swap1\n        /* \"--CODEGEN--\":27351:27596   */\n      jump\n        /* \"--CODEGEN--\":27603:28019   */\n    tag_311:\n        /* \"--CODEGEN--\":27803:27805   */\n      0x20\n        /* \"--CODEGEN--\":27817:27864   */\n      dup1\n      dup3\n      mstore\n        /* \"--CODEGEN--\":15789:15791   */\n      0x2a\n        /* \"--CODEGEN--\":27788:27806   */\n      swap1\n      dup3\n      add\n        /* \"--CODEGEN--\":30790:30809   */\n      mstore\n        /* \"--CODEGEN--\":15825:15859   */\n      0x5361666545524332303a204552433230206f7065726174696f6e20646964206e\n        /* \"--CODEGEN--\":30830:30844   */\n      0x40\n      dup3\n      add\n        /* \"--CODEGEN--\":15805:15860   */\n      mstore\n      shl(0xb2, 0x1bdd081cdd58d8d95959)\n        /* \"--CODEGEN--\":15880:15892   */\n      0x60\n      dup3\n      add\n        /* \"--CODEGEN--\":15873:15907   */\n      mstore\n        /* \"--CODEGEN--\":15926:15938   */\n      0x80\n      add\n      swap1\n        /* \"--CODEGEN--\":27774:28019   */\n      jump\n        /* \"--CODEGEN--\":28026:28442   */\n    tag_53:\n        /* \"--CODEGEN--\":28226:28228   */\n      0x20\n        /* \"--CODEGEN--\":28240:28287   */\n      dup1\n      dup3\n      mstore\n        /* \"--CODEGEN--\":16177:16179   */\n      0x1f\n        /* \"--CODEGEN--\":28211:28229   */\n      swap1\n      dup3\n      add\n        /* \"--CODEGEN--\":30790:30809   */\n      mstore\n        /* \"--CODEGEN--\":16213:16246   */\n      0x5265656e7472616e637947756172643a207265656e7472616e742063616c6c00\n        /* \"--CODEGEN--\":30830:30844   */\n      0x40\n      dup3\n      add\n        /* \"--CODEGEN--\":16193:16247   */\n      mstore\n        /* \"--CODEGEN--\":16266:16278   */\n      0x60\n      add\n      swap1\n        /* \"--CODEGEN--\":28197:28442   */\n      jump\n        /* \"--CODEGEN--\":28449:28671   */\n    tag_94:\n        /* \"--CODEGEN--\":16353:16390   */\n      swap1\n      dup2\n      mstore\n        /* \"--CODEGEN--\":28576:28578   */\n      0x20\n        /* \"--CODEGEN--\":28561:28579   */\n      add\n      swap1\n        /* \"--CODEGEN--\":28547:28671   */\n      jump\n        /* \"--CODEGEN--\":28678:28934   */\n    tag_353:\n        /* \"--CODEGEN--\":28740:28742   */\n      0x40\n        /* \"--CODEGEN--\":28734:28743   */\n      mload\n        /* \"--CODEGEN--\":28766:28783   */\n      dup2\n      dup2\n      add\n        /* \"--CODEGEN--\":28841:28859   */\n      0xffffffffffffffff\n        /* \"--CODEGEN--\":28826:28860   */\n      dup2\n      gt\n        /* \"--CODEGEN--\":28862:28884   */\n      dup3\n      dup3\n      lt\n        /* \"--CODEGEN--\":28823:28885   */\n      or\n        /* \"--CODEGEN--\":28820:28822   */\n      iszero\n      tag_440\n      jumpi\n        /* \"--CODEGEN--\":28898:28899   */\n      0x00\n      dup1\n        /* \"--CODEGEN--\":28888:28900   */\n      revert\n        /* \"--CODEGEN--\":28820:28822   */\n    tag_440:\n        /* \"--CODEGEN--\":28740:28742   */\n      0x40\n        /* \"--CODEGEN--\":28907:28929   */\n      mstore\n        /* \"--CODEGEN--\":28718:28934   */\n      swap2\n      swap1\n      pop\n      jump\n        /* \"--CODEGEN--\":33692:33960   */\n    tag_370:\n        /* \"--CODEGEN--\":33757:33758   */\n      0x00\n        /* \"--CODEGEN--\":33764:33865   */\n    tag_443:\n        /* \"--CODEGEN--\":33778:33784   */\n      dup4\n        /* \"--CODEGEN--\":33775:33776   */\n      dup2\n        /* \"--CODEGEN--\":33772:33785   */\n      lt\n        /* \"--CODEGEN--\":33764:33865   */\n      iszero\n      tag_445\n      jumpi\n        /* \"--CODEGEN--\":33845:33856   */\n      dup2\n      dup2\n      add\n        /* \"--CODEGEN--\":33839:33857   */\n      mload\n        /* \"--CODEGEN--\":33826:33837   */\n      dup4\n      dup3\n      add\n        /* \"--CODEGEN--\":33819:33858   */\n      mstore\n        /* \"--CODEGEN--\":33800:33802   */\n      0x20\n        /* \"--CODEGEN--\":33793:33803   */\n      add\n        /* \"--CODEGEN--\":33764:33865   */\n      jump(tag_443)\n    tag_445:\n        /* \"--CODEGEN--\":33880:33886   */\n      dup4\n        /* \"--CODEGEN--\":33877:33878   */\n      dup2\n        /* \"--CODEGEN--\":33874:33887   */\n      gt\n        /* \"--CODEGEN--\":33871:33873   */\n      iszero\n      tag_192\n      jumpi\n      pop\n      pop\n        /* \"--CODEGEN--\":33757:33758   */\n      0x00\n        /* \"--CODEGEN--\":33927:33943   */\n      swap2\n      add\n        /* \"--CODEGEN--\":33920:33947   */\n      mstore\n        /* \"--CODEGEN--\":33741:33960   */\n      jump\n        /* \"--CODEGEN--\":34073:34190   */\n    tag_343:\n      sub(shl(0xa0, 0x01), 0x01)\n        /* \"--CODEGEN--\":32114:32168   */\n      dup2\n      and\n        /* \"--CODEGEN--\":34132:34167   */\n      dup2\n      eq\n        /* \"--CODEGEN--\":34122:34124   */\n      tag_167\n      jumpi\n        /* \"--CODEGEN--\":34181:34182   */\n      0x00\n      dup1\n        /* \"--CODEGEN--\":34171:34183   */\n      revert\n\n    auxdata: 0xa2646970667358221220ed208afc26f50268e56110fa9f76600be53a3934c9e31aa6790d4a3d5c565b3864736f6c634300060a0033\n}\n",
				"bytecode": {
					"linkReferences": {},
					"object": "608060405234801561001057600080fd5b50604051611b86380380611b8683398101604081905261002f91610058565b600080546001600160a01b0319166001600160a01b039290921691909117905560018055610086565b600060208284031215610069578081fd5b81516001600160a01b038116811461007f578182fd5b9392505050565b611af1806100956000396000f3fe608060405234801561001057600080fd5b506004361061007d5760003560e01c80637a4ffd031161005b5780637a4ffd03146100bd578063847ef08d146100e7578063dfe75335146100ef578063f77c47911461010f5761007d565b8063485cc955146100825780635c833bfd146100975780636d78f47a146100aa575b600080fd5b6100956100903660046113df565b610117565b005b6100956100a5366004611442565b6101ae565b6100956100b8366004611442565b610462565b6100d06100cb366004611417565b6105e1565b6040516100de929190611579565b60405180910390f35b610095610784565b6101026100fd3660046113c3565b61079c565b6040516100de91906114f8565b6101026107b7565b813361012382826107c6565b8361012d816107f0565b6001600160a01b0385811660008181526002602052604080822080546001600160a01b0319169489169490941790935582516307ff078f60e11b815292519192630ffe0f1e926004808301939282900301818387803b15801561018f57600080fd5b505af11580156101a3573d6000803e3d6000fd5b505050505050505050565b600260015414156101da5760405162461bcd60e51b81526004016101d190611a13565b60405180910390fd5b6002600155826101e9816108b4565b600083116102095760405162461bcd60e51b81526004016101d19061168d565b604051632770a7eb60e21b81526001600160a01b03851690639dc29fac90610237903390879060040161150c565b600060405180830381600087803b15801561025157600080fd5b505af1158015610265573d6000803e3d6000fd5b505050506060846001600160a01b03166399d50d5d6040518163ffffffff1660e01b815260040160006040518083038186803b1580156102a457600080fd5b505afa1580156102b8573d6000803e3d6000fd5b505050506040513d6000823e601f3d908101601f191682016040526102e0919081019061126c565b905060005b81518110156104015760008282815181106102fc57fe5b6020026020010151905061032281886001600160a01b03166108d990919063ffffffff16565b1561033f5760405162461bcd60e51b81526004016101d19061174b565b60006103c5886001600160a01b03166366cb8d2f846040518263ffffffff1660e01b815260040161037091906114f8565b60206040518083038186803b15801561038857600080fd5b505afa15801561039c573d6000803e3d6000fd5b505050506040513d601f19601f820116820180604052508101906103c09190611483565b610967565b905060006103d9888363ffffffff61098d16565b90506103f66001600160a01b038a1684898463ffffffff6109be16565b5050506001016102e5565b50826001600160a01b0316336001600160a01b0316866001600160a01b03167f05f8aaada00823525432114f0e904c6f7c0198a5b8f113ee635ff81aaf9566ad8760405161044f9190611a4a565b60405180910390a4505060018055505050565b600260015414156104855760405162461bcd60e51b81526004016101d190611a13565b600260015582610494816108b4565b600083116104b45760405162461bcd60e51b81526004016101d1906117c6565b60006104c285853386610b09565b90506060806104d187876105e1565b909250905060005b825181101561051c576105148382815181106104f157fe5b6020026020010151338a85858151811061050757fe5b6020026020010151610ba7565b6001016104d9565b506040516340c10f1960e01b81526001600160a01b038816906340c10f199061054b9088908a9060040161150c565b600060405180830381600087803b15801561056557600080fd5b505af1158015610579573d6000803e3d6000fd5b50505050846001600160a01b0316336001600160a01b0316886001600160a01b03167fc07f1e2fe31c4d90eae81f76d263d7995aac043a99d6ee6de9c0506047f541c2868a6040516105cc92919061150c565b60405180910390a45050600180555050505050565b606080836105ee816108b4565b6060856001600160a01b03166399d50d5d6040518163ffffffff1660e01b815260040160006040518083038186803b15801561062957600080fd5b505afa15801561063d573d6000803e3d6000fd5b505050506040513d6000823e601f3d908101601f19168201604052610665919081019061126c565b90506060815167ffffffffffffffff8111801561068157600080fd5b506040519080825280602002602001820160405280156106ab578160200160208202803683370190505b50905060005b8251811015610777576106e98382815181106106c957fe5b6020026020010151896001600160a01b03166108d990919063ffffffff16565b156107065760405162461bcd60e51b81526004016101d19061174b565b6107588761074c8a6001600160a01b03166366cb8d2f87868151811061072857fe5b60200260200101516040518263ffffffff1660e01b815260040161037091906114f8565b9063ffffffff610bb316565b82828151811061076457fe5b60209081029190910101526001016106b1565b5090969095509350505050565b60405162461bcd60e51b81526004016101d1906116fb565b6002602052600090815260409020546001600160a01b031681565b6000546001600160a01b031681565b6107d08282610c0a565b6107ec5760405162461bcd60e51b81526004016101d190611992565b5050565b600054604051631d3af8fb60e21b81526001600160a01b03909116906374ebe3ec906108209084906004016114f8565b60206040518083038186803b15801561083857600080fd5b505afa15801561084c573d6000803e3d6000fd5b505050506040513d601f19601f820116820180604052508101906108709190611317565b61088c5760405162461bcd60e51b81526004016101d19061194f565b61089581610c98565b6108b15760405162461bcd60e51b81526004016101d19061178f565b50565b6108bd81610d17565b6108b15760405162461bcd60e51b81526004016101d190611645565b600080836001600160a01b031663a7bdad03846040518263ffffffff1660e01b815260040161090891906114f8565b60006040518083038186803b15801561092057600080fd5b505afa158015610934573d6000803e3d6000fd5b505050506040513d6000823e601f3d908101601f1916820160405261095c919081019061126c565b511190505b92915050565b6000808212156109895760405162461bcd60e51b81526004016101d19061186b565b5090565b60006109b7670de0b6b3a76400006109ab858563ffffffff610dcb16565b9063ffffffff610e0516565b9392505050565b8015610b03576040516370a0823160e01b81526000906001600160a01b038516906370a08231906109f39088906004016114f8565b60206040518083038186803b158015610a0b57600080fd5b505afa158015610a1f573d6000803e3d6000fd5b505050506040513d601f19601f82011682018060405250810190610a439190611483565b9050610a5185858585610e37565b6040516370a0823160e01b81526000906001600160a01b038616906370a0823190610a809089906004016114f8565b60206040518083038186803b158015610a9857600080fd5b505afa158015610aac573d6000803e3d6000fd5b505050506040513d601f19601f82011682018060405250810190610ad09190611483565b9050610ae2828463ffffffff610f0416565b8114610b005760405162461bcd60e51b81526004016101d1906118e1565b50505b50505050565b6001600160a01b038085166000908152600260205260408120549091168015610b995760405163a045808360e01b81526001600160a01b0382169063a045808390610b5e908990899089908990600401611607565b600060405180830381600087803b158015610b7857600080fd5b505af1158015610b8c573d6000803e3d6000fd5b5050505080915050610b9f565b60009150505b949350505050565b610b0384848484610f2c565b6000821580610bc0575081155b15610bcd57506000610961565b6109b76001610bfe670de0b6b3a76400006109ab83610bf2898963ffffffff610dcb16565b9063ffffffff610f0416565b9063ffffffff61105016565b6000816001600160a01b0316836001600160a01b031663481c6a756040518163ffffffff1660e01b815260040160206040518083038186803b158015610c4f57600080fd5b505afa158015610c63573d6000803e3d6000fd5b505050506040513d601f19601f82011682018060405250810190610c879190611250565b6001600160a01b0316149392505050565b6040516353bae5f760e01b81526000906001600160a01b038316906353bae5f790610cc79030906004016114f8565b60206040518083038186803b158015610cdf57600080fd5b505afa158015610cf3573d6000803e3d6000fd5b505050506040513d601f19601f820116820180604052508101906109619190611317565b60008054604051631d3af8fb60e21b81526001600160a01b03909116906374ebe3ec90610d489085906004016114f8565b60206040518083038186803b158015610d6057600080fd5b505afa158015610d74573d6000803e3d6000fd5b505050506040513d601f19601f82011682018060405250810190610d989190611317565b801561096157506040516335fc6c9f60e21b81526001600160a01b0383169063d7f1b27c90610cc79030906004016114f8565b600082610dda57506000610961565b82820282848281610de757fe5b04146109b75760405162461bcd60e51b81526004016101d1906118a0565b6000808211610e265760405162461bcd60e51b81526004016101d190611834565b818381610e2f57fe5b049392505050565b8015610b035760608282604051602401610e5292919061150c565b60408051601f198184030181529181526020820180516001600160e01b031663a9059cbb60e01b179052516347b7819960e11b81529091506001600160a01b03861690638f6f033290610eae9087906000908690600401611549565b600060405180830381600087803b158015610ec857600080fd5b505af1158015610edc573d6000803e3d6000fd5b505050506040513d6000823e601f3d908101601f19168201604052610b009190810190611337565b600082821115610f265760405162461bcd60e51b81526004016101d1906117fd565b50900390565b8015610b03576040516370a0823160e01b81526000906001600160a01b038616906370a0823190610f619086906004016114f8565b60206040518083038186803b158015610f7957600080fd5b505afa158015610f8d573d6000803e3d6000fd5b505050506040513d601f19601f82011682018060405250810190610fb19190611483565b9050610fbf85858585611075565b6040516370a0823160e01b81526000906001600160a01b038716906370a0823190610fee9087906004016114f8565b60206040518083038186803b15801561100657600080fd5b505afa15801561101a573d6000803e3d6000fd5b505050506040513d601f19601f8201168201806040525081019061103e9190611483565b9050610ae2828463ffffffff61105016565b6000828201838110156109b75760405162461bcd60e51b81526004016101d1906116c4565b610b03846323b872dd60e01b85858560405160240161109693929190611525565b60408051601f198184030181529190526020810180516001600160e01b03166001600160e01b031990931692909217909152606061111d826040518060400160405280602081526020017f5361666545524332303a206c6f772d6c6576656c2063616c6c206661696c6564815250856001600160a01b031661115c9092919063ffffffff16565b805190915015611157578080602001905181019061113b9190611317565b6111575760405162461bcd60e51b81526004016101d1906119c9565b505050565b6060610b9f84846000858561117085611206565b61118c5760405162461bcd60e51b81526004016101d190611918565b60006060866001600160a01b031685876040516111a991906114dc565b60006040518083038185875af1925050503d80600081146111e6576040519150601f19603f3d011682016040523d82523d6000602084013e6111eb565b606091505b50915091506111fb82828661120c565b979650505050505050565b3b151590565b6060831561121b5750816109b7565b82511561122b5782518084602001fd5b8160405162461bcd60e51b81526004016101d19190611632565b805161096181611aa6565b600060208284031215611261578081fd5b81516109b781611aa6565b6000602080838503121561127e578182fd5b825167ffffffffffffffff80821115611295578384fd5b81850186601f8201126112a6578485fd5b80519250818311156112b6578485fd5b83830291506112c6848301611a53565b8381528481019082860184840187018a10156112e0578788fd5b8794505b8585101561130a576112f68a82611245565b8352600194909401939186019186016112e4565b5098975050505050505050565b600060208284031215611328578081fd5b815180151581146109b7578182fd5b600060208284031215611348578081fd5b815167ffffffffffffffff8082111561135f578283fd5b81840185601f820112611370578384fd5b8051925081831115611380578384fd5b611393601f8401601f1916602001611a53565b91508282528560208483010111156113a9578384fd5b6113ba836020840160208401611a7a565b50949350505050565b6000602082840312156113d4578081fd5b81356109b781611aa6565b600080604083850312156113f1578081fd5b82356113fc81611aa6565b9150602083013561140c81611aa6565b809150509250929050565b60008060408385031215611429578182fd5b823561143481611aa6565b946020939093013593505050565b600080600060608486031215611456578081fd5b833561146181611aa6565b925060208401359150604084013561147881611aa6565b809150509250925092565b600060208284031215611494578081fd5b5051919050565b815260200190565b6001600160a01b03169052565b600081518084526114c8816020860160208601611a7a565b601f01601f19169290920160200192915050565b600082516114ee818460208701611a7a565b9190910192915050565b6001600160a01b0391909116815260200190565b6001600160a01b03929092168252602082015260400190565b6001600160a01b039384168152919092166020820152604081019190915260600190565b600060018060a01b03851682528360208301526060604083015261157060608301846114b0565b95945050505050565b604080825283519082018190526000906020906060840190828701845b828110156115b9576115a98483516114a3565b9284019290840190600101611596565b505050838103828501528085516115d08184611a4a565b91508387019250845b818110156115fa576115ec83855161149b565b9385019392506001016115d9565b5090979650505050505050565b6001600160a01b03948516815260208101939093529083166040830152909116606082015260800190565b6000602082526109b760208301846114b0565b60208082526028908201527f4d75737420626520612076616c696420616e6420696e697469616c697a65642060408201526729b2ba2a37b5b2b760c11b606082015260800190565b6020808252601b908201527f52656465656d207175616e74697479206d757374206265203e20300000000000604082015260600190565b6020808252601b908201527f536166654d6174683a206164646974696f6e206f766572666c6f770000000000604082015260600190565b60208082526030908201527f54686520426173696349737375616e63654d6f64756c65206d6f64756c65206360408201526f185b9b9bdd081899481c995b5bdd995960821b606082015260800190565b60208082526024908201527f4f6e6c792064656661756c7420706f736974696f6e732061726520737570706f6040820152631c9d195960e21b606082015260800190565b6020808252601e908201527f4d7573742062652070656e64696e6720696e697469616c697a6174696f6e0000604082015260600190565b6020808252601a908201527f4973737565207175616e74697479206d757374206265203e2030000000000000604082015260600190565b6020808252601e908201527f536166654d6174683a207375627472616374696f6e206f766572666c6f770000604082015260600190565b6020808252601a908201527f536166654d6174683a206469766973696f6e206279207a65726f000000000000604082015260600190565b6020808252818101527f53616665436173743a2076616c7565206d75737420626520706f736974697665604082015260600190565b60208082526021908201527f536166654d6174683a206d756c7469706c69636174696f6e206f766572666c6f6040820152607760f81b606082015260800190565b6020808252601d908201527f496e76616c696420706f7374207472616e736665722062616c616e6365000000604082015260600190565b6020808252601d908201527f416464726573733a2063616c6c20746f206e6f6e2d636f6e7472616374000000604082015260600190565b60208082526023908201527f4d75737420626520636f6e74726f6c6c65722d656e61626c656420536574546f60408201526235b2b760e91b606082015260800190565b6020808252601c908201527f4d7573742062652074686520536574546f6b656e206d616e6167657200000000604082015260600190565b6020808252602a908201527f5361666545524332303a204552433230206f7065726174696f6e20646964206e6040820152691bdd081cdd58d8d9595960b21b606082015260800190565b6020808252601f908201527f5265656e7472616e637947756172643a207265656e7472616e742063616c6c00604082015260600190565b90815260200190565b60405181810167ffffffffffffffff81118282101715611a7257600080fd5b604052919050565b60005b83811015611a95578181015183820152602001611a7d565b83811115610b035750506000910152565b6001600160a01b03811681146108b157600080fdfea2646970667358221220ed208afc26f50268e56110fa9f76600be53a3934c9e31aa6790d4a3d5c565b3864736f6c634300060a0033",
					"opcodes": "PUSH1 0x80 PUSH1 0x40 MSTORE CALLVALUE DUP1 ISZERO PUSH2 0x10 JUMPI PUSH1 0x0 DUP1 REVERT JUMPDEST POP PUSH1 0x40 MLOAD PUSH2 0x1B86 CODESIZE SUB DUP1 PUSH2 0x1B86 DUP4 CODECOPY DUP2 ADD PUSH1 0x40 DUP2 SWAP1 MSTORE PUSH2 0x2F SWAP2 PUSH2 0x58 JUMP JUMPDEST PUSH1 0x0 DUP1 SLOAD PUSH1 0x1 PUSH1 0x1 PUSH1 0xA0 SHL SUB NOT AND PUSH1 0x1 PUSH1 0x1 PUSH1 0xA0 SHL SUB SWAP3 SWAP1 SWAP3 AND SWAP2 SWAP1 SWAP2 OR SWAP1 SSTORE PUSH1 0x1 DUP1 SSTORE PUSH2 0x86 JUMP JUMPDEST PUSH1 0x0 PUSH1 0x20 DUP3 DUP5 SUB SLT ISZERO PUSH2 0x69 JUMPI DUP1 DUP2 REVERT JUMPDEST DUP2 MLOAD PUSH1 0x1 PUSH1 0x1 PUSH1 0xA0 SHL SUB DUP2 AND DUP2 EQ PUSH2 0x7F JUMPI DUP2 DUP3 REVERT JUMPDEST SWAP4 SWAP3 POP POP POP JUMP JUMPDEST PUSH2 0x1AF1 DUP1 PUSH2 0x95 PUSH1 0x0 CODECOPY PUSH1 0x0 RETURN INVALID PUSH1 0x80 PUSH1 0x40 MSTORE CALLVALUE DUP1 ISZERO PUSH2 0x10 JUMPI PUSH1 0x0 DUP1 REVERT JUMPDEST POP PUSH1 0x4 CALLDATASIZE LT PUSH2 0x7D JUMPI PUSH1 0x0 CALLDATALOAD PUSH1 0xE0 SHR DUP1 PUSH4 0x7A4FFD03 GT PUSH2 0x5B JUMPI DUP1 PUSH4 0x7A4FFD03 EQ PUSH2 0xBD JUMPI DUP1 PUSH4 0x847EF08D EQ PUSH2 0xE7 JUMPI DUP1 PUSH4 0xDFE75335 EQ PUSH2 0xEF JUMPI DUP1 PUSH4 0xF77C4791 EQ PUSH2 0x10F JUMPI PUSH2 0x7D JUMP JUMPDEST DUP1 PUSH4 0x485CC955 EQ PUSH2 0x82 JUMPI DUP1 PUSH4 0x5C833BFD EQ PUSH2 0x97 JUMPI DUP1 PUSH4 0x6D78F47A EQ PUSH2 0xAA JUMPI JUMPDEST PUSH1 0x0 DUP1 REVERT JUMPDEST PUSH2 0x95 PUSH2 0x90 CALLDATASIZE PUSH1 0x4 PUSH2 0x13DF JUMP JUMPDEST PUSH2 0x117 JUMP JUMPDEST STOP JUMPDEST PUSH2 0x95 PUSH2 0xA5 CALLDATASIZE PUSH1 0x4 PUSH2 0x1442 JUMP JUMPDEST PUSH2 0x1AE JUMP JUMPDEST PUSH2 0x95 PUSH2 0xB8 CALLDATASIZE PUSH1 0x4 PUSH2 0x1442 JUMP JUMPDEST PUSH2 0x462 JUMP JUMPDEST PUSH2 0xD0 PUSH2 0xCB CALLDATASIZE PUSH1 0x4 PUSH2 0x1417 JUMP JUMPDEST PUSH2 0x5E1 JUMP JUMPDEST PUSH1 0x40 MLOAD PUSH2 0xDE SWAP3 SWAP2 SWAP1 PUSH2 0x1579 JUMP JUMPDEST PUSH1 0x40 MLOAD DUP1 SWAP2 SUB SWAP1 RETURN JUMPDEST PUSH2 0x95 PUSH2 0x784 JUMP JUMPDEST PUSH2 0x102 PUSH2 0xFD CALLDATASIZE PUSH1 0x4 PUSH2 0x13C3 JUMP JUMPDEST PUSH2 0x79C JUMP JUMPDEST PUSH1 0x40 MLOAD PUSH2 0xDE SWAP2 SWAP1 PUSH2 0x14F8 JUMP JUMPDEST PUSH2 0x102 PUSH2 0x7B7 JUMP JUMPDEST DUP2 CALLER PUSH2 0x123 DUP3 DUP3 PUSH2 0x7C6 JUMP JUMPDEST DUP4 PUSH2 0x12D DUP2 PUSH2 0x7F0 JUMP JUMPDEST PUSH1 0x1 PUSH1 0x1 PUSH1 0xA0 SHL SUB DUP6 DUP2 AND PUSH1 0x0 DUP2 DUP2 MSTORE PUSH1 0x2 PUSH1 0x20 MSTORE PUSH1 0x40 DUP1 DUP3 KECCAK256 DUP1 SLOAD PUSH1 0x1 PUSH1 0x1 PUSH1 0xA0 SHL SUB NOT AND SWAP5 DUP10 AND SWAP5 SWAP1 SWAP5 OR SWAP1 SWAP4 SSTORE DUP3 MLOAD PUSH4 0x7FF078F PUSH1 0xE1 SHL DUP2 MSTORE SWAP3 MLOAD SWAP2 SWAP3 PUSH4 0xFFE0F1E SWAP3 PUSH1 0x4 DUP1 DUP4 ADD SWAP4 SWAP3 DUP3 SWAP1 SUB ADD DUP2 DUP4 DUP8 DUP1 EXTCODESIZE ISZERO DUP1 ISZERO PUSH2 0x18F JUMPI PUSH1 0x0 DUP1 REVERT JUMPDEST POP GAS CALL ISZERO DUP1 ISZERO PUSH2 0x1A3 JUMPI RETURNDATASIZE PUSH1 0x0 DUP1 RETURNDATACOPY RETURNDATASIZE PUSH1 0x0 REVERT JUMPDEST POP POP POP POP POP POP POP POP POP JUMP JUMPDEST PUSH1 0x2 PUSH1 0x1 SLOAD EQ ISZERO PUSH2 0x1DA JUMPI PUSH1 0x40 MLOAD PUSH3 0x461BCD PUSH1 0xE5 SHL DUP2 MSTORE PUSH1 0x4 ADD PUSH2 0x1D1 SWAP1 PUSH2 0x1A13 JUMP JUMPDEST PUSH1 0x40 MLOAD DUP1 SWAP2 SUB SWAP1 REVERT JUMPDEST PUSH1 0x2 PUSH1 0x1 SSTORE DUP3 PUSH2 0x1E9 DUP2 PUSH2 0x8B4 JUMP JUMPDEST PUSH1 0x0 DUP4 GT PUSH2 0x209 JUMPI PUSH1 0x40 MLOAD PUSH3 0x461BCD PUSH1 0xE5 SHL DUP2 MSTORE PUSH1 0x4 ADD PUSH2 0x1D1 SWAP1 PUSH2 0x168D JUMP JUMPDEST PUSH1 0x40 MLOAD PUSH4 0x2770A7EB PUSH1 0xE2 SHL DUP2 MSTORE PUSH1 0x1 PUSH1 0x1 PUSH1 0xA0 SHL SUB DUP6 AND SWAP1 PUSH4 0x9DC29FAC SWAP1 PUSH2 0x237 SWAP1 CALLER SWAP1 DUP8 SWAP1 PUSH1 0x4 ADD PUSH2 0x150C JUMP JUMPDEST PUSH1 0x0 PUSH1 0x40 MLOAD DUP1 DUP4 SUB DUP2 PUSH1 0x0 DUP8 DUP1 EXTCODESIZE ISZERO DUP1 ISZERO PUSH2 0x251 JUMPI PUSH1 0x0 DUP1 REVERT JUMPDEST POP GAS CALL ISZERO DUP1 ISZERO PUSH2 0x265 JUMPI RETURNDATASIZE PUSH1 0x0 DUP1 RETURNDATACOPY RETURNDATASIZE PUSH1 0x0 REVERT JUMPDEST POP POP POP POP PUSH1 0x60 DUP5 PUSH1 0x1 PUSH1 0x1 PUSH1 0xA0 SHL SUB AND PUSH4 0x99D50D5D PUSH1 0x40 MLOAD DUP2 PUSH4 0xFFFFFFFF AND PUSH1 0xE0 SHL DUP2 MSTORE PUSH1 0x4 ADD PUSH1 0x0 PUSH1 0x40 MLOAD DUP1 DUP4 SUB DUP2 DUP7 DUP1 EXTCODESIZE ISZERO DUP1 ISZERO PUSH2 0x2A4 JUMPI PUSH1 0x0 DUP1 REVERT JUMPDEST POP GAS STATICCALL ISZERO DUP1 ISZERO PUSH2 0x2B8 JUMPI RETURNDATASIZE PUSH1 0x0 DUP1 RETURNDATACOPY RETURNDATASIZE PUSH1 0x0 REVERT JUMPDEST POP POP POP POP PUSH1 0x40 MLOAD RETURNDATASIZE PUSH1 0x0 DUP3 RETURNDATACOPY PUSH1 0x1F RETURNDATASIZE SWAP1 DUP2 ADD PUSH1 0x1F NOT AND DUP3 ADD PUSH1 0x40 MSTORE PUSH2 0x2E0 SWAP2 SWAP1 DUP2 ADD SWAP1 PUSH2 0x126C JUMP JUMPDEST SWAP1 POP PUSH1 0x0 JUMPDEST DUP2 MLOAD DUP2 LT ISZERO PUSH2 0x401 JUMPI PUSH1 0x0 DUP3 DUP3 DUP2 MLOAD DUP2 LT PUSH2 0x2FC JUMPI INVALID JUMPDEST PUSH1 0x20 MUL PUSH1 0x20 ADD ADD MLOAD SWAP1 POP PUSH2 0x322 DUP2 DUP9 PUSH1 0x1 PUSH1 0x1 PUSH1 0xA0 SHL SUB AND PUSH2 0x8D9 SWAP1 SWAP2 SWAP1 PUSH4 0xFFFFFFFF AND JUMP JUMPDEST ISZERO PUSH2 0x33F JUMPI PUSH1 0x40 MLOAD PUSH3 0x461BCD PUSH1 0xE5 SHL DUP2 MSTORE PUSH1 0x4 ADD PUSH2 0x1D1 SWAP1 PUSH2 0x174B JUMP JUMPDEST PUSH1 0x0 PUSH2 0x3C5 DUP9 PUSH1 0x1 PUSH1 0x1 PUSH1 0xA0 SHL SUB AND PUSH4 0x66CB8D2F DUP5 PUSH1 0x40 MLOAD DUP3 PUSH4 0xFFFFFFFF AND PUSH1 0xE0 SHL DUP2 MSTORE PUSH1 0x4 ADD PUSH2 0x370 SWAP2 SWAP1 PUSH2 0x14F8 JUMP JUMPDEST PUSH1 0x20 PUSH1 0x40 MLOAD DUP1 DUP4 SUB DUP2 DUP7 DUP1 EXTCODESIZE ISZERO DUP1 ISZERO PUSH2 0x388 JUMPI PUSH1 0x0 DUP1 REVERT JUMPDEST POP GAS STATICCALL ISZERO DUP1 ISZERO PUSH2 0x39C JUMPI RETURNDATASIZE PUSH1 0x0 DUP1 RETURNDATACOPY RETURNDATASIZE PUSH1 0x0 REVERT JUMPDEST POP POP POP POP PUSH1 0x40 MLOAD RETURNDATASIZE PUSH1 0x1F NOT PUSH1 0x1F DUP3 ADD AND DUP3 ADD DUP1 PUSH1 0x40 MSTORE POP DUP2 ADD SWAP1 PUSH2 0x3C0 SWAP2 SWAP1 PUSH2 0x1483 JUMP JUMPDEST PUSH2 0x967 JUMP JUMPDEST SWAP1 POP PUSH1 0x0 PUSH2 0x3D9 DUP9 DUP4 PUSH4 0xFFFFFFFF PUSH2 0x98D AND JUMP JUMPDEST SWAP1 POP PUSH2 0x3F6 PUSH1 0x1 PUSH1 0x1 PUSH1 0xA0 SHL SUB DUP11 AND DUP5 DUP10 DUP5 PUSH4 0xFFFFFFFF PUSH2 0x9BE AND JUMP JUMPDEST POP POP POP PUSH1 0x1 ADD PUSH2 0x2E5 JUMP JUMPDEST POP DUP3 PUSH1 0x1 PUSH1 0x1 PUSH1 0xA0 SHL SUB AND CALLER PUSH1 0x1 PUSH1 0x1 PUSH1 0xA0 SHL SUB AND DUP7 PUSH1 0x1 PUSH1 0x1 PUSH1 0xA0 SHL SUB AND PUSH32 0x5F8AAADA00823525432114F0E904C6F7C0198A5B8F113EE635FF81AAF9566AD DUP8 PUSH1 0x40 MLOAD PUSH2 0x44F SWAP2 SWAP1 PUSH2 0x1A4A JUMP JUMPDEST PUSH1 0x40 MLOAD DUP1 SWAP2 SUB SWAP1 LOG4 POP POP PUSH1 0x1 DUP1 SSTORE POP POP POP JUMP JUMPDEST PUSH1 0x2 PUSH1 0x1 SLOAD EQ ISZERO PUSH2 0x485 JUMPI PUSH1 0x40 MLOAD PUSH3 0x461BCD PUSH1 0xE5 SHL DUP2 MSTORE PUSH1 0x4 ADD PUSH2 0x1D1 SWAP1 PUSH2 0x1A13 JUMP JUMPDEST PUSH1 0x2 PUSH1 0x1 SSTORE DUP3 PUSH2 0x494 DUP2 PUSH2 0x8B4 JUMP JUMPDEST PUSH1 0x0 DUP4 GT PUSH2 0x4B4 JUMPI PUSH1 0x40 MLOAD PUSH3 0x461BCD PUSH1 0xE5 SHL DUP2 MSTORE PUSH1 0x4 ADD PUSH2 0x1D1 SWAP1 PUSH2 0x17C6 JUMP JUMPDEST PUSH1 0x0 PUSH2 0x4C2 DUP6 DUP6 CALLER DUP7 PUSH2 0xB09 JUMP JUMPDEST SWAP1 POP PUSH1 0x60 DUP1 PUSH2 0x4D1 DUP8 DUP8 PUSH2 0x5E1 JUMP JUMPDEST SWAP1 SWAP3 POP SWAP1 POP PUSH1 0x0 JUMPDEST DUP3 MLOAD DUP2 LT ISZERO PUSH2 0x51C JUMPI PUSH2 0x514 DUP4 DUP3 DUP2 MLOAD DUP2 LT PUSH2 0x4F1 JUMPI INVALID JUMPDEST PUSH1 0x20 MUL PUSH1 0x20 ADD ADD MLOAD CALLER DUP11 DUP6 DUP6 DUP2 MLOAD DUP2 LT PUSH2 0x507 JUMPI INVALID JUMPDEST PUSH1 0x20 MUL PUSH1 0x20 ADD ADD MLOAD PUSH2 0xBA7 JUMP JUMPDEST PUSH1 0x1 ADD PUSH2 0x4D9 JUMP JUMPDEST POP PUSH1 0x40 MLOAD PUSH4 0x40C10F19 PUSH1 0xE0 SHL DUP2 MSTORE PUSH1 0x1 PUSH1 0x1 PUSH1 0xA0 SHL SUB DUP9 AND SWAP1 PUSH4 0x40C10F19 SWAP1 PUSH2 0x54B SWAP1 DUP9 SWAP1 DUP11 SWAP1 PUSH1 0x4 ADD PUSH2 0x150C JUMP JUMPDEST PUSH1 0x0 PUSH1 0x40 MLOAD DUP1 DUP4 SUB DUP2 PUSH1 0x0 DUP8 DUP1 EXTCODESIZE ISZERO DUP1 ISZERO PUSH2 0x565 JUMPI PUSH1 0x0 DUP1 REVERT JUMPDEST POP GAS CALL ISZERO DUP1 ISZERO PUSH2 0x579 JUMPI RETURNDATASIZE PUSH1 0x0 DUP1 RETURNDATACOPY RETURNDATASIZE PUSH1 0x0 REVERT JUMPDEST POP POP POP POP DUP5 PUSH1 0x1 PUSH1 0x1 PUSH1 0xA0 SHL SUB AND CALLER PUSH1 0x1 PUSH1 0x1 PUSH1 0xA0 SHL SUB AND DUP9 PUSH1 0x1 PUSH1 0x1 PUSH1 0xA0 SHL SUB AND PUSH32 0xC07F1E2FE31C4D90EAE81F76D263D7995AAC043A99D6EE6DE9C0506047F541C2 DUP7 DUP11 PUSH1 0x40 MLOAD PUSH2 0x5CC SWAP3 SWAP2 SWAP1 PUSH2 0x150C JUMP JUMPDEST PUSH1 0x40 MLOAD DUP1 SWAP2 SUB SWAP1 LOG4 POP POP PUSH1 0x1 DUP1 SSTORE POP POP POP POP POP JUMP JUMPDEST PUSH1 0x60 DUP1 DUP4 PUSH2 0x5EE DUP2 PUSH2 0x8B4 JUMP JUMPDEST PUSH1 0x60 DUP6 PUSH1 0x1 PUSH1 0x1 PUSH1 0xA0 SHL SUB AND PUSH4 0x99D50D5D PUSH1 0x40 MLOAD DUP2 PUSH4 0xFFFFFFFF AND PUSH1 0xE0 SHL DUP2 MSTORE PUSH1 0x4 ADD PUSH1 0x0 PUSH1 0x40 MLOAD DUP1 DUP4 SUB DUP2 DUP7 DUP1 EXTCODESIZE ISZERO DUP1 ISZERO PUSH2 0x629 JUMPI PUSH1 0x0 DUP1 REVERT JUMPDEST POP GAS STATICCALL ISZERO DUP1 ISZERO PUSH2 0x63D JUMPI RETURNDATASIZE PUSH1 0x0 DUP1 RETURNDATACOPY RETURNDATASIZE PUSH1 0x0 REVERT JUMPDEST POP POP POP POP PUSH1 0x40 MLOAD RETURNDATASIZE PUSH1 0x0 DUP3 RETURNDATACOPY PUSH1 0x1F RETURNDATASIZE SWAP1 DUP2 ADD PUSH1 0x1F NOT AND DUP3 ADD PUSH1 0x40 MSTORE PUSH2 0x665 SWAP2 SWAP1 DUP2 ADD SWAP1 PUSH2 0x126C JUMP JUMPDEST SWAP1 POP PUSH1 0x60 DUP2 MLOAD PUSH8 0xFFFFFFFFFFFFFFFF DUP2 GT DUP1 ISZERO PUSH2 0x681 JUMPI PUSH1 0x0 DUP1 REVERT JUMPDEST POP PUSH1 0x40 MLOAD SWAP1 DUP1 DUP3 MSTORE DUP1 PUSH1 0x20 MUL PUSH1 0x20 ADD DUP3 ADD PUSH1 0x40 MSTORE DUP1 ISZERO PUSH2 0x6AB JUMPI DUP2 PUSH1 0x20 ADD PUSH1 0x20 DUP3 MUL DUP1 CALLDATASIZE DUP4 CALLDATACOPY ADD SWAP1 POP JUMPDEST POP SWAP1 POP PUSH1 0x0 JUMPDEST DUP3 MLOAD DUP2 LT ISZERO PUSH2 0x777 JUMPI PUSH2 0x6E9 DUP4 DUP3 DUP2 MLOAD DUP2 LT PUSH2 0x6C9 JUMPI INVALID JUMPDEST PUSH1 0x20 MUL PUSH1 0x20 ADD ADD MLOAD DUP10 PUSH1 0x1 PUSH1 0x1 PUSH1 0xA0 SHL SUB AND PUSH2 0x8D9 SWAP1 SWAP2 SWAP1 PUSH4 0xFFFFFFFF AND JUMP JUMPDEST ISZERO PUSH2 0x706 JUMPI PUSH1 0x40 MLOAD PUSH3 0x461BCD PUSH1 0xE5 SHL DUP2 MSTORE PUSH1 0x4 ADD PUSH2 0x1D1 SWAP1 PUSH2 0x174B JUMP JUMPDEST PUSH2 0x758 DUP8 PUSH2 0x74C DUP11 PUSH1 0x1 PUSH1 0x1 PUSH1 0xA0 SHL SUB AND PUSH4 0x66CB8D2F DUP8 DUP7 DUP2 MLOAD DUP2 LT PUSH2 0x728 JUMPI INVALID JUMPDEST PUSH1 0x20 MUL PUSH1 0x20 ADD ADD MLOAD PUSH1 0x40 MLOAD DUP3 PUSH4 0xFFFFFFFF AND PUSH1 0xE0 SHL DUP2 MSTORE PUSH1 0x4 ADD PUSH2 0x370 SWAP2 SWAP1 PUSH2 0x14F8 JUMP JUMPDEST SWAP1 PUSH4 0xFFFFFFFF PUSH2 0xBB3 AND JUMP JUMPDEST DUP3 DUP3 DUP2 MLOAD DUP2 LT PUSH2 0x764 JUMPI INVALID JUMPDEST PUSH1 0x20 SWAP1 DUP2 MUL SWAP2 SWAP1 SWAP2 ADD ADD MSTORE PUSH1 0x1 ADD PUSH2 0x6B1 JUMP JUMPDEST POP SWAP1 SWAP7 SWAP1 SWAP6 POP SWAP4 POP POP POP POP JUMP JUMPDEST PUSH1 0x40 MLOAD PUSH3 0x461BCD PUSH1 0xE5 SHL DUP2 MSTORE PUSH1 0x4 ADD PUSH2 0x1D1 SWAP1 PUSH2 0x16FB JUMP JUMPDEST PUSH1 0x2 PUSH1 0x20 MSTORE PUSH1 0x0 SWAP1 DUP2 MSTORE PUSH1 0x40 SWAP1 KECCAK256 SLOAD PUSH1 0x1 PUSH1 0x1 PUSH1 0xA0 SHL SUB AND DUP2 JUMP JUMPDEST PUSH1 0x0 SLOAD PUSH1 0x1 PUSH1 0x1 PUSH1 0xA0 SHL SUB AND DUP2 JUMP JUMPDEST PUSH2 0x7D0 DUP3 DUP3 PUSH2 0xC0A JUMP JUMPDEST PUSH2 0x7EC JUMPI PUSH1 0x40 MLOAD PUSH3 0x461BCD PUSH1 0xE5 SHL DUP2 MSTORE PUSH1 0x4 ADD PUSH2 0x1D1 SWAP1 PUSH2 0x1992 JUMP JUMPDEST POP POP JUMP JUMPDEST PUSH1 0x0 SLOAD PUSH1 0x40 MLOAD PUSH4 0x1D3AF8FB PUSH1 0xE2 SHL DUP2 MSTORE PUSH1 0x1 PUSH1 0x1 PUSH1 0xA0 SHL SUB SWAP1 SWAP2 AND SWAP1 PUSH4 0x74EBE3EC SWAP1 PUSH2 0x820 SWAP1 DUP5 SWAP1 PUSH1 0x4 ADD PUSH2 0x14F8 JUMP JUMPDEST PUSH1 0x20 PUSH1 0x40 MLOAD DUP1 DUP4 SUB DUP2 DUP7 DUP1 EXTCODESIZE ISZERO DUP1 ISZERO PUSH2 0x838 JUMPI PUSH1 0x0 DUP1 REVERT JUMPDEST POP GAS STATICCALL ISZERO DUP1 ISZERO PUSH2 0x84C JUMPI RETURNDATASIZE PUSH1 0x0 DUP1 RETURNDATACOPY RETURNDATASIZE PUSH1 0x0 REVERT JUMPDEST POP POP POP POP PUSH1 0x40 MLOAD RETURNDATASIZE PUSH1 0x1F NOT PUSH1 0x1F DUP3 ADD AND DUP3 ADD DUP1 PUSH1 0x40 MSTORE POP DUP2 ADD SWAP1 PUSH2 0x870 SWAP2 SWAP1 PUSH2 0x1317 JUMP JUMPDEST PUSH2 0x88C JUMPI PUSH1 0x40 MLOAD PUSH3 0x461BCD PUSH1 0xE5 SHL DUP2 MSTORE PUSH1 0x4 ADD PUSH2 0x1D1 SWAP1 PUSH2 0x194F JUMP JUMPDEST PUSH2 0x895 DUP2 PUSH2 0xC98 JUMP JUMPDEST PUSH2 0x8B1 JUMPI PUSH1 0x40 MLOAD PUSH3 0x461BCD PUSH1 0xE5 SHL DUP2 MSTORE PUSH1 0x4 ADD PUSH2 0x1D1 SWAP1 PUSH2 0x178F JUMP JUMPDEST POP JUMP JUMPDEST PUSH2 0x8BD DUP2 PUSH2 0xD17 JUMP JUMPDEST PUSH2 0x8B1 JUMPI PUSH1 0x40 MLOAD PUSH3 0x461BCD PUSH1 0xE5 SHL DUP2 MSTORE PUSH1 0x4 ADD PUSH2 0x1D1 SWAP1 PUSH2 0x1645 JUMP JUMPDEST PUSH1 0x0 DUP1 DUP4 PUSH1 0x1 PUSH1 0x1 PUSH1 0xA0 SHL SUB AND PUSH4 0xA7BDAD03 DUP5 PUSH1 0x40 MLOAD DUP3 PUSH4 0xFFFFFFFF AND PUSH1 0xE0 SHL DUP2 MSTORE PUSH1 0x4 ADD PUSH2 0x908 SWAP2 SWAP1 PUSH2 0x14F8 JUMP JUMPDEST PUSH1 0x0 PUSH1 0x40 MLOAD DUP1 DUP4 SUB DUP2 DUP7 DUP1 EXTCODESIZE ISZERO DUP1 ISZERO PUSH2 0x920 JUMPI PUSH1 0x0 DUP1 REVERT JUMPDEST POP GAS STATICCALL ISZERO DUP1 ISZERO PUSH2 0x934 JUMPI RETURNDATASIZE PUSH1 0x0 DUP1 RETURNDATACOPY RETURNDATASIZE PUSH1 0x0 REVERT JUMPDEST POP POP POP POP PUSH1 0x40 MLOAD RETURNDATASIZE PUSH1 0x0 DUP3 RETURNDATACOPY PUSH1 0x1F RETURNDATASIZE SWAP1 DUP2 ADD PUSH1 0x1F NOT AND DUP3 ADD PUSH1 0x40 MSTORE PUSH2 0x95C SWAP2 SWAP1 DUP2 ADD SWAP1 PUSH2 0x126C JUMP JUMPDEST MLOAD GT SWAP1 POP JUMPDEST SWAP3 SWAP2 POP POP JUMP JUMPDEST PUSH1 0x0 DUP1 DUP3 SLT ISZERO PUSH2 0x989 JUMPI PUSH1 0x40 MLOAD PUSH3 0x461BCD PUSH1 0xE5 SHL DUP2 MSTORE PUSH1 0x4 ADD PUSH2 0x1D1 SWAP1 PUSH2 0x186B JUMP JUMPDEST POP SWAP1 JUMP JUMPDEST PUSH1 0x0 PUSH2 0x9B7 PUSH8 0xDE0B6B3A7640000 PUSH2 0x9AB DUP6 DUP6 PUSH4 0xFFFFFFFF PUSH2 0xDCB AND JUMP JUMPDEST SWAP1 PUSH4 0xFFFFFFFF PUSH2 0xE05 AND JUMP JUMPDEST SWAP4 SWAP3 POP POP POP JUMP JUMPDEST DUP1 ISZERO PUSH2 0xB03 JUMPI PUSH1 0x40 MLOAD PUSH4 0x70A08231 PUSH1 0xE0 SHL DUP2 MSTORE PUSH1 0x0 SWAP1 PUSH1 0x1 PUSH1 0x1 PUSH1 0xA0 SHL SUB DUP6 AND SWAP1 PUSH4 0x70A08231 SWAP1 PUSH2 0x9F3 SWAP1 DUP9 SWAP1 PUSH1 0x4 ADD PUSH2 0x14F8 JUMP JUMPDEST PUSH1 0x20 PUSH1 0x40 MLOAD DUP1 DUP4 SUB DUP2 DUP7 DUP1 EXTCODESIZE ISZERO DUP1 ISZERO PUSH2 0xA0B JUMPI PUSH1 0x0 DUP1 REVERT JUMPDEST POP GAS STATICCALL ISZERO DUP1 ISZERO PUSH2 0xA1F JUMPI RETURNDATASIZE PUSH1 0x0 DUP1 RETURNDATACOPY RETURNDATASIZE PUSH1 0x0 REVERT JUMPDEST POP POP POP POP PUSH1 0x40 MLOAD RETURNDATASIZE PUSH1 0x1F NOT PUSH1 0x1F DUP3 ADD AND DUP3 ADD DUP1 PUSH1 0x40 MSTORE POP DUP2 ADD SWAP1 PUSH2 0xA43 SWAP2 SWAP1 PUSH2 0x1483 JUMP JUMPDEST SWAP1 POP PUSH2 0xA51 DUP6 DUP6 DUP6 DUP6 PUSH2 0xE37 JUMP JUMPDEST PUSH1 0x40 MLOAD PUSH4 0x70A08231 PUSH1 0xE0 SHL DUP2 MSTORE PUSH1 0x0 SWAP1 PUSH1 0x1 PUSH1 0x1 PUSH1 0xA0 SHL SUB DUP7 AND SWAP1 PUSH4 0x70A08231 SWAP1 PUSH2 0xA80 SWAP1 DUP10 SWAP1 PUSH1 0x4 ADD PUSH2 0x14F8 JUMP JUMPDEST PUSH1 0x20 PUSH1 0x40 MLOAD DUP1 DUP4 SUB DUP2 DUP7 DUP1 EXTCODESIZE ISZERO DUP1 ISZERO PUSH2 0xA98 JUMPI PUSH1 0x0 DUP1 REVERT JUMPDEST POP GAS STATICCALL ISZERO DUP1 ISZERO PUSH2 0xAAC JUMPI RETURNDATASIZE PUSH1 0x0 DUP1 RETURNDATACOPY RETURNDATASIZE PUSH1 0x0 REVERT JUMPDEST POP POP POP POP PUSH1 0x40 MLOAD RETURNDATASIZE PUSH1 0x1F NOT PUSH1 0x1F DUP3 ADD AND DUP3 ADD DUP1 PUSH1 0x40 MSTORE POP DUP2 ADD SWAP1 PUSH2 0xAD0 SWAP2 SWAP1 PUSH2 0x1483 JUMP JUMPDEST SWAP1 POP PUSH2 0xAE2 DUP3 DUP5 PUSH4 0xFFFFFFFF PUSH2 0xF04 AND JUMP JUMPDEST DUP2 EQ PUSH2 0xB00 JUMPI PUSH1 0x40 MLOAD PUSH3 0x461BCD PUSH1 0xE5 SHL DUP2 MSTORE PUSH1 0x4 ADD PUSH2 0x1D1 SWAP1 PUSH2 0x18E1 JUMP JUMPDEST POP POP JUMPDEST POP POP POP POP JUMP JUMPDEST PUSH1 0x1 PUSH1 0x1 PUSH1 0xA0 SHL SUB DUP1 DUP6 AND PUSH1 0x0 SWAP1 DUP2 MSTORE PUSH1 0x2 PUSH1 0x20 MSTORE PUSH1 0x40 DUP2 KECCAK256 SLOAD SWAP1 SWAP2 AND DUP1 ISZERO PUSH2 0xB99 JUMPI PUSH1 0x40 MLOAD PUSH4 0xA0458083 PUSH1 0xE0 SHL DUP2 MSTORE PUSH1 0x1 PUSH1 0x1 PUSH1 0xA0 SHL SUB DUP3 AND SWAP1 PUSH4 0xA0458083 SWAP1 PUSH2 0xB5E SWAP1 DUP10 SWAP1 DUP10 SWAP1 DUP10 SWAP1 DUP10 SWAP1 PUSH1 0x4 ADD PUSH2 0x1607 JUMP JUMPDEST PUSH1 0x0 PUSH1 0x40 MLOAD DUP1 DUP4 SUB DUP2 PUSH1 0x0 DUP8 DUP1 EXTCODESIZE ISZERO DUP1 ISZERO PUSH2 0xB78 JUMPI PUSH1 0x0 DUP1 REVERT JUMPDEST POP GAS CALL ISZERO DUP1 ISZERO PUSH2 0xB8C JUMPI RETURNDATASIZE PUSH1 0x0 DUP1 RETURNDATACOPY RETURNDATASIZE PUSH1 0x0 REVERT JUMPDEST POP POP POP POP DUP1 SWAP2 POP POP PUSH2 0xB9F JUMP JUMPDEST PUSH1 0x0 SWAP2 POP POP JUMPDEST SWAP5 SWAP4 POP POP POP POP JUMP JUMPDEST PUSH2 0xB03 DUP5 DUP5 DUP5 DUP5 PUSH2 0xF2C JUMP JUMPDEST PUSH1 0x0 DUP3 ISZERO DUP1 PUSH2 0xBC0 JUMPI POP DUP2 ISZERO JUMPDEST ISZERO PUSH2 0xBCD JUMPI POP PUSH1 0x0 PUSH2 0x961 JUMP JUMPDEST PUSH2 0x9B7 PUSH1 0x1 PUSH2 0xBFE PUSH8 0xDE0B6B3A7640000 PUSH2 0x9AB DUP4 PUSH2 0xBF2 DUP10 DUP10 PUSH4 0xFFFFFFFF PUSH2 0xDCB AND JUMP JUMPDEST SWAP1 PUSH4 0xFFFFFFFF PUSH2 0xF04 AND JUMP JUMPDEST SWAP1 PUSH4 0xFFFFFFFF PUSH2 0x1050 AND JUMP JUMPDEST PUSH1 0x0 DUP2 PUSH1 0x1 PUSH1 0x1 PUSH1 0xA0 SHL SUB AND DUP4 PUSH1 0x1 PUSH1 0x1 PUSH1 0xA0 SHL SUB AND PUSH4 0x481C6A75 PUSH1 0x40 MLOAD DUP2 PUSH4 0xFFFFFFFF AND PUSH1 0xE0 SHL DUP2 MSTORE PUSH1 0x4 ADD PUSH1 0x20 PUSH1 0x40 MLOAD DUP1 DUP4 SUB DUP2 DUP7 DUP1 EXTCODESIZE ISZERO DUP1 ISZERO PUSH2 0xC4F JUMPI PUSH1 0x0 DUP1 REVERT JUMPDEST POP GAS STATICCALL ISZERO DUP1 ISZERO PUSH2 0xC63 JUMPI RETURNDATASIZE PUSH1 0x0 DUP1 RETURNDATACOPY RETURNDATASIZE PUSH1 0x0 REVERT JUMPDEST POP POP POP POP PUSH1 0x40 MLOAD RETURNDATASIZE PUSH1 0x1F NOT PUSH1 0x1F DUP3 ADD AND DUP3 ADD DUP1 PUSH1 0x40 MSTORE POP DUP2 ADD SWAP1 PUSH2 0xC87 SWAP2 SWAP1 PUSH2 0x1250 JUMP JUMPDEST PUSH1 0x1 PUSH1 0x1 PUSH1 0xA0 SHL SUB AND EQ SWAP4 SWAP3 POP POP POP JUMP JUMPDEST PUSH1 0x40 MLOAD PUSH4 0x53BAE5F7 PUSH1 0xE0 SHL DUP2 MSTORE PUSH1 0x0 SWAP1 PUSH1 0x1 PUSH1 0x1 PUSH1 0xA0 SHL SUB DUP4 AND SWAP1 PUSH4 0x53BAE5F7 SWAP1 PUSH2 0xCC7 SWAP1 ADDRESS SWAP1 PUSH1 0x4 ADD PUSH2 0x14F8 JUMP JUMPDEST PUSH1 0x20 PUSH1 0x40 MLOAD DUP1 DUP4 SUB DUP2 DUP7 DUP1 EXTCODESIZE ISZERO DUP1 ISZERO PUSH2 0xCDF JUMPI PUSH1 0x0 DUP1 REVERT JUMPDEST POP GAS STATICCALL ISZERO DUP1 ISZERO PUSH2 0xCF3 JUMPI RETURNDATASIZE PUSH1 0x0 DUP1 RETURNDATACOPY RETURNDATASIZE PUSH1 0x0 REVERT JUMPDEST POP POP POP POP PUSH1 0x40 MLOAD RETURNDATASIZE PUSH1 0x1F NOT PUSH1 0x1F DUP3 ADD AND DUP3 ADD DUP1 PUSH1 0x40 MSTORE POP DUP2 ADD SWAP1 PUSH2 0x961 SWAP2 SWAP1 PUSH2 0x1317 JUMP JUMPDEST PUSH1 0x0 DUP1 SLOAD PUSH1 0x40 MLOAD PUSH4 0x1D3AF8FB PUSH1 0xE2 SHL DUP2 MSTORE PUSH1 0x1 PUSH1 0x1 PUSH1 0xA0 SHL SUB SWAP1 SWAP2 AND SWAP1 PUSH4 0x74EBE3EC SWAP1 PUSH2 0xD48 SWAP1 DUP6 SWAP1 PUSH1 0x4 ADD PUSH2 0x14F8 JUMP JUMPDEST PUSH1 0x20 PUSH1 0x40 MLOAD DUP1 DUP4 SUB DUP2 DUP7 DUP1 EXTCODESIZE ISZERO DUP1 ISZERO PUSH2 0xD60 JUMPI PUSH1 0x0 DUP1 REVERT JUMPDEST POP GAS STATICCALL ISZERO DUP1 ISZERO PUSH2 0xD74 JUMPI RETURNDATASIZE PUSH1 0x0 DUP1 RETURNDATACOPY RETURNDATASIZE PUSH1 0x0 REVERT JUMPDEST POP POP POP POP PUSH1 0x40 MLOAD RETURNDATASIZE PUSH1 0x1F NOT PUSH1 0x1F DUP3 ADD AND DUP3 ADD DUP1 PUSH1 0x40 MSTORE POP DUP2 ADD SWAP1 PUSH2 0xD98 SWAP2 SWAP1 PUSH2 0x1317 JUMP JUMPDEST DUP1 ISZERO PUSH2 0x961 JUMPI POP PUSH1 0x40 MLOAD PUSH4 0x35FC6C9F PUSH1 0xE2 SHL DUP2 MSTORE PUSH1 0x1 PUSH1 0x1 PUSH1 0xA0 SHL SUB DUP4 AND SWAP1 PUSH4 0xD7F1B27C SWAP1 PUSH2 0xCC7 SWAP1 ADDRESS SWAP1 PUSH1 0x4 ADD PUSH2 0x14F8 JUMP JUMPDEST PUSH1 0x0 DUP3 PUSH2 0xDDA JUMPI POP PUSH1 0x0 PUSH2 0x961 JUMP JUMPDEST DUP3 DUP3 MUL DUP3 DUP5 DUP3 DUP2 PUSH2 0xDE7 JUMPI INVALID JUMPDEST DIV EQ PUSH2 0x9B7 JUMPI PUSH1 0x40 MLOAD PUSH3 0x461BCD PUSH1 0xE5 SHL DUP2 MSTORE PUSH1 0x4 ADD PUSH2 0x1D1 SWAP1 PUSH2 0x18A0 JUMP JUMPDEST PUSH1 0x0 DUP1 DUP3 GT PUSH2 0xE26 JUMPI PUSH1 0x40 MLOAD PUSH3 0x461BCD PUSH1 0xE5 SHL DUP2 MSTORE PUSH1 0x4 ADD PUSH2 0x1D1 SWAP1 PUSH2 0x1834 JUMP JUMPDEST DUP2 DUP4 DUP2 PUSH2 0xE2F JUMPI INVALID JUMPDEST DIV SWAP4 SWAP3 POP POP POP JUMP JUMPDEST DUP1 ISZERO PUSH2 0xB03 JUMPI PUSH1 0x60 DUP3 DUP3 PUSH1 0x40 MLOAD PUSH1 0x24 ADD PUSH2 0xE52 SWAP3 SWAP2 SWAP1 PUSH2 0x150C JUMP JUMPDEST PUSH1 0x40 DUP1 MLOAD PUSH1 0x1F NOT DUP2 DUP5 SUB ADD DUP2 MSTORE SWAP2 DUP2 MSTORE PUSH1 0x20 DUP3 ADD DUP1 MLOAD PUSH1 0x1 PUSH1 0x1 PUSH1 0xE0 SHL SUB AND PUSH4 0xA9059CBB PUSH1 0xE0 SHL OR SWAP1 MSTORE MLOAD PUSH4 0x47B78199 PUSH1 0xE1 SHL DUP2 MSTORE SWAP1 SWAP2 POP PUSH1 0x1 PUSH1 0x1 PUSH1 0xA0 SHL SUB DUP7 AND SWAP1 PUSH4 0x8F6F0332 SWAP1 PUSH2 0xEAE SWAP1 DUP8 SWAP1 PUSH1 0x0 SWAP1 DUP7 SWAP1 PUSH1 0x4 ADD PUSH2 0x1549 JUMP JUMPDEST PUSH1 0x0 PUSH1 0x40 MLOAD DUP1 DUP4 SUB DUP2 PUSH1 0x0 DUP8 DUP1 EXTCODESIZE ISZERO DUP1 ISZERO PUSH2 0xEC8 JUMPI PUSH1 0x0 DUP1 REVERT JUMPDEST POP GAS CALL ISZERO DUP1 ISZERO PUSH2 0xEDC JUMPI RETURNDATASIZE PUSH1 0x0 DUP1 RETURNDATACOPY RETURNDATASIZE PUSH1 0x0 REVERT JUMPDEST POP POP POP POP PUSH1 0x40 MLOAD RETURNDATASIZE PUSH1 0x0 DUP3 RETURNDATACOPY PUSH1 0x1F RETURNDATASIZE SWAP1 DUP2 ADD PUSH1 0x1F NOT AND DUP3 ADD PUSH1 0x40 MSTORE PUSH2 0xB00 SWAP2 SWAP1 DUP2 ADD SWAP1 PUSH2 0x1337 JUMP JUMPDEST PUSH1 0x0 DUP3 DUP3 GT ISZERO PUSH2 0xF26 JUMPI PUSH1 0x40 MLOAD PUSH3 0x461BCD PUSH1 0xE5 SHL DUP2 MSTORE PUSH1 0x4 ADD PUSH2 0x1D1 SWAP1 PUSH2 0x17FD JUMP JUMPDEST POP SWAP1 SUB SWAP1 JUMP JUMPDEST DUP1 ISZERO PUSH2 0xB03 JUMPI PUSH1 0x40 MLOAD PUSH4 0x70A08231 PUSH1 0xE0 SHL DUP2 MSTORE PUSH1 0x0 SWAP1 PUSH1 0x1 PUSH1 0x1 PUSH1 0xA0 SHL SUB DUP7 AND SWAP1 PUSH4 0x70A08231 SWAP1 PUSH2 0xF61 SWAP1 DUP7 SWAP1 PUSH1 0x4 ADD PUSH2 0x14F8 JUMP JUMPDEST PUSH1 0x20 PUSH1 0x40 MLOAD DUP1 DUP4 SUB DUP2 DUP7 DUP1 EXTCODESIZE ISZERO DUP1 ISZERO PUSH2 0xF79 JUMPI PUSH1 0x0 DUP1 REVERT JUMPDEST POP GAS STATICCALL ISZERO DUP1 ISZERO PUSH2 0xF8D JUMPI RETURNDATASIZE PUSH1 0x0 DUP1 RETURNDATACOPY RETURNDATASIZE PUSH1 0x0 REVERT JUMPDEST POP POP POP POP PUSH1 0x40 MLOAD RETURNDATASIZE PUSH1 0x1F NOT PUSH1 0x1F DUP3 ADD AND DUP3 ADD DUP1 PUSH1 0x40 MSTORE POP DUP2 ADD SWAP1 PUSH2 0xFB1 SWAP2 SWAP1 PUSH2 0x1483 JUMP JUMPDEST SWAP1 POP PUSH2 0xFBF DUP6 DUP6 DUP6 DUP6 PUSH2 0x1075 JUMP JUMPDEST PUSH1 0x40 MLOAD PUSH4 0x70A08231 PUSH1 0xE0 SHL DUP2 MSTORE PUSH1 0x0 SWAP1 PUSH1 0x1 PUSH1 0x1 PUSH1 0xA0 SHL SUB DUP8 AND SWAP1 PUSH4 0x70A08231 SWAP1 PUSH2 0xFEE SWAP1 DUP8 SWAP1 PUSH1 0x4 ADD PUSH2 0x14F8 JUMP JUMPDEST PUSH1 0x20 PUSH1 0x40 MLOAD DUP1 DUP4 SUB DUP2 DUP7 DUP1 EXTCODESIZE ISZERO DUP1 ISZERO PUSH2 0x1006 JUMPI PUSH1 0x0 DUP1 REVERT JUMPDEST POP GAS STATICCALL ISZERO DUP1 ISZERO PUSH2 0x101A JUMPI RETURNDATASIZE PUSH1 0x0 DUP1 RETURNDATACOPY RETURNDATASIZE PUSH1 0x0 REVERT JUMPDEST POP POP POP POP PUSH1 0x40 MLOAD RETURNDATASIZE PUSH1 0x1F NOT PUSH1 0x1F DUP3 ADD AND DUP3 ADD DUP1 PUSH1 0x40 MSTORE POP DUP2 ADD SWAP1 PUSH2 0x103E SWAP2 SWAP1 PUSH2 0x1483 JUMP JUMPDEST SWAP1 POP PUSH2 0xAE2 DUP3 DUP5 PUSH4 0xFFFFFFFF PUSH2 0x1050 AND JUMP JUMPDEST PUSH1 0x0 DUP3 DUP3 ADD DUP4 DUP2 LT ISZERO PUSH2 0x9B7 JUMPI PUSH1 0x40 MLOAD PUSH3 0x461BCD PUSH1 0xE5 SHL DUP2 MSTORE PUSH1 0x4 ADD PUSH2 0x1D1 SWAP1 PUSH2 0x16C4 JUMP JUMPDEST PUSH2 0xB03 DUP5 PUSH4 0x23B872DD PUSH1 0xE0 SHL DUP6 DUP6 DUP6 PUSH1 0x40 MLOAD PUSH1 0x24 ADD PUSH2 0x1096 SWAP4 SWAP3 SWAP2 SWAP1 PUSH2 0x1525 JUMP JUMPDEST PUSH1 0x40 DUP1 MLOAD PUSH1 0x1F NOT DUP2 DUP5 SUB ADD DUP2 MSTORE SWAP2 SWAP1 MSTORE PUSH1 0x20 DUP2 ADD DUP1 MLOAD PUSH1 0x1 PUSH1 0x1 PUSH1 0xE0 SHL SUB AND PUSH1 0x1 PUSH1 0x1 PUSH1 0xE0 SHL SUB NOT SWAP1 SWAP4 AND SWAP3 SWAP1 SWAP3 OR SWAP1 SWAP2 MSTORE PUSH1 0x60 PUSH2 0x111D DUP3 PUSH1 0x40 MLOAD DUP1 PUSH1 0x40 ADD PUSH1 0x40 MSTORE DUP1 PUSH1 0x20 DUP2 MSTORE PUSH1 0x20 ADD PUSH32 0x5361666545524332303A206C6F772D6C6576656C2063616C6C206661696C6564 DUP2 MSTORE POP DUP6 PUSH1 0x1 PUSH1 0x1 PUSH1 0xA0 SHL SUB AND PUSH2 0x115C SWAP1 SWAP3 SWAP2 SWAP1 PUSH4 0xFFFFFFFF AND JUMP JUMPDEST DUP1 MLOAD SWAP1 SWAP2 POP ISZERO PUSH2 0x1157 JUMPI DUP1 DUP1 PUSH1 0x20 ADD SWAP1 MLOAD DUP2 ADD SWAP1 PUSH2 0x113B SWAP2 SWAP1 PUSH2 0x1317 JUMP JUMPDEST PUSH2 0x1157 JUMPI PUSH1 0x40 MLOAD PUSH3 0x461BCD PUSH1 0xE5 SHL DUP2 MSTORE PUSH1 0x4 ADD PUSH2 0x1D1 SWAP1 PUSH2 0x19C9 JUMP JUMPDEST POP POP POP JUMP JUMPDEST PUSH1 0x60 PUSH2 0xB9F DUP5 DUP5 PUSH1 0x0 DUP6 DUP6 PUSH2 0x1170 DUP6 PUSH2 0x1206 JUMP JUMPDEST PUSH2 0x118C JUMPI PUSH1 0x40 MLOAD PUSH3 0x461BCD PUSH1 0xE5 SHL DUP2 MSTORE PUSH1 0x4 ADD PUSH2 0x1D1 SWAP1 PUSH2 0x1918 JUMP JUMPDEST PUSH1 0x0 PUSH1 0x60 DUP7 PUSH1 0x1 PUSH1 0x1 PUSH1 0xA0 SHL SUB AND DUP6 DUP8 PUSH1 0x40 MLOAD PUSH2 0x11A9 SWAP2 SWAP1 PUSH2 0x14DC JUMP JUMPDEST PUSH1 0x0 PUSH1 0x40 MLOAD DUP1 DUP4 SUB DUP2 DUP6 DUP8 GAS CALL SWAP3 POP POP POP RETURNDATASIZE DUP1 PUSH1 0x0 DUP2 EQ PUSH2 0x11E6 JUMPI PUSH1 0x40 MLOAD SWAP2 POP PUSH1 0x1F NOT PUSH1 0x3F RETURNDATASIZE ADD AND DUP3 ADD PUSH1 0x40 MSTORE RETURNDATASIZE DUP3 MSTORE RETURNDATASIZE PUSH1 0x0 PUSH1 0x20 DUP5 ADD RETURNDATACOPY PUSH2 0x11EB JUMP JUMPDEST PUSH1 0x60 SWAP2 POP JUMPDEST POP SWAP2 POP SWAP2 POP PUSH2 0x11FB DUP3 DUP3 DUP7 PUSH2 0x120C JUMP JUMPDEST SWAP8 SWAP7 POP POP POP POP POP POP POP JUMP JUMPDEST EXTCODESIZE ISZERO ISZERO SWAP1 JUMP JUMPDEST PUSH1 0x60 DUP4 ISZERO PUSH2 0x121B JUMPI POP DUP2 PUSH2 0x9B7 JUMP JUMPDEST DUP3 MLOAD ISZERO PUSH2 0x122B JUMPI DUP3 MLOAD DUP1 DUP5 PUSH1 0x20 ADD REVERT JUMPDEST DUP2 PUSH1 0x40 MLOAD PUSH3 0x461BCD PUSH1 0xE5 SHL DUP2 MSTORE PUSH1 0x4 ADD PUSH2 0x1D1 SWAP2 SWAP1 PUSH2 0x1632 JUMP JUMPDEST DUP1 MLOAD PUSH2 0x961 DUP2 PUSH2 0x1AA6 JUMP JUMPDEST PUSH1 0x0 PUSH1 0x20 DUP3 DUP5 SUB SLT ISZERO PUSH2 0x1261 JUMPI DUP1 DUP2 REVERT JUMPDEST DUP2 MLOAD PUSH2 0x9B7 DUP2 PUSH2 0x1AA6 JUMP JUMPDEST PUSH1 0x0 PUSH1 0x20 DUP1 DUP4 DUP6 SUB SLT ISZERO PUSH2 0x127E JUMPI DUP2 DUP3 REVERT JUMPDEST DUP3 MLOAD PUSH8 0xFFFFFFFFFFFFFFFF DUP1 DUP3 GT ISZERO PUSH2 0x1295 JUMPI DUP4 DUP5 REVERT JUMPDEST DUP2 DUP6 ADD DUP7 PUSH1 0x1F DUP3 ADD SLT PUSH2 0x12A6 JUMPI DUP5 DUP6 REVERT JUMPDEST DUP1 MLOAD SWAP3 POP DUP2 DUP4 GT ISZERO PUSH2 0x12B6 JUMPI DUP5 DUP6 REVERT JUMPDEST DUP4 DUP4 MUL SWAP2 POP PUSH2 0x12C6 DUP5 DUP4 ADD PUSH2 0x1A53 JUMP JUMPDEST DUP4 DUP2 MSTORE DUP5 DUP2 ADD SWAP1 DUP3 DUP7 ADD DUP5 DUP5 ADD DUP8 ADD DUP11 LT ISZERO PUSH2 0x12E0 JUMPI DUP8 DUP9 REVERT JUMPDEST DUP8 SWAP5 POP JUMPDEST DUP6 DUP6 LT ISZERO PUSH2 0x130A JUMPI PUSH2 0x12F6 DUP11 DUP3 PUSH2 0x1245 JUMP JUMPDEST DUP4 MSTORE PUSH1 0x1 SWAP5 SWAP1 SWAP5 ADD SWAP4 SWAP2 DUP7 ADD SWAP2 DUP7 ADD PUSH2 0x12E4 JUMP JUMPDEST POP SWAP9 SWAP8 POP POP POP POP POP POP POP POP JUMP JUMPDEST PUSH1 0x0 PUSH1 0x20 DUP3 DUP5 SUB SLT ISZERO PUSH2 0x1328 JUMPI DUP1 DUP2 REVERT JUMPDEST DUP2 MLOAD DUP1 ISZERO ISZERO DUP2 EQ PUSH2 0x9B7 JUMPI DUP2 DUP3 REVERT JUMPDEST PUSH1 0x0 PUSH1 0x20 DUP3 DUP5 SUB SLT ISZERO PUSH2 0x1348 JUMPI DUP1 DUP2 REVERT JUMPDEST DUP2 MLOAD PUSH8 0xFFFFFFFFFFFFFFFF DUP1 DUP3 GT ISZERO PUSH2 0x135F JUMPI DUP3 DUP4 REVERT JUMPDEST DUP2 DUP5 ADD DUP6 PUSH1 0x1F DUP3 ADD SLT PUSH2 0x1370 JUMPI DUP4 DUP5 REVERT JUMPDEST DUP1 MLOAD SWAP3 POP DUP2 DUP4 GT ISZERO PUSH2 0x1380 JUMPI DUP4 DUP5 REVERT JUMPDEST PUSH2 0x1393 PUSH1 0x1F DUP5 ADD PUSH1 0x1F NOT AND PUSH1 0x20 ADD PUSH2 0x1A53 JUMP JUMPDEST SWAP2 POP DUP3 DUP3 MSTORE DUP6 PUSH1 0x20 DUP5 DUP4 ADD ADD GT ISZERO PUSH2 0x13A9 JUMPI DUP4 DUP5 REVERT JUMPDEST PUSH2 0x13BA DUP4 PUSH1 0x20 DUP5 ADD PUSH1 0x20 DUP5 ADD PUSH2 0x1A7A JUMP JUMPDEST POP SWAP5 SWAP4 POP POP POP POP JUMP JUMPDEST PUSH1 0x0 PUSH1 0x20 DUP3 DUP5 SUB SLT ISZERO PUSH2 0x13D4 JUMPI DUP1 DUP2 REVERT JUMPDEST DUP2 CALLDATALOAD PUSH2 0x9B7 DUP2 PUSH2 0x1AA6 JUMP JUMPDEST PUSH1 0x0 DUP1 PUSH1 0x40 DUP4 DUP6 SUB SLT ISZERO PUSH2 0x13F1 JUMPI DUP1 DUP2 REVERT JUMPDEST DUP3 CALLDATALOAD PUSH2 0x13FC DUP2 PUSH2 0x1AA6 JUMP JUMPDEST SWAP2 POP PUSH1 0x20 DUP4 ADD CALLDATALOAD PUSH2 0x140C DUP2 PUSH2 0x1AA6 JUMP JUMPDEST DUP1 SWAP2 POP POP SWAP3 POP SWAP3 SWAP1 POP JUMP JUMPDEST PUSH1 0x0 DUP1 PUSH1 0x40 DUP4 DUP6 SUB SLT ISZERO PUSH2 0x1429 JUMPI DUP2 DUP3 REVERT JUMPDEST DUP3 CALLDATALOAD PUSH2 0x1434 DUP2 PUSH2 0x1AA6 JUMP JUMPDEST SWAP5 PUSH1 0x20 SWAP4 SWAP1 SWAP4 ADD CALLDATALOAD SWAP4 POP POP POP JUMP JUMPDEST PUSH1 0x0 DUP1 PUSH1 0x0 PUSH1 0x60 DUP5 DUP7 SUB SLT ISZERO PUSH2 0x1456 JUMPI DUP1 DUP2 REVERT JUMPDEST DUP4 CALLDATALOAD PUSH2 0x1461 DUP2 PUSH2 0x1AA6 JUMP JUMPDEST SWAP3 POP PUSH1 0x20 DUP5 ADD CALLDATALOAD SWAP2 POP PUSH1 0x40 DUP5 ADD CALLDATALOAD PUSH2 0x1478 DUP2 PUSH2 0x1AA6 JUMP JUMPDEST DUP1 SWAP2 POP POP SWAP3 POP SWAP3 POP SWAP3 JUMP JUMPDEST PUSH1 0x0 PUSH1 0x20 DUP3 DUP5 SUB SLT ISZERO PUSH2 0x1494 JUMPI DUP1 DUP2 REVERT JUMPDEST POP MLOAD SWAP2 SWAP1 POP JUMP JUMPDEST DUP2 MSTORE PUSH1 0x20 ADD SWAP1 JUMP JUMPDEST PUSH1 0x1 PUSH1 0x1 PUSH1 0xA0 SHL SUB AND SWAP1 MSTORE JUMP JUMPDEST PUSH1 0x0 DUP2 MLOAD DUP1 DUP5 MSTORE PUSH2 0x14C8 DUP2 PUSH1 0x20 DUP7 ADD PUSH1 0x20 DUP7 ADD PUSH2 0x1A7A JUMP JUMPDEST PUSH1 0x1F ADD PUSH1 0x1F NOT AND SWAP3 SWAP1 SWAP3 ADD PUSH1 0x20 ADD SWAP3 SWAP2 POP POP JUMP JUMPDEST PUSH1 0x0 DUP3 MLOAD PUSH2 0x14EE DUP2 DUP5 PUSH1 0x20 DUP8 ADD PUSH2 0x1A7A JUMP JUMPDEST SWAP2 SWAP1 SWAP2 ADD SWAP3 SWAP2 POP POP JUMP JUMPDEST PUSH1 0x1 PUSH1 0x1 PUSH1 0xA0 SHL SUB SWAP2 SWAP1 SWAP2 AND DUP2 MSTORE PUSH1 0x20 ADD SWAP1 JUMP JUMPDEST PUSH1 0x1 PUSH1 0x1 PUSH1 0xA0 SHL SUB SWAP3 SWAP1 SWAP3 AND DUP3 MSTORE PUSH1 0x20 DUP3 ADD MSTORE PUSH1 0x40 ADD SWAP1 JUMP JUMPDEST PUSH1 0x1 PUSH1 0x1 PUSH1 0xA0 SHL SUB SWAP4 DUP5 AND DUP2 MSTORE SWAP2 SWAP1 SWAP3 AND PUSH1 0x20 DUP3 ADD MSTORE PUSH1 0x40 DUP2 ADD SWAP2 SWAP1 SWAP2 MSTORE PUSH1 0x60 ADD SWAP1 JUMP JUMPDEST PUSH1 0x0 PUSH1 0x1 DUP1 PUSH1 0xA0 SHL SUB DUP6 AND DUP3 MSTORE DUP4 PUSH1 0x20 DUP4 ADD MSTORE PUSH1 0x60 PUSH1 0x40 DUP4 ADD MSTORE PUSH2 0x1570 PUSH1 0x60 DUP4 ADD DUP5 PUSH2 0x14B0 JUMP JUMPDEST SWAP6 SWAP5 POP POP POP POP POP JUMP JUMPDEST PUSH1 0x40 DUP1 DUP3 MSTORE DUP4 MLOAD SWAP1 DUP3 ADD DUP2 SWAP1 MSTORE PUSH1 0x0 SWAP1 PUSH1 0x20 SWAP1 PUSH1 0x60 DUP5 ADD SWAP1 DUP3 DUP8 ADD DUP5 JUMPDEST DUP3 DUP2 LT ISZERO PUSH2 0x15B9 JUMPI PUSH2 0x15A9 DUP5 DUP4 MLOAD PUSH2 0x14A3 JUMP JUMPDEST SWAP3 DUP5 ADD SWAP3 SWAP1 DUP5 ADD SWAP1 PUSH1 0x1 ADD PUSH2 0x1596 JUMP JUMPDEST POP POP POP DUP4 DUP2 SUB DUP3 DUP6 ADD MSTORE DUP1 DUP6 MLOAD PUSH2 0x15D0 DUP2 DUP5 PUSH2 0x1A4A JUMP JUMPDEST SWAP2 POP DUP4 DUP8 ADD SWAP3 POP DUP5 JUMPDEST DUP2 DUP2 LT ISZERO PUSH2 0x15FA JUMPI PUSH2 0x15EC DUP4 DUP6 MLOAD PUSH2 0x149B JUMP JUMPDEST SWAP4 DUP6 ADD SWAP4 SWAP3 POP PUSH1 0x1 ADD PUSH2 0x15D9 JUMP JUMPDEST POP SWAP1 SWAP8 SWAP7 POP POP POP POP POP POP POP JUMP JUMPDEST PUSH1 0x1 PUSH1 0x1 PUSH1 0xA0 SHL SUB SWAP5 DUP6 AND DUP2 MSTORE PUSH1 0x20 DUP2 ADD SWAP4 SWAP1 SWAP4 MSTORE SWAP1 DUP4 AND PUSH1 0x40 DUP4 ADD MSTORE SWAP1 SWAP2 AND PUSH1 0x60 DUP3 ADD MSTORE PUSH1 0x80 ADD SWAP1 JUMP JUMPDEST PUSH1 0x0 PUSH1 0x20 DUP3 MSTORE PUSH2 0x9B7 PUSH1 0x20 DUP4 ADD DUP5 PUSH2 0x14B0 JUMP JUMPDEST PUSH1 0x20 DUP1 DUP3 MSTORE PUSH1 0x28 SWAP1 DUP3 ADD MSTORE PUSH32 0x4D75737420626520612076616C696420616E6420696E697469616C697A656420 PUSH1 0x40 DUP3 ADD MSTORE PUSH8 0x29B2BA2A37B5B2B7 PUSH1 0xC1 SHL PUSH1 0x60 DUP3 ADD MSTORE PUSH1 0x80 ADD SWAP1 JUMP JUMPDEST PUSH1 0x20 DUP1 DUP3 MSTORE PUSH1 0x1B SWAP1 DUP3 ADD MSTORE PUSH32 0x52656465656D207175616E74697479206D757374206265203E20300000000000 PUSH1 0x40 DUP3 ADD MSTORE PUSH1 0x60 ADD SWAP1 JUMP JUMPDEST PUSH1 0x20 DUP1 DUP3 MSTORE PUSH1 0x1B SWAP1 DUP3 ADD MSTORE PUSH32 0x536166654D6174683A206164646974696F6E206F766572666C6F770000000000 PUSH1 0x40 DUP3 ADD MSTORE PUSH1 0x60 ADD SWAP1 JUMP JUMPDEST PUSH1 0x20 DUP1 DUP3 MSTORE PUSH1 0x30 SWAP1 DUP3 ADD MSTORE PUSH32 0x54686520426173696349737375616E63654D6F64756C65206D6F64756C652063 PUSH1 0x40 DUP3 ADD MSTORE PUSH16 0x185B9B9BDD081899481C995B5BDD9959 PUSH1 0x82 SHL PUSH1 0x60 DUP3 ADD MSTORE PUSH1 0x80 ADD SWAP1 JUMP JUMPDEST PUSH1 0x20 DUP1 DUP3 MSTORE PUSH1 0x24 SWAP1 DUP3 ADD MSTORE PUSH32 0x4F6E6C792064656661756C7420706F736974696F6E732061726520737570706F PUSH1 0x40 DUP3 ADD MSTORE PUSH4 0x1C9D1959 PUSH1 0xE2 SHL PUSH1 0x60 DUP3 ADD MSTORE PUSH1 0x80 ADD SWAP1 JUMP JUMPDEST PUSH1 0x20 DUP1 DUP3 MSTORE PUSH1 0x1E SWAP1 DUP3 ADD MSTORE PUSH32 0x4D7573742062652070656E64696E6720696E697469616C697A6174696F6E0000 PUSH1 0x40 DUP3 ADD MSTORE PUSH1 0x60 ADD SWAP1 JUMP JUMPDEST PUSH1 0x20 DUP1 DUP3 MSTORE PUSH1 0x1A SWAP1 DUP3 ADD MSTORE PUSH32 0x4973737565207175616E74697479206D757374206265203E2030000000000000 PUSH1 0x40 DUP3 ADD MSTORE PUSH1 0x60 ADD SWAP1 JUMP JUMPDEST PUSH1 0x20 DUP1 DUP3 MSTORE PUSH1 0x1E SWAP1 DUP3 ADD MSTORE PUSH32 0x536166654D6174683A207375627472616374696F6E206F766572666C6F770000 PUSH1 0x40 DUP3 ADD MSTORE PUSH1 0x60 ADD SWAP1 JUMP JUMPDEST PUSH1 0x20 DUP1 DUP3 MSTORE PUSH1 0x1A SWAP1 DUP3 ADD MSTORE PUSH32 0x536166654D6174683A206469766973696F6E206279207A65726F000000000000 PUSH1 0x40 DUP3 ADD MSTORE PUSH1 0x60 ADD SWAP1 JUMP JUMPDEST PUSH1 0x20 DUP1 DUP3 MSTORE DUP2 DUP2 ADD MSTORE PUSH32 0x53616665436173743A2076616C7565206D75737420626520706F736974697665 PUSH1 0x40 DUP3 ADD MSTORE PUSH1 0x60 ADD SWAP1 JUMP JUMPDEST PUSH1 0x20 DUP1 DUP3 MSTORE PUSH1 0x21 SWAP1 DUP3 ADD MSTORE PUSH32 0x536166654D6174683A206D756C7469706C69636174696F6E206F766572666C6F PUSH1 0x40 DUP3 ADD MSTORE PUSH1 0x77 PUSH1 0xF8 SHL PUSH1 0x60 DUP3 ADD MSTORE PUSH1 0x80 ADD SWAP1 JUMP JUMPDEST PUSH1 0x20 DUP1 DUP3 MSTORE PUSH1 0x1D SWAP1 DUP3 ADD MSTORE PUSH32 0x496E76616C696420706F7374207472616E736665722062616C616E6365000000 PUSH1 0x40 DUP3 ADD MSTORE PUSH1 0x60 ADD SWAP1 JUMP JUMPDEST PUSH1 0x20 DUP1 DUP3 MSTORE PUSH1 0x1D SWAP1 DUP3 ADD MSTORE PUSH32 0x416464726573733A2063616C6C20746F206E6F6E2D636F6E7472616374000000 PUSH1 0x40 DUP3 ADD MSTORE PUSH1 0x60 ADD SWAP1 JUMP JUMPDEST PUSH1 0x20 DUP1 DUP3 MSTORE PUSH1 0x23 SWAP1 DUP3 ADD MSTORE PUSH32 0x4D75737420626520636F6E74726F6C6C65722D656E61626C656420536574546F PUSH1 0x40 DUP3 ADD MSTORE PUSH3 0x35B2B7 PUSH1 0xE9 SHL PUSH1 0x60 DUP3 ADD MSTORE PUSH1 0x80 ADD SWAP1 JUMP JUMPDEST PUSH1 0x20 DUP1 DUP3 MSTORE PUSH1 0x1C SWAP1 DUP3 ADD MSTORE PUSH32 0x4D7573742062652074686520536574546F6B656E206D616E6167657200000000 PUSH1 0x40 DUP3 ADD MSTORE PUSH1 0x60 ADD SWAP1 JUMP JUMPDEST PUSH1 0x20 DUP1 DUP3 MSTORE PUSH1 0x2A SWAP1 DUP3 ADD MSTORE PUSH32 0x5361666545524332303A204552433230206F7065726174696F6E20646964206E PUSH1 0x40 DUP3 ADD MSTORE PUSH10 0x1BDD081CDD58D8D95959 PUSH1 0xB2 SHL PUSH1 0x60 DUP3 ADD MSTORE PUSH1 0x80 ADD SWAP1 JUMP JUMPDEST PUSH1 0x20 DUP1 DUP3 MSTORE PUSH1 0x1F SWAP1 DUP3 ADD MSTORE PUSH32 0x5265656E7472616E637947756172643A207265656E7472616E742063616C6C00 PUSH1 0x40 DUP3 ADD MSTORE PUSH1 0x60 ADD SWAP1 JUMP JUMPDEST SWAP1 DUP2 MSTORE PUSH1 0x20 ADD SWAP1 JUMP JUMPDEST PUSH1 0x40 MLOAD DUP2 DUP2 ADD PUSH8 0xFFFFFFFFFFFFFFFF DUP2 GT DUP3 DUP3 LT OR ISZERO PUSH2 0x1A72 JUMPI PUSH1 0x0 DUP1 REVERT JUMPDEST PUSH1 0x40 MSTORE SWAP2 SWAP1 POP JUMP JUMPDEST PUSH1 0x0 JUMPDEST DUP4 DUP2 LT ISZERO PUSH2 0x1A95 JUMPI DUP2 DUP2 ADD MLOAD DUP4 DUP3 ADD MSTORE PUSH1 0x20 ADD PUSH2 0x1A7D JUMP JUMPDEST DUP4 DUP2 GT ISZERO PUSH2 0xB03 JUMPI POP POP PUSH1 0x0 SWAP2 ADD MSTORE JUMP JUMPDEST PUSH1 0x1 PUSH1 0x1 PUSH1 0xA0 SHL SUB DUP2 AND DUP2 EQ PUSH2 0x8B1 JUMPI PUSH1 0x0 DUP1 REVERT INVALID LOG2 PUSH5 0x6970667358 0x22 SLT KECCAK256 0xED KECCAK256 DUP11 0xFC 0x26 CREATE2 MUL PUSH9 0xE56110FA9F76600BE5 GASPRICE CODECOPY CALLVALUE 0xC9 0xE3 BYTE 0xA6 PUSH26 0xD4A3D5C565B3864736F6C634300060A00330000000000000000 "
				},
				"gasEstimates": {
					"creation": {
						"codeDepositCost": "1379400",
						"executionCost": "infinite",
						"totalCost": "infinite"
					},
					"external": {
						"controller()": "1136",
						"getRequiredComponentUnitsForIssue(address,uint256)": "infinite",
						"initialize(address,address)": "infinite",
						"issue(address,uint256,address)": "infinite",
						"managerIssuanceHook(address)": "1332",
						"redeem(address,uint256,address)": "infinite",
						"removeModule()": "319"
					},
					"internal": {
						"_callPreIssueHooks(contract ISetToken,uint256,address,address)": "infinite"
					}
				},
				"methodIdentifiers": {
					"controller()": "f77c4791",
					"getRequiredComponentUnitsForIssue(address,uint256)": "7a4ffd03",
					"initialize(address,address)": "485cc955",
					"issue(address,uint256,address)": "6d78f47a",
					"managerIssuanceHook(address)": "dfe75335",
					"redeem(address,uint256,address)": "5c833bfd",
					"removeModule()": "847ef08d"
				}
			},
			"storageLayout": {
				"storage": [
					{
						"astId": 2750,
						"contract": "contracts/modules/BasicIssuanceModule.sol:BasicIssuanceModule",
						"label": "controller",
						"offset": 0,
						"slot": "0",
						"type": "t_contract(IController)1523"
					},
					{
						"astId": 1131,
						"contract": "contracts/modules/BasicIssuanceModule.sol:BasicIssuanceModule",
						"label": "_status",
						"offset": 0,
						"slot": "1",
						"type": "t_uint256"
					},
					{
						"astId": 4263,
						"contract": "contracts/modules/BasicIssuanceModule.sol:BasicIssuanceModule",
						"label": "managerIssuanceHook",
						"offset": 0,
						"slot": "2",
						"type": "t_mapping(t_contract(ISetToken)1867,t_contract(IManagerIssuanceHook)1589)"
					}
				],
				"types": {
					"t_contract(IController)1523": {
						"encoding": "inplace",
						"label": "contract IController",
						"numberOfBytes": "20"
					},
					"t_contract(IManagerIssuanceHook)1589": {
						"encoding": "inplace",
						"label": "contract IManagerIssuanceHook",
						"numberOfBytes": "20"
					},
					"t_contract(ISetToken)1867": {
						"encoding": "inplace",
						"label": "contract ISetToken",
						"numberOfBytes": "20"
					},
					"t_mapping(t_contract(ISetToken)1867,t_contract(IManagerIssuanceHook)1589)": {
						"encoding": "mapping",
						"key": "t_contract(ISetToken)1867",
						"label": "mapping(contract ISetToken => contract IManagerIssuanceHook)",
						"numberOfBytes": "32",
						"value": "t_contract(IManagerIssuanceHook)1589"
					},
					"t_uint256": {
						"encoding": "inplace",
						"label": "uint256",
						"numberOfBytes": "32"
					}
				}
			},
			"userdoc": {
				"methods": {
					"constructor": "Set state controller state variable",
					"getRequiredComponentUnitsForIssue(address,uint256)": {
						"notice": "Retrieves the addresses and units required to mint a particular quantity of SetToken."
					},
					"initialize(address,address)": {
						"notice": "Initializes this module to the SetToken with issuance-related hooks. Only callable by the SetToken's manager. Hook addresses are optional. Address(0) means that no hook will be called"
					},
					"issue(address,uint256,address)": {
						"notice": "Deposits the SetToken's position components into the SetToken and mints the SetToken of the given quantity to the specified _to address. This function only handles Default Positions (positionState = 0)."
					},
					"redeem(address,uint256,address)": {
						"notice": "Redeems the SetToken's positions and sends the components of the given quantity to the caller. This function only handles Default Positions (positionState = 0)."
					},
					"removeModule()": {
						"notice": "Reverts as this module should not be removable after added. Users should always have a way to redeem their Sets"
					}
				}
			}
		}
	}
}